:020000040800F2
:10000000B81F0020D1010008D91000088D0B00088E
:10001000990F00084D050008351C0008000000007D
:10002000000000000000000000000000ED160008C5
:10003000FD070008000000009911000809180008D9
:10004000EB010008EB010008EB010008EB010008E0
:10005000EB010008EB010008EB010008EB010008D0
:10006000EB010008EB0100081B080008EB01000889
:10007000EB01000851050008EB0100089505000898
:10008000EB010008EB010008EB010008EB010008A0
:10009000EB010008EB010008EB010008EB01000890
:1000A000EB010008EB010008EB010008EB01000880
:1000B000EB010008F1180008EB010008EB01000853
:1000C000EB010008EB010008EB010008EB01000860
:1000D000EB010008EB010008EB010008EB01000850
:1000E000EB010008EB010008EB010008EB01000840
:1000F000EB010008EB010008EB010008EB01000830
:10010000EB010008EB010008EB010008EB0100081F
:10011000EB010008EB010008EB010008EB0100080F
:10012000EB010008EB010008EB010008EB010008FF
:10013000EB010008EB010008EB010008EB010008EF
:10014000EB010008EB010008EB010008EB010008DF
:10015000EB010008EB010008EB0100087D1A000824
:10016000EB010008EB010008EB010008EB010008BF
:10017000EB010008EB010008EB010008EB010008AF
:10018000EB010008EB010008EB010008EB0100089F
:10019000EB010008EB010008EB010008EB0100088F
:1001A000EB010008EB010008EB010008DFF80CD0C0
:1001B00000F062F8004800472D250008B81F002015
:1001C00030BF72B6704762B6704780F308887047D8
:1001D0000648804706480047FEE7FEE7FEE7FEE7E1
:1001E000FEE7FEE7FEE7FEE7FEE7FEE795180008FC
:1001F000AD0100082DE9F05F0546002092469B46C0
:1002000088460646814640241BE02846414647462C
:10021000224600F020F853465A46C01A914110D3A6
:1002200011461846224600F039F82D1A67EB0108EE
:100230004F4622460120002100F030F817EB00095C
:100240004E41201EA4F10104DFDC484631462A4617
:100250004346BDE8F09F202A04DB203A21FA02F051
:100260000021704721FA02F3D040C2F120029140F0
:100270000843194670470000064C074D06E0E06849
:1002800040F0010394E8070098471034AC42F6D3DD
:10029000FFF790FF80620008A0620008202A04DBBC
:1002A000203A00FA02F1002070479140C2F1200389
:1002B00020FA03F319439040704700002DE9F84FEE
:1002C000DFF8ECB1584601F064F94FF6FF7840458D
:1002D00005D17748083001F05CF940457ED05D4695
:1002E000584601F056F9724E04460836304601F081
:1002F00050F904EB00446FA001F05EFD284601F0C8
:1003000048F901466FA001F057FD304601F041F970
:1003100001466CA001F050FD6D4800210090802343
:10032000B422084600F052FC00F0CAFD00F0A8FB21
:10033000684800F021FB022100F0CAFA664800F08C
:100340001BFB022100F0C4FA644800F015FB0221F7
:1003500000F0BEFA624800F00FFB022100F0B8FA8C
:10036000604800F009FB022100F0B2FAC4F3090072
:10037000C4F38F258146024629465BA001F01CFD8F
:1003800000244FF00A0A65E015B14FF4806700E0E1
:100390004F465D4E3A465B49306801F0EDF83068F3
:1003A0003844306059A001F007FD3A46554970685D
:1003B00001F04CF97068384470605046B5FBF0F1BC
:1003C000A14236D06900B1FBF0F1A14231D005EB7A
:1003D0004501B1FBF0F1A1422BD000E063E0A900A0
:1003E000B1FBF0F1A14224D005EB8501B1FBF0F1A6
:1003F000A1421ED005EB45014900B1FBF0F1A1423D
:1004000017D0C5EBC501B1FBF0F1A14211D0E90055
:10041000B1FBF0F1A1420CD005EBC501B1FBF0F14D
:10042000A14206D005EB85014900B1FBFAF0A042DC
:1004300006D12B46102246217220009401F09CFE2A
:100440002246294628A001F0B7FC35A001F0B4FCF3
:10045000641CA4B2AC4297D900F0ECFA35A000BFFE
:1004600001F0AAFC124E1036304601F092F845F227
:100470005554A04219D000F003FB0221102000F0D7
:1004800027FA00F0D7FA45464146584601F0F0FAFF
:1004900007482946083001F0EBFA21463046BDE80E
:1004A000F84F01F0E5BA26A0DAE7BDE8F88F0000C2
:1004B00000800008D5FDD4DAB8FCD0C22E2E2E0A5A
:1004C00000000000B3A4B6C8A3BA25780A0D000046
:1004D000C040000800C00008000001080000020839
:1004E0000000040800000608427566665F4E756DE0
:1004F0003A25782C427566665F52656D61696E3A81
:1005000025780A00981300204C000020BBF1C8A1F8
:10051000557064617465C7F8CAFDBEDD0A0000004D
:10052000BDABCAFDBEDDD0B4C8EB417070C7F80AE0
:1005300000000000CDEAB3C9D0B4C8EB0A00000047
:10054000CEDED0E8B8FCD0C20A000000FEE7000012
:1005500070B50D4C4FF081552946204600F00AF940
:1005600000280FD00121094800F011FB002120468E
:1005700000F05CF82946204600F042F804490020CB
:100580008968088070BD000040600240005C004047
:100590001800002070B5154D154C2946204600F076
:1005A000E9F8002820D00021204600F03FF8294635
:1005B000204600F025F80F4C4FF4204060600E4DAF
:1005C0000E4E04E06268501E606000D2FEE73146C5
:1005D000284600F0E6FA0028F4D00121284600F071
:1005E000D6FAE1680020087070BD000020000020ED
:1005F0007060024018000020005C00400400001001
:10060000074A904201D2074801E005481038064ADF
:100610008B0001EA020101D5C1607047816070471B
:1006200010640240006002407D0F7D0F00290168C8
:1006300002D041F0010101E021F0010101607047A9
:100640002DE9F043016821F0010101600021016002
:1006500041608160C1600161212141613C493C4AA6
:100660003D251039904202D18D60BDE8F083384AB3
:100670004FF474661832904201D18E60F5E7344A27
:100680004FF474173032904201D18F60EDE7304A59
:100690004FF0746C4832904202D1C1F808C0E4E7D0
:1006A0002B4B2C4A6033984201D1CA60DDE7284CBD
:1006B000294B7834A04201D1CB60D6E7DFF8908097
:1006C000264C08F19008404501D1CC60CDE7DFF819
:1006D00080804FF03D5908F1A808404502D1C1F88B
:1006E0000C90C2E71E49DFF878800839404501D1F7
:1006F0000D60BAE71A4D1835A84201D10E60B4E773
:10070000174D3035A84201D10F60AEE7144D483582
:10071000A84202D1C1F800C0A7E7114D10496035C9
:10072000091FA84201D10A609FE70D4A7832904222
:1007300001D10B6099E70A4A9032904201D10C60D6
:1007400093E7074AA83290428FD1C1F800908CE716
:10075000106002403D000020400F002000003D20BE
:1007600010640240014600200968C90700D001203A
:10077000704700000246094B00209A4201D2084A05
:1007800001E0064A103A8B0001D5526800E0126879
:10079000044B1A400A4200D0012070471064024006
:1007A000006002407D0F7D0F30B50368124ACC68AF
:1007B00013400A682243D1E905452C432243CC6902
:1007C00022430C6A22434C6A22438C6A22434C6BBC
:1007D00022438C6B22431A430260426922F00703D2
:1007E000D1E90B2422431A4342610A6942604A68F4
:1007F00082608968C16030BD3F801CF07047002274
:100800004FF4FA63002101E0491C89B28142FBD315
:10081000521C92B29A42F5D3704710B5102000F0E6
:1008200015F800280AD0022000F048FF032000F04D
:1008300051FFBDE81040102000F002B810BD0000CC
:100840000149086070470000143C0140034A01461A
:10085000002012680A4200D001207047143C014079
:1008600030B51A498379026853B30B6893430B6020
:100870000A1D13680468A343136002790A441368CD
:10088000046823431360114A083213680468A343C1
:100890001360131D1C680568AC431C604479102C60
:1008A00005D021440A68006802430A6030BD11681F
:1008B000046821431160196800680143196030BD64
:1008C0000079084401689143016030BD003C01405B
:1008D00070B50646002529B1012927D0022928D064
:1008E0004FF4407500F0DEF809281ED1124C206844
:1008F00020F440702060206828432060206820F0A9
:10090000F8002060206846F002010843206020685B
:1009100040F48030206000F0C5F8216821F0020129
:100920002160216821F0F801216070BD4FF48075CD
:10093000D8E74FF40075D5E7103C02400D49092077
:100940000A68D20301D5012070470A68D20601D592
:10095000062070470A68D20501D5022070470A6850
:1009600012F0EF0F01D00720704709688907FBD507
:10097000082070470C3C02400021A0F100634FF4B6
:10098000804293423FD321490144914201D2082140
:1009900039E01F490144914201D2102133E01D4941
:1009A0000144914201D218212DE01B490144B1F5C7
:1009B000803F01D2202126E0184942184FF400312F
:1009C0008A4201D228211EE0154A02448A4201D2FD
:1009D000302118E0134A02448A4201D2382112E041
:1009E000114A02448A4201D240210CE00F4A0244DB
:1009F0008A4201D2482106E00D4A1044884201D2C1
:100A0000502100E0582108467047000000C0FFF761
:100A10000080FFF70040FFF70000FFF70000FEF73F
:100A20000000FCF70000FAF70000F8F70000F6F706
:100A30000000F4F70248016841F00041016070478E
:100A4000103C024070B50D46064600F02BF8092810
:100A500013D10A4C206820F440702060206840F4D4
:100A600080702060206840F001002060358000F038
:100A700019F8216821F00101216070BD103C02408D
:100A800005480068002805DA034804490C3801606D
:100A90000349016070470000103C02402301674594
:100AA000AB89EFCD08B509208DF80000FFF746FFB0
:100AB0008DF800009DF800000128F7D09DF8000097
:100AC00008BDF0B50023012403270D6804FA03F2E2
:100AD0001540954242D1D0F800C05E0007FA06F5F5
:100AE0002CEA050CC0F800C091F804C0D0F800E072
:100AF0000CFA06FC4CEA0E0CC0F800C091F804C0D9
:100B0000BCF1010F02D0BCF1020F1FD1D0F808C018
:100B10002CEA050CC0F808C091F805C0D0F808E030
:100B20000CFA06FC4CEA0E0CC0F808C0D0F804C061
:100B30002CEA020CC0F804C0426891F806C00CFA16
:100B400003FC1FFA8CFC42EA0C024260C268AA4312
:100B5000C260CA79C568B2402A43C2605B1C102BD0
:100B6000B3D3F0BD4B07DB0E9A40C90810B500EBBC
:100B70008100016A0F249C40A1430162016A114374
:100B8000016210BD4183704701837047FEE7002971
:100B9000018802D041F4007101E021F4007101806C
:100BA00070470CB50246002000920A0F21F07F41E9
:100BB000019202D0009A143202E0009A090C183215
:100BC000009212680A4200D001200CBD2DE9FF4FAF
:100BD00087B01D46DDF850A0CDE905100020814604
:100BE000680700D0012000EBD501494535D9002028
:100BF000DDF818B025E0059E1AF8017B05F0070026
:100C000000240190F80701D0012200E000223146C3
:100C1000584600F025F8761C7F08F6B2680705D024
:100C2000B9EBD50F02D10198A04203D0641CE4B205
:100C3000082CE7D30BF1010000F0FF0B08F10100D5
:100C4000C0B2099980468842D5D305980830C0B211
:100C5000059009F10100C0B2C1E70BB0BDE8F08F0B
:100C600010B5B42811D880290FD8CB0801F007019E
:100C700001248C40E1B2054C002A04EB0010C25C58
:100C800001D00A4300E08A43C25410BD580000203E
:100C90002DE9FF4F1D460C468946580700D001201C
:100CA00000EBD500690810FB01F0203A00F0FF0AC4
:100CB00002F0FF0B00263BE00C2D0FD0102D13D0BF
:100CC000182D37D11C490BEBCB0001EB80004FF006
:100CD0000008875D38060BD50D9A0CE017480BEB22
:100CE0004B0100EB8100F2E7154901EB0B10EEE739
:100CF0000D9890B1002221460098FFF7B1FF7806C9
:100D0000641C070EE4B2A4EB0900A84207D10098C6
:100D10004C46401CC0B2009008E00122EBE708F10D
:100D2000010000F0FF08B8F1080FD3D3761CF6B22B
:100D30005645C1D3BDE8FF8F643300080029000881
:100D4000742D00082DE9FF4F81B00026DDF838A092
:100D50001D469346814634464FF001084FEA5A0734
:100D600027E0281B401EC1B20A2001F0E5FCBBFBB6
:100D7000F0F00A21B0FBF1F201FB120026B9691E66
:100D80008C4201DA48B101263030C2B207FB049030
:100D9000C0B25346CDF8008006E007FB0490C0B215
:100DA00053462022CDF800800299FFF771FF641CA2
:100DB000E4B2AC42D5D305B0BDE8F08F2DE9F841DF
:100DC0001F4615460E460446DDF81C8020E0F02044
:100DD000A0EB5700A04202D20024F019C6B2C7F11E
:100DE000A000B04203DA0024264600F055F8B8F11E
:100DF000000F01D0012000E0002000902A783B463F
:100E000031462046FFF744FF04EB5700C4B26D1C87
:100E1000287820385E28DAD9BDE8F8812DE9FC4130
:100E200001210A2000F0BAF901244FF400708DF876
:100E300004400025124F00908DF8065002268DF8D0
:100E4000056069463846FFF73CFE20028DF80440F5
:100E500000908DF806508DF8056069463846FFF71A
:100E600030FE60038DF8044000908DF806508DF838
:100E7000056069460348FFF724FEBDE8FC810000D9
:100E8000000C02400004024010B5FFF7C7FFBDE8A8
:100E9000104001F06BBA000010B50021074B0A4664
:100EA0005FF0000003EB0014401CC0B26254B42891
:100EB000F8D3491CC9B21029F2D310BD5800002044
:100EC0002DE9F041DFF8588000250024EF0004F1FF
:100ED0002000F9B2C0B201F037FC0026002001F07A
:100EE00001FA012001F0CEF901F022FA012001F00F
:100EF000F9F906EBC50108EB0110005D01F0C2F93C
:100F000001F016FA761CF6B2082EE7D3641CE4B2A0
:100F1000102CDCD36D1CEDB2172DD6D3BDE8F081BB
:100F2000580000202DE9F04190B0044619480F46C2
:100F3000DDF858801D46164684424FF0010101D964
:100F4000880501E04FF4001000F028F92046FFF773
:100F500077FB2046FFF706FC0028FAD14020CDE9B8
:100F600002500021CDF810800001CDE90510079155
:100F700080010891CDE909100320CDE90B10CDE9DE
:100F800000760D910E9169462046FFF70DFC10B0DA
:100F9000BDE8F08100640240FEE70000274A10B57A
:100FA000106820F400401060642001F085F82448A7
:100FB000016841F010010160224C606940F01000AE
:100FC0006061106840F40040106004220821002095
:100FD00001F062FC0A2001F06FF82069C005FCD521
:100FE00000229821032001F057FC0A2001F064F848
:100FF0008122BB21052001F04FFC0A2001F05CF8A2
:1010000055220021022001F047FC0A2001F054F88B
:10101000EE2211460B2001F03FFC0A2001F04CF8B3
:10102000002000F047FA002000F044FA002000F011
:1010300041FABDE81040002000F03CBA140C024018
:1010400014180240000002402DE9FC41012108462D
:1010500000F0A4F801248DF804400025DFF86C802E
:1010600010278DF80650022600978DF80560694616
:101070004046FFF726FD20028DF8045000908DF8C1
:1010800007408DF8056069464046FFF71AFD0121CB
:10109000482000F083F8E0038DF8044000908DF8BC
:1010A00006508DF8056069460948FFF70AFD8DF87E
:1010B00004408DF8065000978DF805606946054894
:1010C000FFF7FFFC00F098F9BDE8FC81000002404A
:1010D000000C0240001802407047000030B50F229B
:1010E000C47801780123FCB1144C246801F1E0219B
:1010F00004F4E064C4F5E064C4F30724C4F1040517
:10110000E2404478AC408578154025432A0181F8B7
:101110000024007800F01F018B404009800000F19E
:10112000E020C0F8003130BD01F01F0083404809C5
:10113000800000F1E020C0F8803130BD0CED00E00F
:101140000249084302490860704700000000FA05A0
:101150000CED00E00B4B10B51A6840F60344A243B7
:1011600002431A600848026842F004020260012942
:1011700005D020BF016821F00401016010BD30BF1F
:10118000F8E700000070004010ED00E001494862FF
:101190007047000000000E4270470000044A00291A
:1011A000116801D0014300E08143116070470000E5
:1011B00030380240044A0029116801D0014300E0A0
:1011C000814311607047000040380240044A002902
:1011D000116801D0014300E08143116070470000B5
:1011E00044380240044A0029116801D0014300E05C
:1011F00081431160704700002438024070B5204AD6
:101200001168204C11F00C0104D06610042903D0A1
:10121000082903D004601BE0066019E01849091F83
:101220000B68C3F380550B6803F03F0315B1B6FBA1
:10123000F3F301E0B4FBF3F30C680968C4F388141A
:101240006343C1F30141491C4900B3FBF1F1016063
:1012500011680F2303EA11110B4B5C5C0168E1403C
:1012600041601468072505EA94241C5D21FA04F402
:101270008460126805EA52329A5CD140C16070BD48
:10128000083802400024F400280000200246002014
:10129000510901290BD002290CD00849096802F034
:1012A0001F02012393400B4200D0012070470349E5
:1012B0007439F3E70149091FF0E700007438024070
:1012C0000248006800F00C00704700000838024037
:1012D000024900220A70087070470000023802407C
:1012E000014908667047000000004742034A116840
:1012F00021F00301014311607047000008380240EB
:101300002DE9F04387B001210220FFF747FF4FF49A
:10131000805901214846FFF759FF02268DF81860D1
:1013200000248DF81A4003208DF81900DFF88C8016
:101330003825012705958DF81B7005A94046FFF754
:10134000C0FB052203214046FFF70CFC05220421C7
:101350004046FFF707FC052211464046FFF702FC16
:1013600001214846FFF73EFF00214846FFF73AFFBC
:10137000ADF800404FF48270ADF80200ADF808708F
:101380003002ADF80C50ADF80440ADF80A00ADF8ED
:101390000E4007200A4CADF81000ADF80660694613
:1013A000204600F0CCF80121204600F0ABF8FF20E9
:1013B00000F008F807B0BDE8F08300000004024028
:1013C0000030014070B50B4C05460221204600F06C
:1013D000ABF80028F9D02946204600F0AEF80121EC
:1013E000204600F0A1F80028F9D0204600F0A3F82C
:1013F000C0B270BD003001402DE9F04188B001213C
:101400000420FFF7CBFE0121C803FFF7D3FE02261D
:101410008DF8186000248DF81A4003208DF819000B
:10142000DFF888804FF4E055012705958DF81B7093
:1014300005A94046FFF745FB29464046FFF7A4FBB8
:1014400006220A214046FFF78DFB06220B2140466B
:10145000FFF788FB06220C214046FFF783FBADF81F
:1014600000404FF48270ADF80200ADF80870300211
:10147000ADF80A001820ADF80C00ADF80440ADF846
:101480000E4007200A4CADF81000ADF80660694622
:10149000204600F054F80121204600F033F8FF20E8
:1014A00000F008F808B0BDE8F08100000008024034
:1014B000003C004070B506460024114D03E0641C5A
:1014C000E4B2C82C0FD80221284600F02DF80028DD
:1014D000F5D03146284600F030F8002405E0641CC1
:1014E000E4B2C82C01D9002070BD0121284600F0CB
:1014F0001BF80028F3D0284600F01DF8C0B270BDDC
:10150000003C00400029018802D041F0400101E088
:1015100021F0400101807047002A828801D00A43EF
:1015200000E08A43828070470246002012890A4206
:1015300000D001207047808970478181704730B5A5
:1015400002884C8802F441530A88CD8822438C8853
:101550002C4322430C8922434C8922438C89224309
:10156000CC8922431A430280828B22F40062828358
:10157000098A018230BD000010B5002306E000BFDB
:1015800030F8024B21F813405B1C9BB29342F7D317
:1015900010BD0088704700002DE9F05FA0F10064E5
:1015A000154688468246B4F5001F4BD2FFF768FA0D
:1015B000E70AC4F34906C6F58064A54200D82C4664
:1015C0004FF4806B4FF0006000EBC72081465A4615
:1015D0001D49FFF7D1FF00204FF6FF721A4906E0C0
:1015E000331831F81330934203D1401C80B2A0422B
:1015F000F6D3A0421ED2002007E000BF38F810202A
:101600008319401C21F8132080B2A042F6D348462B
:101610005A460D4900F01AF8A5420FD0281B08EBD6
:101620004408A244002685B25C467F1CA542C9D866
:101630002C46C7E7224641465046EBE7BDE8F05F3F
:10164000FFF7F8B9BDE8F09F980B00202DE9F041B5
:1016500016460F460546002408E000BF37F8141070
:101660002846FFF7EFF9641CA4B2AD1CB442F5D3D1
:10167000BDE8F0811CB504460E48012150F8240055
:10168000FFF78CFD0B480021083830F8140000905B
:1016900001208DF804008DF806108DF80700022057
:1016A0008DF805000448694650F82400FFF709FA50
:1016B0001CBD0000F0280008080000200349044A6F
:1016C00031F8101052F8200041837047E8280008D4
:1016D000080000200349044A31F8101052F8200095
:1016E00001837047E82800080800002070470000C8
:1016F00010B58A0721F003040849130F21440F2273
:10170000D1F808489A409443C1F80848D1F808280D
:1017100098400243C1F8082810BD00000030014085
:101720000CB500202E49019000900A6842F48032E6
:101730000A604FF4A0430A6802F400320092019A52
:10174000521C0192009A12B9019A9A42F3D10A6886
:10175000920306D50120224A0090121D21481060F4
:1017600000E000901E484030026842F08052026063
:101770001D48026842F440420260194A0832136868
:101780001360136843F400431360136843F4A053D9
:1017900013600B6843F080730B600B689B01FCD5F2
:1017A000016841F4803101604168C903FCD50168DA
:1017B00041F40031016041688903FCD50B4940F2D6
:1017C00005700860106820F003001060106840F099
:1017D000020010601068C0F381000228FAD10CBD2D
:1017E00000380240085A400700700040003C0240A8
:1017F0004FF0E0210428086903D020F004000861BC
:10180000704740F00400FAE77047000000B589B067
:101810000220FFF75FFF0320FFF750FF0120FFF7D3
:10182000B5FC01210846FFF795FCFFF749FD684626
:10183000FFF7E4FC0120FFF74BFD3120FFF726FD09
:101840000028FAD00120FFF74BFD3920FFF71EFDDD
:101850000028FAD00220FFF749FD00BFFFF730FD56
:101860000828FBD1FFF72CFD04A8FFF7C7FC0220D6
:10187000FFF724FF0320FFF72DFF05491020086024
:1018800003481438016821F01001016009B000BD5F
:10189000143C0140124810B5016841F47001016028
:1018A0001048016841F0010101600E4A0021083230
:1018B000116002680C4B1A400260031D0B4A1A604B
:1018C000026822F48022026006480C300160FFF7B3
:1018D00027FF03494FF000608039086010BD000009
:1018E00088ED00E000380240FFFFF6FE10300024D3
:1018F00070B5154D0121284600F067F801281AD16E
:1019000012480A22124C0078B0FBF2F321788B4285
:1019100005D80A2903D80120FFF7D0FE06E0B0FB66
:10192000F2F0884202D90120FFF7D4FE21780A297B
:1019300007D0491C21702846BDE87040012100F005
:1019400037B800202070F6E700040040390000207E
:10195000380000207FB50C46054601210220FFF724
:1019600029FCADF800400020104CADF80200ADF8A5
:10197000080001956946204600F03CF80122114616
:10198000204600F02EF80121204600F014F81D201A
:101990008DF80C0001208DF80D0003218DF80E103C
:1019A0008DF80F0003A8FFF799FB7FBD00040040EE
:1019B000C943018270470029018802D041F001012A
:1019C00001E021F001010180704702460020138AE6
:1019D00092890B4202EA010202D0002A00D00120C3
:1019E0007047002A828901D00A4300E08A4382813D
:1019F0007047000030B50288164B174C98420DD046
:101A0000A0420BD0B0F1804F08D0144DA84205D0B1
:101A1000134DA84202D0134DA84203D122F0700505
:101A20004A882A43104DA84206D0104DA84203D040
:101A300022F440750A892A4302804A68C2620A88F1
:101A40000285984201D0A04201D1897A0186012104
:101A5000818230BD000001400004014000040040CC
:101A600000080040000C004000100040001400403E
:101A700013B5012201A9FFF78FFD1CBD70B50C4CF9
:101A800040F225552946204600F03FF800280DD0A9
:101A90002946204600F022F8204600F0C3F8C4B2E0
:101AA000204600F009F80348303C046070BD000097
:101AB000001401404000002070B5074C054680210D
:101AC000204600F01BF80028F9D029462046BDE842
:101AD000704000F0ABB80000001401400A0A012178
:101AE0009140C943018070470029818902D041F4A7
:101AF000005101E021F4005181817047024600202D
:101B000012880A4200D00120704730B501F01F0250
:101B100001240025C1F3421304FA02F2012B0FD075
:101B2000022B0FD0838A4FEA11210088134204FA56
:101B300001F400EA040001D000B10125284630BDBF
:101B40008389F0E7038AEEE710B5C1F3421301F091
:101B50001F040121A140012B07D0022B07D0143014
:101B6000002A026805D00A4304E00C30F8E7103080
:101B7000F6E78A43026010BD7FB50446008A0D4631
:101B800020F44051E88808432082A08941F20C618A
:101B90008843A9882A8911436A8902431143A18194
:101BA000A08A20F44071A8890843A0826846FFF704
:101BB00025FB1A48844202D01948844201D1039877
:101BC00000E00298A189090400EBC00101EB0010BC
:101BD000296801D5490000E08900B0FBF1F26420DA
:101BE000B2FBF0F109010B096FF018056B4302EB32
:101BF0008302A3891D044FF0320306D503EBC20212
:101C0000B2FBF0F000F0070005E003EB0212B2FBBC
:101C1000F0F000F00F00084320817FBD001001406C
:101C2000001401408088C0F308007047C1F3080128
:101C300081807047FEE700007CB501210846FFF770
:101C4000ADFA4FF40040012400908DF804400020CC
:101C50008DF8060003208DF805008DF807406946D1
:101C60000B48FEF72EFF80200A4D0090694628465B
:101C7000FEF727FF80212846FEF786FF0648C0F8BA
:101C8000BC42FFF73DFB00F033F8044908807CBDFF
:101C900000000240001802400000404248000020BE
:101CA0002DE9F041114E0746002015460C46C6F8B6
:101CB000BC020320FFF786FBC4F30740FFF782FB5B
:101CC000C4F30720FFF77EFBE0B2FFF77BFB0024A5
:101CD00005E0FF20FFF776FB3855641CA4B2AC4248
:101CE000F7D30120C6F8BC02BDE8F08100004042F5
:101CF00070B50F4C0025C4F8BC52902004F52F7429
:101D0000FFF760FB0020FFF75DFB0020FFF75AFBA9
:101D10000020FFF757FBFF20FFF754FB45EA0025A3
:101D2000FF20FFF74FFB28430121216070BD000019
:101D30000000404270B586B001211020FFF72EFA56
:101D400001218803FFF742FA4FF4C060FFF7F8F96A
:101D50000A258DF8005001248DF801408DF80240CD
:101D60008DF803406846FFF7B9F98DF800506846D2
:101D7000FFF7B4F900268DF808608DF80B400320BA
:101D800010258DF80900019501A90A48FEF799FE72
:101D900004210846FFF7ACFC8DF8106008208DF890
:101DA000110003958DF8124003A8FEF759FD06B007
:101DB00070BD0000001002400FB4054B10B503A920
:101DC000044A029800F018F810BC5DF814FB0000FB
:101DD000612100084400002002E008C8121F08C169
:101DE000002AFAD170477047002001E001C1121F9C
:101DF000002AFBD1704700002DE9FF4F8DB09B46B4
:101E00000F460446002606E025280BD05A460F99B7
:101E10009047641C761C20780028F5D111B030461C
:101E2000BDE8F08F0025A8460122984900E005434F
:101E300014F8013F203B02FA03F00842F7D1207862
:101E40002E2817D114F8010F45F004052A280ED0CA
:101E50006FF02F022078A0F1300109290AD808EB91
:101E6000880102EB410100EB0108641CF2E757F81E
:101E7000048B641C20786C280DD004DC4C2812D014
:101E80006A2811D104E074280DD07A280CD10AE018
:101E900045F4001507E0617845F48015814202D1D0
:101EA000641C05F58015641C2278692A45D008DC7D
:101EB000002AB3D0582A69D0632A10D0642A08D1E6
:101EC0003BE0702A67D0732A13D0752A5CD0782A39
:101ED0005CD010465A460F999047761CD3E017F80D
:101EE000040B8DF8000000208DF80100E946012068
:101EF00003E057F8049B4FF0FF3069074FF00005EF
:101F000001D40AE06D1C45450DDA8542FADB19F86B
:101F100005100029F6D106E06D1C8542FCDB19F89E
:101F200005100029F8D12E4404E019F8010B5A4697
:101F30000F9990476D1EF8D2A5E00A200021CDE947
:101F40000801C5F3025002280DD001CFC117031EAE
:101F500071F100030DDA4FF0000CD0EB0C006CEBCC
:101F600001012D2308E0FF1D27F00707F7E8020114
:101F7000EDE72B0504D52B238DF8283001233BE01A
:101F8000EB0739D02023F7E70A2000E010200021DA
:101F9000CDE9080107E01020002145F00405CDE956
:101FA00008014FF00808C5F3025002280FD001CFF6
:101FB00000214FF0000A2B071FD5702A0DD0DDE954
:101FC00008C38CF0100C5CEA030C0CD015E0FF1D6C
:101FD00027F00707F7E80201EBE740228DF82820F9
:101FE0004FF0010A0BE050EA010306D030238DF8D0
:101FF00028308DF8292002239A46582A04D024A29A
:102000000DF120090B9209E026A2F9E7DDE908238A
:10201000FEF7F0F80B9B9B5C09F8013D50EA0102CA
:10202000F4D1ADEB090020300890680701D44FF0DF
:1020300001080899884502DDA8EB010000E00020B6
:102040008046002506E00AA85A46405D0F99904751
:102050006D1C761C5545F6DB04E030205A460F997E
:102060009047761CB8F10001A8F10108F5DC05E005
:1020700019F8010B5A460F999047761C0899481E8B
:1020800008900029F4DC641CC5E600000928010062
:1020900030313233343536373839616263646566DE
:1020A00000000000303132333435363738394142A0
:1020B0004344454600000000C0EB00104FF6FF719E
:1020C00001EA4000401E80B2FCD2704710B50446C1
:1020D0006FF00400FFF78CFB0648E10801EB4102BA
:1020E0000170C2EBC1114FF6FF7202EAC1014180DB
:1020F00010BD00003A00002070B54FF40775B0FB2A
:10210000F5F1CCB2B0FBF5F105FB110604E0284671
:1021100000F00CF8641EE4B2002CF8D1002E04D0BC
:102120003046BDE8704000F001B870BD0B494988E9
:1021300048434FF0E021486100228A61086940F07D
:10214000010008610869C30701D0C003FAD5086916
:1021500020F0010008618A61704700003A00002009
:1021600004490A885206FCD5024AC1B2121D1180E8
:102170007047000000140140F8B514469DED060AB2
:102180000D460646F8EE400A00EE103AB8EE401A48
:1021900080EE810ADFED140A20EE200ADFED130A3B
:1021A000F4EE400AF1EE10FA1BD00120009004EB8F
:1021B000440006EB50001346E9B2C0B20CA2FEF791
:1021C000FDFDBCEEC00A10EE100AC2B2642A00D9AE
:1021D0006422E9B2F0B203230094FEF7B3FDFEF7E8
:1021E0006FFE0020F8BD00000000C84200007F43E1
:1021F00025000000014800F003B8000000C00008FE
:1022000070B5044601460EA0FFF7D6FD216810A068
:10221000FFF7D2FD2168124D12A02940FFF7CCFD37
:1022200020682840B0F1005F09D16068144DA860B3
:102230002068FDF7CAFFA868BDE87040004770BD80
:1022400061707078616464723A25780A0D0000004C
:102250002A61707078616464723A25780A0D000012
:102260000000FD2F2A6170707861646472263078F6
:1022700032464644303030303A25780A0D000000AE
:102280004C0000202DE9F047DFF85090144E054631
:1022900000244FF400784FF4005728064146484682
:1022A00002D5FEF771FC01E0FEF76CFC39463046C2
:1022B000FEF76AFC39463046FEF764FC6806641C8B
:1022C000050EE4B2082CE8D339463046FEF75CFC34
:1022D00039463046BDE8F047FEF754BC000C0240DA
:1022E000000402402DE9F0410F4D80464FF4007488
:1022F00021462846FEF748FC0C4F26013146384659
:10230000FEF742FC21462846FEF73CFC31463846A3
:10231000FEF738FCB8F1000F04D07A20BDE8F04198
:10232000FFF7B0BF7820F9E7000C0240000402403C
:102330002DE9F0410B4D4FF4007421462846FEF77D
:1023400021FC094F260131463846FEF71BFC314679
:102350003846FEF719FC21462846BDE8F041FEF755
:1023600013BC0000000C02400004024070B54FF4A2
:102370007A70FEF744FA6C4D4FF48074214628467B
:10238000FEF702FC4FF4C870FEF739FA21462846E2
:10239000FEF7F8FB4FF44860FEF731FA2146284675
:1023A000FEF7F2FB4FF4FA50FEF729FA0020FFF790
:1023B00099FFE120FFF766FFFFF7BAFF0120FFF763
:1023C00091FFE220FFF75EFFFFF7B2FFC820FEF7A4
:1023D00016FA0020FFF786FF0420FFF753FFFFF7F0
:1023E000A7FF0120FFF77EFF0020FFF74BFFFFF75D
:1023F0009FFF0020FFF776FF2D20FFF743FF2420EB
:10240000FFF740FFEB20FFF73DFFFFF791FF0020B4
:10241000FFF768FF8120FFF735FFFFF789FF0120F5
:10242000FFF760FF5520FFF72DFFFFF781FF00202A
:10243000FFF758FF4020FFF725FF5020FFF722FF4E
:102440008620FFF71FFF8920FFF71CFFC420FFF73E
:1024500019FFA320FFF716FF9520FFF713FFFFF7E3
:1024600067FF0020FFF73EFFC820FFF70BFFFFF7D5
:102470005FFF0120FFF736FF3920FFF703FFFFF76B
:1024800057FF0020FFF72EFFF120FFF7FBFEFFF7BD
:102490004FFF0120FFF726FF7F20FFF7F3FEFFF736
:1024A00047FF0020FFF71EFFF220FFF7EBFEFFF7CC
:1024B0003FFF0120FFF716FF0020FFF7E3FEFFF7C5
:1024C00037FF0020FFF70EFFF320FFF7DBFEFFF7DB
:1024D0002FFF0120FFF706FF7F20FFF7D3FEFFF756
:1024E00027FF0020FFF7FEFE8520FFF7CBFEFFF75A
:1024F0001FFF0020FFF7F6FE9520FFF7C3FEFFF752
:1025000017FF0020FFF7EEFEC920FFF7BBFEFFF725
:102510000FFF0120FFF7E6FEAD20FFF7B3FEBDE899
:102520007040FFF705BF0000000C024008B54FF4F3
:10253000A060FEF705FEFFF7ADF94FF4165000F06E
:102540002DF90220FFF796F80320FFF793F80220F9
:10255000FFF7B4F80320FFF7B1F8FEF775FDFEF7BB
:102560001DFD002001460090444B454A4548FEF7BA
:10257000D9FC4348012202210C38FEF7CDFF424826
:10258000016821F01001016040A0FFF715FCFFF782
:10259000D1FBFFF73BF942F2CF010920FFF7DAF94F
:1025A000FFF74AFBFFF7A4FB3B49A0F56F42183A3F
:1025B000098801D039A000E041A0FFF7FDFB484C9D
:1025C00048A02178FFF7F8FB01224B492046FFF78E
:1025D00067FB217843A0FFF7EFFBB420FFF776FD00
:1025E0000120FFF747F80120FFF774F8FEF74CFCD5
:1025F0004248002100908023B4220846FEF7E6FA04
:10260000FEF75EFC4FF47A742046FFF775FD3C48F8
:10261000002100908023B4220846FEF7D7FAFEF787
:102620004FFC2046FFF768FD364D374E45F25554B6
:102630004FF6FF7742F2107834A0FFF7BDFBFDF7AD
:102640003DFE2846FEF7A5FFA042FAD132A0FFF7D3
:10265000B3FB00213046FFF7AEF9FFF7CBFD32A008
:10266000FFF7AAFBFEF70CFA39462846FFF700FAF7
:10267000FEF7E0F94046FFF73FFDDDE7981B00203D
:102680000C3C00408860024014180240BDF8C8EBC2
:102690004941500A000000004800002057323551DF
:1026A00031323820436865636B204661696C65642C
:1026B00021202049443A257820200A0D00000000FE
:1026C0005732355131323820636F6D706C657465E7
:1026D00064212049443A257820200A0D000000009A
:1026E000390000206C696768745F766F6C756D6582
:1026F0003A257820200A0D000014F201004C000851
:10270000405700081080000800040040BCECB2E90B
:10271000B8FCD0C20A000000D7BCB1B8CCF8B3F600
:102720004941500A0D000000CCF8B3F6494150CAA7
:10273000A7B0DC0A000000000246012000E0504380
:10274000491EC9B2FBD2704770B504460D46002041
:10275000FFF7C8FD0420FFF795FDFFF7E9FD012015
:10276000FFF7C0FD2846FFF78DFDFFF7E1FD0020D4
:10277000FFF7B8FD44F06000FFF784FD7020FFF71D
:1027800081FDFFF7D5FD0020FFF7ACFDF920FFF735
:1027900079FDBDE87040FFF7CBBD00002DE9F043A7
:1027A000814687B001214820FEF7F8FC0121202056
:1027B000FEF70CFD01258DF8045000248DF806402D
:1027C0000327DFF8C8804FF480768DF805700096F7
:1027D0008DF8075069464046FEF773F9314640468A
:1027E000FEF7D0F9DFF8A880082209214046FEF75D
:1027F000B9F908220E214046FEF7B4F902268DF8F9
:10280000046068028DF8056000908DF806408DF830
:10281000075069464046FEF754F98DF80460A80356
:102820008DF8056000908DF806408DF807506946D8
:102830004046FEF746F9ADF80C40ADF80E40ADF855
:102840001040ADF814400C20124CADF81200CDF839
:10285000089002A92046FFF78FF901212046FFF7D3
:1028600043F9012240F225512046FFF76DF9472038
:102870008DF818008DF819708DF81A708DF81B50AE
:1028800006A8FEF72BFC07B0BDE8F083000C024061
:1028900000180240001401402DE9F0410E4C15468D
:1028A0000E4607462069C005FCD5606920F010007F
:1028B00060610220FEF7FEFD3846FEF7FBFD304664
:1028C000FEF7F8FD2846FEF7F5FD606940F01000C0
:1028D0006061BDE8F08100000000024000000600D9
:1028E00001000100010000000400001004000020AD
:1028F0002000000002000000200000000400000092
:1029000000000000000000000000000000000000C7
:102910003F40000000000000000030004000300098
:102920004000000009000BC03D000BC03D00090045
:1029300018C024407FE0224031800000180024C0ED
:102940001B000D803240018003801C4027401C800A
:102950000740004010006000000000000000000080
:102960000000000000001F802040402000004020A8
:1029700020401F8000000000090006001F800600A4
:1029800009000000040004003F800400040000006F
:1029900000100060000000000000000004000400BF
:1029A00004000400040000000000004000000000DB
:1029B00000000000002001C00600380040000000B8
:1029C0001F802040204020401F8000000000104059
:1029D0003FC000400000000018C0214022402440B9
:1029E0001840000010802040244024401B8000003C
:1029F00002000D0011003FC0014000003C80244057
:102A000024402440238000001F8024402440344080
:102A1000038000003000200027C0380020000000A4
:102A20001B802440244024401B8000001C0022C046
:102A3000224022401F8000000000000008400000EB
:102A40000000000000000000046000000000000022
:102A5000000004000A001100208040400900090025
:102A6000090009000900000000004040208011001A
:102A70000A00040018002000234024001800000071
:102A80001F802040274029401F400000004007C011
:102A900039000F0001C0004020403FC024402440C6
:102AA0001B8000001F80204020402040308000001C
:102AB00020403FC0204020401F80000020403FC0F9
:102AC00024402E4030C0000020403FC024402E0053
:102AD000300000000F0010802040224033800200B0
:102AE00020403FC0040004003FC020402040204060
:102AF0003FC02040204000000060202020203FC038
:102B00002000200020403FC024400B0030C0204067
:102B100020403FC020400040004000C03FC03C007B
:102B200003C03C003FC0000020403FC00C402300D9
:102B30003FC020001F802040204020401F80000018
:102B400020403FC024402400180000001F80214086
:102B5000214020E01FA0000020403FC0244026006C
:102B600019C0004018C02440244022403180000099
:102B7000300020403FC020403000000020003F8057
:102B8000004000403F80200020003E0001C00700C0
:102B900038002000380007C03C0007C038000000A3
:102BA000204039C0060039C02040000020003840D5
:102BB00007C0384020000000304021C02640384087
:102BC00020C00000000000007FE040204020000006
:102BD000000070000C000380004000000000402056
:102BE00040207FE0000000000000200040002000A6
:102BF0000000000000100010001000100010001075
:102C00000000000040000000000000000000028002
:102C10000540054003C0004020003FC00440044080
:102C200003800000000003800440044006400000D0
:102C300000000380044024403FC0004000000380A7
:102C40000540054003400000000004401FC0244030
:102C500024402000000002E00550055006500420EA
:102C600020403FC00440040003C000400000044076
:102C700027C000400000000000100010041027E0F2
:102C80000000000020403FC00140070004C0044095
:102C9000204020403FC000400040000007C004002A
:102CA00007C0040003C00000044007C00440040043
:102CB00003C0004000000380044004400380000083
:102CC000041007F00450044003800000000003805B
:102CD0000440045007F00010044007C00240040004
:102CE00004000000000006400540054004C000004C
:102CF000000004001F800440004000000400078022
:102D00000040044007C000400400070004C00180E8
:102D100006000400060001C0070001C00600000014
:102D2000044006C0010006C0044000000410071063
:102D300004E00180060004000000044005C00640D5
:102D4000044000000000000004007BE04020000080
:102D5000000000000000FFF0000000000000402024
:102D60007BE00400000000004000800040002000E4
:102D700020004000000000000000000000000000F3
:102D8000000000000000000000001FCC000C00004C
:102D90000000000000000800300060000800300063
:102DA00060000000022003FC1E20022003FC1E2005
:102DB0000220000000000E1811043FFF10840C7860
:102DC000000000000F0010840F3800C0077818843E
:102DD0000078000000780F8410C411240E9800E4DD
:102DE0000084000808006800700000000000000077
:102DF0000000000000000000000007E01818200498
:102E000040020000000040022004181807E0000003
:102E1000000000000240024001800FF001800240EB
:102E2000024000000080008000800FF800800080D9
:102E3000008000000001000D000E000000000000F6
:102E40000000000000000080008000800080008002
:102E5000008000800000000C000C0000000000005A
:102E6000000000000000000600180060018006005D
:102E700018002000000007F00808100410040808DB
:102E800007F000000000080408041FFC0004000410
:102E90000000000000000E0C1014102410441184D7
:102EA0000E0C000000000C1810041104110412880C
:102EB0000C700000000000E00320042408241FFC24
:102EC0000024000000001F981084110411041088D1
:102ED00010700000000007F0088811041104188821
:102EE0000070000000001C00100010FC13001C000B
:102EF0001000000000000E381144108410841144AA
:102F00000E38000000000700088C104410440888A8
:102F100007F00000000000000000030C030C00009C
:102F20000000000000000000000101060000000099
:102F3000000000000000008001400220041008088A
:102F400010040000022002200220022002200220A1
:102F500002200000000010040808041002200140B4
:102F60000080000000000E001200100C106C108099
:102F70000F00000003E00C1813E4142417C4082801
:102F800007D000000004003C03C41C40074000E4DC
:102F9000001C000410041FFC1104110411040E880D
:102FA0000070000003E00C18100410041004100856
:102FB0001C10000010041FFC10041004100408086A
:102FC00007F0000010041FFC1104110417C41004C2
:102FD0000818000010041FFC1104110017C0100095
:102FE0000800000003E00C181004100410441C78C2
:102FF0000040000010041FFC10840080008010843A
:103000001FFC10040000100410041FFC1004100426
:103010000000000000030001100110011FFE10005D
:103020001000000010041FFC110403801464181C1D
:103030001004000010041FFC10040004000400042D
:10304000000C000010041FFC1F0000FC1F001FFCF0
:103050001004000010041FFC0C04030000E0101812
:103060001FFC100007F008081004100410040808E2
:1030700007F0000010041FFC1084108010801080E6
:103080000F00000007F0081810241024101C080A74
:1030900007F2000010041FFC1104110011C01130D0
:1030A0000E0C000400000E1C110410841084104447
:1030B0001C3800001800100010041FFC1004100041
:1030C0001800000010001FF8100400040004100491
:1030D0001FF8100010001E0011E0001C007013808B
:1030E0001C0010001FC0103C00E01F0000E0103C5E
:1030F0001FC000001004180C163401C001C01634A3
:10310000180C100410001C00130400FC13041C0015
:10311000100000000804101C1064108413041C0428
:10312000101800000000000000007FFE4002400276
:1031300040020000000030000C0003800060001C12
:103140000003000000004002400240027FFE000039
:10315000000000000000000020004000400040008F
:103160002000000000010001000100010001000139
:1031700000010001000040004000200000000000AD
:1031800000000000000000980124014401440144B3
:1031900000FC000410001FFC0088010401040088EA
:1031A00000700000000000700088010401040104A8
:1031B000008800000000007000880104010411086C
:1031C0001FFC0004000000F80144014401440144D4
:1031D00000C800000000010401040FFC11041104E8
:1031E00011001800000000D601290129012901C998
:1031F0000106000010041FFC00840100010001040E
:1032000000FC000400000104190419FC000400047F
:10321000000000000000000300010101190119FE77
:103220000000000010041FFC0024004001B4010C49
:10323000010400000000100410041FFC000400043E
:1032400000000000010401FC0104010001FC010474
:10325000010000FC010401FC0084010001000104E4
:1032600000FC0004000000F8010401040104010452
:1032700000F80000010101FF00850104010400883D
:1032800000700000000000700088010401040105C6
:1032900001FF00010104010401FC0084010401009C
:1032A00001800000000000CC01240124012401243D
:1032B0000198000000000100010007F8010401046A
:1032C00000000000010001F80004000400040108EF
:1032D00001FC0004010001800170000C001001607D
:1032E0000180010001F0010C003001C00030010C30
:1032F00001F0010000000104018C00740170018CD8
:1033000001040000010101810171000E001801603B
:103310000180010000000184010C0134014401849A
:10332000010C0000000000000000000001003EFC55
:10333000400240020000000000000000FFFF00000B
:10334000000000000000400240023EFC01000000BE
:10335000000000000000600080008000400040008D
:10336000200020000000000000000000000000001D
:10337000000000000000000000000000000000004D
:10338000000000000000000000000000000000003D
:10339000000000000000000F80380FFE380F80385A
:1033A000000000000000000000000000000000001D
:1033B00000000100000600000C0000380000310091
:1033C000000600000C000038000030000000000083
:1033D0000000000061800067F807F980006180004C
:1033E00061800061800061800067F807F9800061FA
:1033F0008000000000000000000001C0E003E0F0D9
:103400000630080418081FFFFE040E080787F003A3
:1034100081E000000000000001F000060C00040440
:1034200008060C7001F9C0000E00003BE000EC182B
:10343000070808040C180003E00000000001E00089
:1034400007F003F818041C0804170807E1D003C0AC
:10345000E00023B0003C080020080000100000003D
:103460000000000100003100003200001C000000DC
:10347000000000000000000000000000000000004C
:10348000000000000000000000000000000000003C
:10349000000000007F0001FFC00780F00C00181042
:1034A00000042000020000000000002000021000C4
:1034B000040C00180780F001FFC0007F000000002E
:1034C00000000000000000000000000000000000FC
:1034D0004200006600006600003C0000180003FF88
:1034E000C0001800003C00006600006600004200BA
:1034F00000000000080000080000080000080000AC
:10350000080001FFC00008000008000008000008D3
:10351000000008000000000000010000310000323F
:1035200000001C000000000000000000000000007F
:10353000000000000000000000000000080000087B
:103540000000080000080000080000080000080053
:103550000008000008000008000000000000000053
:1035600000000000380000380000380000000000B3
:10357000000000000000000000000000000000004B
:1035800000000000000600001C0000700001800028
:103590000E0000380000C0000700001C00003000D2
:1035A00000000000000000007F8001FFE003807049
:1035B00006001804000804000806001803807001C3
:1035C000FFE0007F8000000000000000000001001C
:1035D0000801000801000803FFF807FFF8000008D1
:1035E00000000800000800000000000000000001CA
:1035F000C03802C0580400980401180402180404DA
:1036000018061C1803F81801E0F80000000000007C
:1036100000000001C0E003C0F00400080408080432
:10362000080806180803F41801E7F00001E000009C
:1036300000000000000000000300000D0000110069
:1036400000610000810803010807FFF80FFFF80080
:1036500001080001080000000000000000E007FC75
:10366000D0060808061008061008061008061838C4
:10367000060FF00607C00000000000000000000078
:103680003F8001FFE0038430020818041008041092
:1036900008041008071810030FF00007C00000000E
:1036A00000000000000003C0000700000600000644
:1036B00000F80607F806180006E0000700000600FC
:1036C0000000000000000001E1E003F7F006341004
:1036D000041808041808040C08040C08061618033B
:1036E000F3F001C1E000000000000000F80003FC5E
:1036F0003003063804020804020804020804041017
:103700000308F001FFC0007F00000000000000007F
:103710000000000000000000000000007038007091
:1037200038007038000000000000000000000000B9
:103730000000000000000000000000000000000089
:10374000301A00301C0000000000000000000000E3
:10375000000000000000000000000008000014004D
:10376000002200004100008080010040020020048F
:1037700000100800080000000000000021000021E7
:103780000000210000210000210000210000210094
:1037900000210000210000210000000000000000C6
:1037A0000000080008040010020020010040008012
:1037B000800041000022000014000008000000000A
:1037C00000000003C00004C0000400000800380826
:1037D0000F380808380810000C300007E00003C05C
:1037E00000000000000000003F8000FFE003807048
:1037F000020F1006708804C088048308047F8802C2
:10380000C09003012000FE400000080000180001E5
:10381000F8003E0801C20007020007E20000FE00B7
:10382000001FC80001F80000380000080400080765
:10383000FFF807FFF804080804080804080804084B
:103840000806180803F41801E7F00001E000000082
:10385000000000003F8001FFE003807002001804B8
:103860000008040008040008040010060020078077
:10387000C000000004000807FFF807FFF804000874
:1038800004000804000804001802001003807001FE
:10389000FFE0007F8000000004000807FFF807FF3A
:1038A000F8040808040808040808040808043E0886
:1038B000040008060018010060000000040008076A
:1038C000FFF807FFF80408080408000408000408CB
:1038D00000043E0006000006000001800000000019
:1038E000000000003F8001FFE00380700600180424
:1038F00000080402080402080203F00783F0000233
:103900000000020004000807FFF807FFF804080899
:10391000000800000800000800000800040808076C
:10392000FFF807FFF8040008000000000000040092
:103930000804000804000807FFF807FFF80400085F
:10394000040008040008000000000000000000005F
:10395000000600000700000104000104000104004B
:103960000307FFFE07FFFC04000004000004000042
:1039700004000807FFF807FFF8040C08001800000F
:103980003E0004C7800503C80600F80400380400A0
:103990001800000804000807FFF807FFF8040008F3
:1039A00000000800000800000800000800000800EF
:1039B000001800006000000004000807FFF80780FE
:1039C0000807FC00007FC00003F80007C000780073
:1039D00007800807FFF807FFF8040008040008073D
:1039E000FFF807000803C00000E000003800001ED8
:1039F000000007000001C00400F007FFF804000009
:103A0000000000007F8001FFE003807006001804C2
:103A1000000804000806001803003001FFE0007FE2
:103A20008000000004000807FFF807FFF8040408FE
:103A3000040400040400040400040400060C000351
:103A4000F80001F000000000000000007F8001FF8E
:103A5000E00380700600880400880400C806003C6B
:103A600003003E01FFE6007F840000000400080719
:103A7000FFF807FFF8040808040800040C00040F0E
:103A800000040BC00610F003F03801E00800000845
:103A900000000001E0F803F03006301004180804BC
:103AA0001808040C08040C080206180207F0078125
:103AB000E000000001800006000004000004000097
:103AC00004000807FFF807FFF804000804000004DA
:103AD000000006000001800004000007FFE007FF6F
:103AE000F0040018000008000008000008000008AA
:103AF00000000804001007FFE004000004000006B6
:103B0000000007E00007FE00041FE00001F80000CD
:103B1000380001E0043E0007C00006000004000079
:103B200004000007E00007FFC0041FF80007C007FB
:103B3000F80007FF80043FF80007C004F800070002
:103B40000004000000000004000806001807C07808
:103B500005F1C8003E00001F800463E80780F806F6
:103B600000180400080000000400000600000780A0
:103B70000007E008047C08001FF80007F800180898
:103B800004E0080700000600000400000000000137
:103B900000080600380400F80403E8040F08047C59
:103BA0000805F00807C008070018040060000000BE
:103BB0000000000000000000000000000000003FC6
:103BC000FFFE200002200002200002200002200050
:103BD00002000000000000000000080000070000D4
:103BE00000C0000038000006000001C000003000E6
:103BF000000E000001000000000000000000200096
:103C0000022000022000022000022000023FFFFEEE
:103C100000000000000000000000000000000000A4
:103C2000000000000008000010000030000020002C
:103C3000003000001000000800000000000000003C
:103C4000000001000001000001000001000001006F
:103C5000000100000100000100000100000100005F
:103C60000100000100000000000000000020000032
:103C70002000001000001000000000000000000004
:103C800000000000000000000000000000F000192B
:103C9000F8001B1800220800260800240800241041
:103CA000003FF8001FF800000800001800000004A2
:103CB000000007FFF80FFFF00018180010080020A0
:103CC00008002008003018001FF0000FC00000009E
:103CD0000000000007C0001FF0001830002008009E
:103CE0002008002008003C08001C100000600000B4
:103CF000000000000000000007C0001FF00038189E
:103D000000200800200800200804101007FFF80F0A
:103D1000FFF000001000000000000000000000079D
:103D2000C0001FF0001230002218002208002208F4
:103D3000003208001E10000E2000000000000000ED
:103D4000200000200800200801FFF803FFF80620EB
:103D500008042008042008072000030000000000D9
:103D600000000000000E000E6E001FF30031B100D5
:103D700020B10020B1003191001F13002E1E002041
:103D80000E00300000000004000807FFF80FFFF8E5
:103D9000001008002000002000002008003FF8006C
:103DA0001FF80000080000000000000000000020D4
:103DB00008002008002008063FF8063FF800000829
:103DC00000000800000800000000000000000000E3
:103DD000000000000300000300200100200100207B
:103DE00003063FFE063FFC0000000000000000004C
:103DF00000000004000807FFF80FFFF8000188002A
:103E00000300002FC00038F8002038002008000010
:103E10000800000000000000000004000804000882
:103E200004000807FFF80FFFF80000080000080072
:103E30000008000000000000002008003FF8003FDC
:103E4000F8001008002000003FF8003FF8001008BC
:103E5000002000003FF8003FF800000800000000CC
:103E60002008003FF8003FF8001008001000002074
:103E700000002008003FF8001FF8000008000000C4
:103E80000000000007C0000FF000183000300800EC
:103E90002008002008003008001830000FF000074C
:103EA000C0000000000000002001003FFF003FFFB5
:103EB0000010110020090020080020080030380000
:103EC0001FF0000FC00000000000000007C0001F2E
:103ED000F000381800200800200800200900101108
:103EE000001FFF003FFF000001000000002008004D
:103EF0002008002008003FF8003FF80008080010E4
:103F00000800200800200000300000300000000001
:103F1000000000000000000C78001E1800330800AC
:103F200023080021080021880021980030F0003883
:103F300060000000000000002000002000002000C1
:103F400000FFF003FFF80020080020080020080010
:103F50000030000000000000000000002000003FD2
:103F6000F0007FF800001800000800000800201092
:103F7000003FF8007FF0000010000000000000008B
:103F80002000003000003C00003F800023F00000D3
:103F900078000070002380003C000030000020000A
:103FA000002000003C00003FE00023F80000E0009B
:103FB0002700003E00003FE00021F80001E0003E45
:103FC0000000200000000000200800200800383811
:103FD000003E680027800003C8002CF80038380035
:103FE0002018002008000000000000002000003021
:103FF00003003C01003F830023EC0000700023809D
:10400000003C000020000020000000000000000034
:1040100000000038080020380020F80023E8002FB6
:1040200088003E08003808002018000070000000DA
:104030000000000000000000000000000000000080
:1040400008000014001FF7FC3000062000020000EA
:104050000000000000000000000000000000000060
:10406000000000000000FFFFFF0000000000000053
:104070000000000000000000000000000000200020
:10408000023000061FF7FC001400000800000000CA
:104090000000000000000000000000000000001808
:1040A0000000600000400000400000200000100000
:1040B000000800000400000400000C0000100000D4
:1040C00000000000000000000000000000000000F0
:1040D00000000000000000000000000000000000E0
:1040E00000000000000000000000000000000000D0
:1040F00000000000000000000000000000000000C0
:1041000000000000000000000000000000000000AF
:10411000000000000000000000000000000000009F
:10412000000000000000000000000000000000008F
:10413000000000000000000000000000000000007F
:10414000000000000000000000000000000000006F
:10415000000000000000000000000000000000005F
:10416000000000000000000000000000000000004F
:10417000000000000000000000000000000000003F
:104180000000000000000080C0E070381818181807
:10419000181818181818181818181818181818189F
:1041A000181818181818181818181818181818188F
:1041B000181818181818181818181818181818187F
:1041C000181818181818181818181818181818186F
:1041D000181818181818181818181818181818185F
:1041E000181818181818181818181818181818184F
:1041F000181818181818181818181818181818183F
:10420000181818181818181818181818181818182E
:104210003870E0C0800000000000000000000000D6
:10422000000000000000000000000000000000008E
:1042300000000000C0E070381C0E07030100000001
:10424000000000000000000000000000000000006E
:10425000000000000000000000000000000000005E
:10426000000000000000000000000000000000004E
:10427000000000000000000000000000000000003E
:10428000000000000000000000000000000000002E
:10429000000000000000000000000000000000001E
:1042A000000000000000000000000000000000000E
:1042B00000000000000000000000000000000000FE
:1042C000000000000000000103070E1C3870E0C071
:1042D00000000000000000000000000000000000DE
:1042E0000000000000000000FFFF000000000000D0
:1042F00000000000000000000000000000000000BE
:1043000000000000000000000000000000000000AD
:104310000000000000000000F8F8F8F878787878DD
:1043200078787878787878787800000000E0F0F88D
:10433000F878787878787878787878F8F8F0E00015
:1043400000000078787878787878F8F8F8F8787855
:104350007878787878000000000000000000000005
:10436000000000000000000000000000000000004D
:10437000000000000000000000000000000000003D
:104380000000FFFF0000000000000000000000002F
:10439000000000000000000000000000FFFF00001F
:1043A000000000000000000000000000000000000D
:1043B00000000000000000000000000000000000FD
:1043C000000000000000000000000000FFFFFFFFF1
:1043D000F0F0F0F0F0F0F0F0F0F0F0F0000000009D
:1043E000003F7FFFFFE0E0E0E0E0E0E0E0E0E0E36E
:1043F000E3C3830000000000000000000000FFFF96
:10440000FFFF0000000000000000000000000000AE
:10441000000000000000000000000000000000009C
:10442000000000000000000000000000000000008C
:10443000000000000000FFFF00000000000000007E
:10444000000000000000000000000000000000006C
:10445000FFFF00000000000000000000000000005E
:10446000000000000000000000000000000000004C
:10447000000000000000000000000000000000003C
:10448000FFFFFFFFC0C0C0C0C0C0C0C0C0C0C0C030
:10449000C000000000F8F8F8F8C0C0C0C0C0C0C03C
:1044A000C0C0C0FFFFFFFF000000000000000000D0
:1044B0000000FFFFFFFF0000000000000000000000
:1044C00000000000000000000000000000000000EC
:1044D00000000000000000000000000000000000DC
:1044E00000000000000000000000FFFF00000000CE
:1044F00000000000000000000000000000000000BC
:1045000000000000FFFF00000000000000000000AD
:10451000000000000000000000000000000000009B
:10452000000000000000000000000000000000008B
:104530000000000003030303030303030303030357
:10454000030303030300000000000103030303034C
:10455000030303030303030303010000000000003F
:10456000000000000000030303030000000000003F
:10457000000000000000000000000000000000003B
:10458000000000000000000000000000000000002B
:104590000000000000000000000000000000FFFF1D
:1045A000000000000000000000000000000000000B
:1045B0000000000000000000FFFF060606060606D9
:1045C000060606060606060606060606060606068B
:1045D000060606060606060606060606060606067B
:1045E000060606060606060606060606060606066B
:1045F000060606060606060606060606060606065B
:10460000060606060606060606060606060606064A
:10461000060606060606060606060606060606063A
:10462000060606060606060606060606060606062A
:10463000060606060606060606060606060606061A
:10464000060606060606060606060606060606060A
:104650000606FFFF00000000000000000000000050
:10466000000000000000000000000000FFFF00004C
:10467000000000000000000000000000000000003A
:10468000000000000000000000000000000000002A
:10469000000000000000000000000000000000001A
:1046A000000000000000000000000000000000000A
:1046B00000000000000000000000000000000000FA
:1046C00000000000000000000000000000000000EA
:1046D00000000000000000000000000000000000DA
:1046E00000000000000000000000000000000000CA
:1046F00000000000000000000000000000000000BA
:10470000000000000000FFFF0000000000000000AB
:104710000000000000000000000000000000000099
:10472000FFFF00000000000000000000000000008B
:104730000000000000000000000000000000000079
:10474000000000000000000000000404E404040471
:10475000FC8484848484000008088868988E88F823
:104760008888888808000004F4545454FC54545435
:1047700054F40400404C74C446744400FC4444C2E5
:1047800042400000000000000000000000000000A7
:104790000000000000000000000000000000000019
:1047A0000000000000000000000000000000000009
:1047B00000000000000000000000FFFF00000000FB
:1047C00000000000000000000000000000000000E9
:1047D00000000000FFFF00000000000000000000DB
:1047E00000000000000000000000000000000000C9
:1047F0000000000000000000000000000000202079
:104800003F2020203F2020202020000006037F2082
:104810002020203F2020202000000040672A321264
:104820002F222222226760000139253F011D2938ED
:104830000F00003F0000000000000000000000002A
:104840000000000000000000000000000000000068
:104850000000000000000000000000000000000058
:104860000000000000000000000000000000FFFF4A
:104870000000000000000000000000000000000038
:1048800000000000000000001F7FE0C0800000006A
:104890000000000000000000000000000000000018
:1048A0000000000000000000000000000000000008
:1048B00000000000000000000000000000000000F8
:1048C00000000000000000000000000000000000E8
:1048D00000000000000000000000000000000000D8
:1048E00000000000000000000000000000000000C8
:1048F00000000000000000000000000000000000B8
:1049000000000000000000000000000000000000A7
:104910000000000000000000000000000000008017
:10492000C0E07F3F00000000000000000000000029
:104930000000000000000000000000000000000176
:1049400003070E1C3870E0C08080808080808080EB
:1049500080808080808080808080808080000000D7
:1049600000000000000000000000000000000080C7
:104970008080808080808080808080808080808037
:104980008080808080808080808080808080808027
:104990008080808080808080808080808080808017
:1049A0008080808080808080808080808080808007
:1049B00080808080808080808080808080808080F7
:1049C000808080808080808080808080C0E070389F
:1049D0001C0E0703010000000000000000000000A2
:1049E00000000000000000000000000000000000C7
:1049F00000000000000000000000000101010101B2
:104A00000101010101010101010101010101010196
:104A1000070E181818181818181818181818181831
:104A200018180E0701010101010101010101010135
:104A30000101010101010101010101010101010166
:104A40000101010101010101010101010101010156
:104A50000101010101010101010101010101010146
:104A60000101010101010101010101010101010136
:104A70000101010101010101010101010101010126
:104A80000100000000000000000000000000000025
:104A90000000000000000000000000000000000016
:104AA0000000000000000000000000000000000006
:104AB00000000000000000000000000000000000F6
:104AC00000000000000000000000000000000000E6
:105000000000000000000000000000000080808020
:105010000000000000000000000000000000000090
:105020000000000000000000000000000000000080
:105030000000000000000000000000000000000070
:105040000000000000000000000000000000000060
:105050000000000000000000000000000000000050
:105060000000000000000000000000000000000040
:105070000000000000000000000000000000000030
:1050800000E0F8E000000000000000000000000068
:105090000000000000000000000000000000000010
:1050A000000000E0F8E00000000000000000000048
:1050B00000008080800000000000000000000E1F43
:1050C0003F3F3F1F0F0C00000000000000000000E9
:1050D00000000000000000000000000000000000D0
:1050E00000000000000000000000000000000000C0
:1050F00000000000000000000000000000000000B0
:105100000000000000000000000000FFFFFF0000A2
:105110000F0F0F0F0E1E3CFCF8F0C0000000FFFF49
:10512000FF00000F0F0F0F0F9EFEFCF000000000AD
:105130000000000000FFFFFF000000007070700022
:105140000000000000707070000000008080C0C08F
:10515000C0C0C0C0000000FFFFFF0000000080C012
:10516000C0C0000E1F3F3F3F1F0F0C00000000009B
:1051700000000000001C7CFEFFFFFFFEF8E0800046
:10518000000000000000000000000000000000001F
:10519000000000000000000000000000000000000F
:1051A00000000000000000000000000000000000FF
:1051B000000000000000000000000000000000FFF0
:1051C000FFFF0000000000000080C0F0FF7F1F0014
:1051D0000000FFFFFF00003E7EFEFECE8F070701AE
:1051E000000000000000000000FFFFFF000000FEC4
:1051F000FEFEC080000080C0FEFEFE000000CECF9C
:10520000CF87030101010101000000FFFFFF000043
:10521000FEFFCF03010000000000187CFCFEFFFF32
:10522000FCF8E080000000000000000003CFFFFF5A
:10523000FFFFFFFF70000000000000000000000002
:10524000000000000000000000000000000000005E
:10525000000000000000000000000000000000004E
:10526000000000000000000000000000000000003E
:105270000000000F0F0F00000F0F0F0F07070303B1
:105280000100000000003FFF3F0000000000030796
:105290000F0F0E080000000E0E0E0000000F0F0F83
:1052A00000000000010307070000070703010000DA
:1052B0000000010307070F0E0E0E0E0E0000000F78
:1052C0000F0F00000103070F0E0C08000000000084
:1052D00001070F1F3F7FFFFFFEFEFCFCFCFCF8E018
:1052E000830F1F7F3F1F0F0300000000000000001E
:1052F00000000000000000000000000000000000AE
:10530000000000000000000000000000000000009D
:10531000000000000000000000000000000000008D
:10532000000000000000000000000000000000007D
:10533000000000000000000000000000000000006D
:10534000000000000000000000000000000000005D
:10535000000000000000000000000000000000004D
:10536000000000000000000000000000000000003D
:10537000000000000000000000000000000000002D
:105380000000000000000000000000000101010119
:105390000101010101000000000000000000000008
:1053A00000000000000000000000000000000000FD
:1053B00000000000000000000000000000000000ED
:1053C00000000000000000000000000000000000DD
:1053D00000000000000000000000000000000000CD
:105A2000000000000000000000000000000000E096
:105A3000E0E0E0E0E0E0E0E0E0E0E0E0E0E0E0E066
:105A4000E0E0E0E0E0E0E0E0E0E0E0E0E0E0E0E056
:105A5000E0E0E00000000000E0E0E0E0E0E0E0E0A6
:105A6000E0E0E0E0E0E0E0E0E0E0E0E0E0E0E0E036
:105A7000E0E0E0E0E0E0E0E0E0E0E0E0E0E0E0E026
:105A8000E0E0E0E0E0E0E0E0E0E0E0602000008076
:105A9000C0E0F0E0C08000002060E0E0E0E0E0E096
:105AA000E0E0E0E0E0000000000000000000000096
:105AB00000000000000000000000000000000000E6
:105AC00000000000000000000000000000000000D6
:105AD00000000000000000000000000000000000C6
:105AE000000000F3F3F3F3F3F3F3F3F3F3F3F3F35F
:105AF000F3F3F3F3F3F3F3F3F3F3F3F3F3F3F3F376
:105B0000F3F3F3F3F3F3F30000000000FFFFFFFFF4
:105B1000FFF3F3F3F3F3F3F3F3F3F3F3F3F3F3F349
:105B2000F3F3F3F3F3F3F3F3F3F3F3F3F3F3F3F345
:105B30000303030303030303030303030303030335
:105B400002000000E1C387C3E10000000203030379
:105B5000030303030303030303000000000000002A
:105B60000000000000000000000000000000000035
:105B70000000000000000000000000000000000025
:105B80000000000000000000000000000000000015
:105B900000000000000000FFFFFFFFFFF9F9F9F926
:105BA000F9F9F9F9F9F9F9F9F9F9F9F9F9F9F9F965
:105BB000F9F9F9F9F9F9F9F9F9F9F9F8F8F8F8F85A
:105BC000F9F9F9F9F9F9F9F9F9F9F9F9F9F9F9F945
:105BD000F9F9F9F9F9F9F9F9F9F9F9F9F9F9F9FF2F
:105BE000FFFFFFFF000000000000000000000000B9
:105BF0000000000000000000FFFFFFFFFF000000AA
:105C00000000000000000000000000000000000094
:105C10000000000000000000000000000000000084
:105C20000000000000000000000000000000000074
:105C30000000000000000000000000000000000064
:105C400000000000000000000000008080808080D4
:105C50008080808080808080808080808080808044
:105C60008080808080808080808080808080808034
:105C70008080808080808080808080808080808024
:105C80008080808080808080808080808080808014
:105C90008080808080808080808080808080808004
:105CA00080808080808080808080808081818181F0
:105CB00081808080808080808080808080808080E3
:105CC0008000000000000000000000000000000054
:105CD00000000000000000000000000000000000C4
:105CE00000000000000000000000000000000000B4
:105CF00000000000000000000000000000000001A3
:105D00000101010101010101010101010101010183
:105D10000101010101010101010101010101010173
:105D20000101010101010101010101010101010163
:105D30000101010101010101010101010101010153
:105D40000101010101010101010101010101010143
:105D50000101010101010101010101010101010133
:105D60000101010101010101010101010101010123
:105D7000010101010100000000000000000000001E
:105D80000000000000000000000000000000000013
:105D90000000000000000000000000000000000003
:105DA00000000000000000000000000000000000F3
:105DB00000000098242424C80004FF04040000C448
:105DC000242424F80000FC0804040004FF04040058
:105DD000000004FD000000FC040404F80038444402
:105DE00044FC000000800000000000800000000073
:105DF00000000000000000000000000000000000A3
:105E00000000000000000000000000000000000092
:105E10000000000000000000000000000000000082
:105E20000000000000000000000000000000000072
:105E30000000000000000000000000000000000062
:105E40000000000000000000000000000000000052
:105E50000000000000000000000000000000000042
:105E6000000000000000000001010100000000012E
:105E7000010000000101010100000100000000001C
:105E8000000101000000010101000001000000010B
:105E900000010202020100000001000000000001F8
:105EA00000000000000000000000000000000000F2
:105EB00000000000000000000000000000000000E2
:105EC00000000000000000000000000000000000D2
:105ED00000000000000000000000000000000000C2
:10628000A06200080000002058000000D81D00088F
:10629000F862000858000020601F0000E81D000898
:1062A0000000024000000000001402400004024010
:1062B00000140240000802400000000000A000009E
:1062C00000000000000000000000000001020304C4
:1062D0000102030406070809000000000000000096
:1062E000FFFFFFFF000000000000000000000808A2
:0862F00000C0000800000000DE
:04000005080001AD41
:00000001FF
