:020000040800F2
:10C0000040D40120B5C10008E5280108F1FE000870
:10C01000FB1D0108F3DC000861E1010800000000DD
:10C02000000000000000000000000000895401082A
:10C0300071EC000800000000994B0108E16B010859
:10C04000CFC10008CFC10008CFC10008CFC1000890
:10C05000CFC10008CFC10008CFC10008CFC1000880
:10C06000CFC10008CFC10008CFC10008CFC1000870
:10C07000CFC10008CFC10008CFC10008CFC1000860
:10C08000CFC10008CFC10008CFC10008CFC1000850
:10C09000CFC10008CFC10008CFC10008ADF2000831
:10C0A000CFC10008CFC10008CFC10008CFC1000830
:10C0B0002D6D0108CFC10008CFC10008CFC1000815
:10C0C000CFC10008CFC10008CFC10008CFC1000810
:10C0D000CFC1000889860108FD8601087187010823
:10C0E00065F20008CFC10008F92A0108CFC1000895
:10C0F000CFC10008CFC10008CFC10008CFC10008E0
:10C10000CFC10008CFC10008CFC10008CFC10008CF
:10C110003D730108CFC10008CFC10008CFC100089E
:10C12000CFC10008CFC10008CFC10008CFC10008AF
:10C13000CFC10008CFC10008CFC10008CFC100089F
:10C14000CFC10008CFC10008CFC10008ED2A010807
:10C15000CFC10008CFC10008CFC10008098801087D
:10C16000CFC10008CFC10008CFC10008CFC100086F
:10C17000CFC100085D2B0108CFC10008CFC1000866
:10C18000CFC10008CFC10008DFF80CD000F010FECE
:10C1900000480047A14D020840D4012040BA704732
:10C1A000C0BA704730BF72B6704762B6704780F34E
:10C1B000088870470648804706480047FEE7FEE7C4
:10C1C000FEE7FEE7FEE7FEE7FEE7FEE7FEE7FEE747
:10C1D000816C010889C1000840EA01039B0703D074
:10C1E00009E008C9121F08C0042AFAD203E011F8B6
:10C1F000013B00F8013B521EF9D27047D2B201E078
:10C2000000F8012B491EFBD270470022F6E710B55B
:10C2100013460A4604461946FFF7F0FF204610BDB4
:10C22000421C10F8011B0029FBD1801A70470346FD
:10C2300011F8012B00F8012B002AF9D1184670479C
:10C240000FB400B58DB010A909900B9000914FF07C
:10C25000FF300A9000200C90054806900548079092
:10C260006A4609A80F9900F095FB0DB05DF814FB24
:10C27000B1C90008CFC900082DE9FF4F087881B087
:10C280009946FF2805D0491C2D2804D000240023FE
:10C2900008E000230BE00124F9E703EB830300EB44
:10C2A0004303491C0878FF28F7D104B15B42002002
:10C2B0000090147801462D2C01D02B2C04D1521C57
:10C2C0002D2C12D00024009400251678FF2E0ED0BD
:10C2D0000A24A0FB04C801FB0481002700FB07110E
:10C2E000521C16EB0C006941EFE70124EBE799447F
:10C2F00050EA01020ED00024AA4D2646DFF8A8829B
:10C3000000F002FD82468B46B9F1000009DAC9F15E
:10C3100000071BE001980021C0E9001105B0BDE84D
:10C32000F08F074612E0F80707D022462B4630462A
:10C33000414600F0E4F90646884622462B46104660
:10C34000194600F0DCF904460D467F10002FEAD1B3
:10C35000B9F1000F324643465046594602DA00F022
:10C36000F9FB01E000F0CBF9009A0AB181F000413D
:10C37000019AC2E90001D1E72DE9FF4F1F468DB0B8
:10C38000D7E901464FF0FF382E2045464FF000090F
:10C390000B90B9696D1C0E988847396A82468847A8
:10C3A0000028F6D1BAF1FF3F0AD024F4D064002E61
:10C3B00011DDBAF12B0F08D0BAF12D0F0BD102E02D
:10C3C000404611B0ABE744F48064B9696D1C0E9827
:10C3D00088478246761E6946600501D52D2000E01B
:10C3E0002B208DF8000001F1010B0DF1200809E070
:10C3F000B9696D1C0E98884782460F9844F4007402
:10C40000761E0560002E02DDBAF1300FF0D00B99D8
:10C410008A453ED144F0800406E00F99681CA9F1DA
:10C42000010944F400740860B9696D1C761E0E9809
:10C43000884782463028F0D02BE00B998A4505D1F9
:10C44000200603D444F08004761E18E0504614F011
:10C45000C5FC08B30DF11301761E44F400748B453E
:10C4600008D2AAF130000BF8010B200607D5A9F17C
:10C47000010003E0200602D409F101008146A00575
:10C4800002D50F99681C0860B9696D1C0E98884721
:10C490008246002ED1DC53E0002E51DDBAF1650F4B
:10C4A00002D0BAF1450F4BD1A00549D5B9696D1C31
:10C4B00024F44074761E0E9888478246002E0CDDC8
:10C4C0002B2804D0BAF12D0F07D144F48074B96938
:10C4D0006D1C0E9888478246761EE00501D52D21F9
:10C4E00000E02B2108F8011BCDF82C8021E00DF194
:10C4F0002901761E44F4007488450CD2AAF130005C
:10C5000010F0FF0088F8000002D10B99884509D986
:10C5100008F1010806E0E00501D5244801E042F2F7
:10C520000F708146B9696D1C0E98884782460F9836
:10C530000560002E04DD504614F050FC0028D6D1D2
:10C54000F9690E988847FF208BF8000088F80000F2
:10C550000020069007904B466A4608A906A8FFF7F8
:10C560008BFEA00502D46FF001002AE714F0240F1F
:10C570000AD0E00714D1DDE906123868031D3B60DC
:10C580000068C0E900120BE0DDE9060100F068F97F
:10C590000146E00704D13868021D3A600068016076
:10C5A00028460EE7000024400000F03FF1D8FFFFCE
:10C5B0002DE9FE4F804681EA0300C00F0C46009033
:10C5C00021F0004123F00045B8EB0200A94105D25B
:10C5D0004046214690461C460B46024623F000404A
:10C5E000104347D0270DC7F30A00C3F30A51029046
:10C5F000401A019040286BDAC3F3130040F4801B0B
:10C600000098924620B10023D2EB030A63EB0B0B98
:10C6100001985946C0F14002504600F084F90646A0
:10C620000D4650465946019A00F09CF910EB08005F
:10C630006141002487EA115284EAE7731A4340D02B
:10C64000009A62B3019A012A4FEA075215DC001BD7
:10C6500061EB02014FF0004202EA0752CDE90042CD
:10C66000001C41F5801132462B4600F025FA03B03C
:10C67000BDE8F08F40462146F9E7001B61EB02015F
:10C68000001C41F5801300185B412018A2F500172B
:10C6900047EB030140EAD570B6196D4111E06D0812
:10C6A0004FEA360645EAC0754FEA0752001B61EBB8
:10C6B0000201001C41F5801149084FEA30000019C1
:10C6C000514132462B4603B0BDE8F04F00F0E5B9CA
:10C6D0000098012240000023D0EB020263EBE073DC
:10C6E000009821464FEAE074B8EB000061EB0401CA
:10C6F000E9E783F000435BE781F0004158E72DE96B
:10C70000FE4F81EA030404F0004421F0004100944C
:10C710004FF0000B23F0004350EA01045ED052EAD0
:10C7200003045BD0C3F30A54C1F30A552C44A4F2AA
:10C73000F3340194A0FB0254C1F3130141F48011BE
:10C74000C3F3130343F4801301FB024400FB034EC5
:10C75000840A970A44EA815447EA8357A4FB07688E
:10C7600002958D0A05FB07854FEA932C04FB0C54B8
:10C770002705029D4FEA065847EA1637B5EB08052C
:10C780006EEB070C870E920E47EA811742EA83127E
:10C79000A7FB0201B6EB0B0164EB00042B0D43EA8F
:10C7A0000C335E1844EB1C50DA465146E7FB02019D
:10C7B000C5F313044FEA0B3343EA14534FEA043230
:10C7C000019C43EA0603A4F10C040294009CCDE909
:10C7D00000B400F071F903B0BDE8F08F002001460D
:10C7E000F9E70EB540F2334102910021CDE9001185
:10C7F0000A460B4600F060F903B000BD70B5C1F306
:10C800000A5201F000450024C1F3130140F2FF3346
:10C8100041F480119A4201DA002070BD40F23343A6
:10C820009A42A2F2334203DC524200F08BF800E05D
:10C8300090402C43F1D0404270BD00F0004230F0F7
:10C8400000400AD0C10D01F56071C0F3160042EA44
:10C850000151C2084007114370470020014670474C
:10C8600001F0004330B421F0004150EA010206D04B
:10C870000A0DA2F56072C1F31301002A02DC30BC7C
:10C8800000207047440F44EAC104C100E01830BCE6
:10C8900000EBC25000F0ACB830B50B4601460020AA
:10C8A0002022012409E021FA02F59D4205D303FA72
:10C8B00002F5491B04FA02F52844151EA2F10102F3
:10C8C000F1DC30BD2DE9F05F0546002092469B4625
:10C8D00088460646814640241BE028464146474696
:10C8E000224600F02FF853465A46C01A914110D301
:10C8F00011461846224600F016F82D1A67EB01087B
:10C900004F4622460120002100F00DF817EB0009E8
:10C910004E41201EA4F10104DFDC484631462A4680
:10C920004346BDE8F09F202A04DB203A00FA02F1DA
:10C93000002070479140C2F1200320FA03F319430D
:10C9400090407047202A04DB203A21FA02F00021AF
:10C95000704721FA02F3D040C2F12002914008430F
:10C9600019467047202A06DBCB17203A41FA02F01D
:10C9700043EAE07306E041FA02F3D040C2F120023C
:10C9800091400843194670470268114413780160CA
:10C9900018467047D1600449516104491162002171
:10C9A0001161114600F01CBA89C90008D5CD0008F4
:10C9B000426842B1016811F8013B23B1521EC0E93F
:10C9C0000012184670470121C160881E70474268F6
:10C9D0005AB1C368016843B983688B4205D0491EC8
:10C9E000521CC0E90012002070474FF0FF30704722
:10C9F0000029A8BF7047401C490008BF20F0010073
:10CA0000704710B4B0FA80FC00FA0CF050EA010450
:10CA100004BF10BC704749B1CCF1200421FA04F4E2
:10CA200011FA0CF118BF012121430843A3EB0C01BB
:10CA3000CB1D4FEA00614FEA102042BF002010BC1E
:10CA4000704700EBC35010440029A4BF10BC7047CE
:10CA5000401C490008BF20F0010010BC704710B511
:10CA600041000CD0C0F3C751962908DC7E2909DCAF
:10CA700006DB410204D000F0004040F07E5010BDC3
:10CA8000002010BDC1F19604C4F1200100FA01F1AB
:10CA9000E040FFF7ADFFA04010BD10B5141E73F1CC
:10CAA000000408DA401C41F1000192185B411A436E
:10CAB00001D120F0010010BD2DE9F04D92469B46BA
:10CAC00011B1B1FA81F202E0B0FA80F22032904660
:10CAD000FFF729FF04460F4640EA0A0041EA0B012E
:10CAE00053465A46084313D0114653EA010019D061
:10CAF000C8F140025046FFF725FF05460E46504656
:10CB000059464246FFF70FFF084305D0012004E0D5
:10CB100020463946BDE8F08D0020054346EAE07620
:10CB20002C4337430A986305E40AA0EB080000226F
:10CB3000FD0A44EA47540A3002D500200146E9E7DD
:10CB4000010510196941DDE9084500196941BDE891
:10CB5000F04DA2E72DE9F04D81EA030404F0004B0B
:10CB600021F0004514464FF0000A23F0004150EA3E
:10CB7000050220D054EA01021DD0C5F30A5702462F
:10CB8000C5F31303C1F31300C1F30A5640F4801533
:10CB900043F48013A7EB0608101BD64608F2FD38B5
:10CBA00073EB050002D308F1010801E092185B4124
:10CBB000B8F1000F03DA00200146BDE8F08D002037
:10CBC0004FF48011064684460EE0171B73EB0507F1
:10CBD00005D3121B63EB050306434CEA010C49081D
:10CBE0004FEA300092185B4150EA0107EDD152EA5A
:10CBF000030012D082EA040083EA0501084305D04D
:10CC0000101BAB4106D20122002306E000224FF0A8
:10CC1000004302E06FF0010253101AEB06004CEBE8
:10CC2000085110EB0A0041EB0B01BDE8F04DFFF796
:10CC300034BF70B521F0004303430CD0C1F30A5553
:10CC40000024D5EB040564EB0403D617AD1AB341F9
:10CC500002DB0020014670BD201841EB025170BD7F
:10CC60002DE9FE4FC3F30A5701F000450024C1F33C
:10CC70000A56C3F31303C1F3130143F4801312EBF9
:10CC8000020AA64641F48011009543EB030CA7F17C
:10CC9000010B16E0B0EB0A0061EB0C01071E71F10D
:10CCA000000707DA4FF00008D0EB080085F00045D8
:10CCB00068EB0101171A73EB0107EBD3761E00181E
:10CCC00049415E45F6DA50EA010209D0CDE900E5B6
:10CCD000002213460296FFF7EFFE03B0BDE8F08F87
:10CCE00020460099F9E70EB5C10F80EAE0700844CC
:10CCF000CA07002140F233438DE80E000A460B4676
:10CD0000FFF7DAFE03B000BD0EB540F233420292E7
:10CD10000022CDE900221346FFF7CEFE03B000BD8E
:10CD2000C1F30A52C1F3130140F2FF3341F4801101
:10CD30009A4202DA00200146704740F233439A4299
:10CD4000A2F2334202DC5242FFF7FCBDFFF7EBBD1B
:10CD500030B5041E71F1000404DB4FF00044404282
:10CD600064EB0101141E73F1000405DB1C464FF057
:10CD70000043524263EB04038B4208BF824230BD42
:10CD800030B5041E71F1000404DB4FF00044404252
:10CD900064EB0101141E73F1000405DB1C464FF027
:10CDA0000043524263EB0403994208BF904230BDF6
:10CDB000064C074D06E0E06840F0010394E80700E8
:10CDC00098471034AC42F6D3FFF7E2F9B0070608F3
:10CDD000D0070608C0B24FF4F05100F0E9B90000E6
:10CDE0002DE9F34F8BB04FF0000801F10C000C4619
:10CDF0004FF0010B46460DF1080A019062690121CE
:10CE00000198904705002DD0252D2CD0216A884708
:10CE1000C0B16269012101989047216A88470028C2
:10CE2000F7D1411E62690198904700E0761CA16924
:10CE30000B988847216A88470028F7D1E1690B9849
:10CE40008847DBE7A1690B9888470746A84201D1CC
:10CE5000761CD3E7E1690B9888477F1C02D1B8F1B3
:10CE6000000F6FD046E1002762693D4639460198C0
:10CE700090472A2804D16269012101989047012531
:10CE8000DFF884926269012101989047A0F1300196
:10CE90000A290AD24F45E5DC07EB870100EB410781
:10CEA000303FDFD445F01005ECE7E90601D46FF020
:10CEB00000476C280AD04C2814D0682815D06A285E
:10CEC0000DD074281CD07A281AD01DE06269012187
:10CED000019890476C2802D045F0040514E045F015
:10CEE00002050DE045F020050AE062690121019884
:10CEF0009047682802D045F0080505E045F4006534
:10CF00006269012101989047C4E9015765283DD025
:10CF100019DC58287AD00CDC452837D004DC2528C9
:10CF200026D0412831D131E046282FD047282CD1B6
:10CF30002CE05B2877D0612828D063287CD0642837
:10CF400023D15AE0D0E06F2848D008DC66281DD0F5
:10CF500067281BD0692821D06E2816D127E07028B9
:10CF600045D0732868D0752847D078280DD14DE07A
:10CF7000A1690B988847054625283FF469AFE16908
:10CF80000B9888476D1C3FF46AAFB3E023466A46AE
:10CF90006FF001000B99FFF7EFF99EE045F04000BC
:10CFA0006060A80723464FF0000236D43EE0E80751
:10CFB0007FF447AF2068011D21600068290501D575
:10CFC00006701BE7290701D5068017E7A90703D5D7
:10CFD000F117C0E9006111E706600FE745F0400076
:10CFE0006060A80723464FF0080216D41EE040F602
:10CFF0000E0125EA0100606016E045F04000606027
:10D00000A80723464FF00A0207D40FE045F040007E
:10D010006060A80708D5234610226FF001000B9925
:10D02000AFF3008059E007E0234610226FF00100C3
:10D030000B99AFF3008050E04FF000094F464B468C
:10D04000632802D05B2806D040E0E80601D4012026
:10D05000A06001273AE062690121019890475E28AB
:10D0600005D14FF00109626949460198904721694D
:10D0700039B900210A46534643F82120491C0829A2
:10D08000FADBB0B3216969B9C11700EBD162531162
:10D090000AEB830122F01F02821A01200B689040E4
:10D0A00003430B6062690121019890475D28E8D134
:10D0B000B9F1000F09D00020514651F82020D24389
:10D0C00041F82020401C0828F7DB02AB22460097DD
:10D0D0006FF001000B99AFF3008000280CDA401CC0
:10D0E00008D1BBF1000F05D04FF0FF300DB0BDE807
:10D0F000F08FFFE74046F9E7E90701D108F10108A1
:10D1000006444FF0000B79E6CCCCCC0C2DE9F04D69
:10D1100000231A461B1A8A4103DB00200146BDE8A2
:10D12000F08DC1F30A52C1F3130141F480154FF0A1
:10D13000000BD10702D100186D41521E0027044692
:10D1400040F2FF11384601EB620A3E468046024635
:10D1500000204FF48011FFF7F5FBC2197141BB1895
:10D1600046EB0100B4EB030C75EB000C04D3E41A9E
:10D1700065EB000517460E46241908F101006D41C4
:10D1800080463428E3DDF91946EB0600091BA84167
:10D1900003D24FF0FF32134601E0002213461BEB8F
:10D1A000070046EB0A51BDE8F04DFFF776BC0000E2
:10D1B0007F2801D9002208E0064A02EB5002C0078E
:10D1C000127800D1120902F00F02012090400840AD
:10D1D000704700007007060870B58C1810F8015BE6
:10D1E00015F0070301D110F8013B2A1106D110F800
:10D1F000012B03E010F8016B01F8016B5B1EF9D104
:10D200002B0705D40023521E0DD401F8013BFAE789
:10D2100010F8013BCB1A921C03E013F8015B01F8F4
:10D22000015B521EF9D5A142D8D3002070BD002960
:10D23000816802D041F0010101E021F0010181602B
:10D2400070470000084B10B5D3F8042307490A4083
:10D25000D0E900142143D0E90240044321431143A3
:10D26000C3F8041310BD000000200140E030FCFFB3
:10D270000029816802D041F4807101E021F48071BD
:10D28000816070470029816802D041F4007101E09B
:10D2900021F400718160704730B542680F4B0C7902
:10D2A0001A400B6842EA04221343436082680C4B25
:10D2B0004D791A40D1E9034323438C6844EA45047D
:10D2C000234313438360C26A097D22F47002491E1E
:10D2D000C9B242EA0151C16230BD0000FFFEFFFC4D
:10D2E000FDF7FFC070B5072409290AD9C568A1F167
:10D2F0000A0606EB4606B440A543B3401D43C5608D
:10D3000007E0056901EB4106B440A543B3401D4366
:10D3100005611F23072A09D2446B521E02EB8202C9
:10D3200093409C4391400C43446370BD0D2A09D245
:10D33000046BD21F02EB820293409C4391400C434A
:10D34000046370BDC46A0D3A02EB820293409C43B1
:10D3500091400C43C46270BD816841F0804181609E
:10D36000704700001CB51449144B002009686A4638
:10D370000C181C44A4781454401CC0B20828F7D3DD
:10D380009DF807309DF806209DF805109DF80400D3
:10D3900002F072FB02F05AFBB0EEC00A9DF80330B7
:10D3A0009DF802209DF801109DF8000002F064FB3A
:10D3B00008F0E4FD1CBD0000200500209193012031
:10D3C0001CB51649164B002009686A460C181C4407
:10D3D000A4781454401CC0B20828F7D39DF8073035
:10D3E0009DF806209DF805109DF8040002F044FB0E
:10D3F00002F02CFB11F092F8DFED0A0A9DF80330E1
:10D400009DF8022020EE200A9DF801109DF80000F2
:10D4100002F032FB08F0B2FD1CBD00002005002028
:10D4200091930120E12E654270B59CB001215648D0
:10D4300007F01EFD01210D02284607F049FD534863
:10D440000024CDE900405248CDE902046420CDE932
:10D450000404A8000690400007908000CDE908056C
:10D460000AA90001012681E851004A4D0D94694640
:10D4700028460E9401F0D2FB0121284601F018FB4A
:10D48000E02003250F908DF840508DF843400FA900
:10D49000414802F068FA8DF840500F958DF84340EE
:10D4A0000FA93E4802F05FFA3B200F908DF84050E4
:10D4B0008DF843400FA93A4802F055FA1794189492
:10D4C000199417A81A94FFF7BDFE1194139414949D
:10D4D00015942E4C0A208DF848608DF858004C3C6D
:10D4E0008DF8496011A92046FFF7D6FE00230122DE
:10D4F0000B212046FFF7F6FE002302220A212046D8
:10D50000FFF7F0FE0023032205212046FFF7EAFE85
:10D51000002304220D212046FFF7E4FE002305220C
:10D5200007212046FFF7DEFE062200231146204693
:10D53000FFF7D8FE002307220E212046FFF7D2FE78
:10D54000002308220F212046FFF7CCFE00230922EA
:10D5500008212046FFF7C6FE00230A2209212046A3
:10D56000FFF7C0FE01212046FFF78CFE0121204677
:10D57000FFF77EFE01212046FFF759FE2046FFF708
:10D58000EBFE1CB070BD0000070040004C200140C5
:10D59000921C00201064024000000240000402407F
:10D5A0000008024070B59CB00121384807F060FCCB
:10D5B00001218D02284607F08BFC28040090344896
:10D5C000019034480024CDE9020404A91E2081E81A
:10D5D00031006800079080000890401109900AA966
:10D5E0004002012581E831002B4E0D9469463046FA
:10D5F0000E9401F013FB0121304601F059FA382056
:10D60000032619908DF868608DF86B4019A923489E
:10D6100002F0A9F92804CDE91540179415A818942B
:10D62000FFF710FE0F94119412941394184C8DF878
:10D6300040504C3C8DF841508DF850600FA9204669
:10D64000FFF72AFE0023012209212046FFF74AFEA8
:10D65000002302220E212046FFF744FE002303226E
:10D660000F212046FFF73EFE01212046FFF70AFE6C
:10D6700001212046FFF7FCFD01212046FFF7D7FDE1
:10D680002046FFF769FE1CB070BD0000200040007E
:10D690004C2201405A1D0020286402400014024020
:10D6A0001CB51449144B002009686A460C181C4428
:10D6B000A4781454401CC0B20828F7D39DF8073052
:10D6C0009DF806209DF805109DF8040002F0D4F99D
:10D6D00002F0BCF912F01EFF9DF803309DF8022005
:10D6E0009DF801109DF8000002F0C6F908F046FC14
:10D6F0001CBD000020050020919301201CB5164997
:10D70000164B002009686A460C181C44A47814546F
:10D71000401CC0B20828F7D39DF807309DF80620BA
:10D720009DF805109DF8040002F0A6F902F08EF9AC
:10D7300010F080FFDFED0A0A9DF803309DF802200B
:10D7400020EE200A9DF801109DF8000002F094F9E7
:10D7500008F014FC1CBD000020050020919301205E
:10D76000E12E65421CB51649164B002009686A4631
:10D770000C181C44A4781454401CC0B20828F7D3D9
:10D780009DF807309DF806209DF805109DF80400CF
:10D7900002F072F902F05AF910F0E2FFDFED0A0A26
:10D7A0009DF803309DF8022020EE200A9DF801101C
:10D7B0009DF8000002F060F908F0E0FB1CBD0000DD
:10D7C0002005002091930120E12E654210B5074C01
:10D7D0002060084600F00CF820680028FCD1BDE865
:10D7E000104000214FF0804009F051BBEC010020B7
:10D7F0003EB504464FF080450021284609F047FB1E
:10D8000000220121284609F058FB022C02D0012CED
:10D8100002D004E00B2001E042F6DF600190052019
:10D82000ADF800000020ADF80800ADF80200694630
:10D83000284609F051FC0121284609F025FB012169
:10D84000284609F017FB01221146284609F035FB4E
:10D850000121284609F01BFB3EBD704710B50C4660
:10D8600000281AD10D480078062816D2DFE800F00B
:10D8700015030507090B102106E0202104E0022111
:10D8800002E0082100E00421204608F071FB00219D
:10D89000601CBDE8104008F06BBB10BD890700207C
:10D8A0002DE9F74FDFF880B290468CB00BEB0804FF
:10D8B0000A2908D0062922D0072938D0042940D0C7
:10D8C000082945D055E0E378A27861781BF8080074
:10D8D00002F0D2F8089094F804A06079A779E6796C
:10D8E00094F80890657A25B1012D04D0022D04D05A
:10D8F0003FE00C253DE010253BE0182539E00C9970
:10D90000032902D0042909D033E01BF80800E1788C
:10D91000029194F8048094F8059061E01BF80800E7
:10D920006778A67894F8038094F8059065E01BF872
:10D9300008006778A678E178099121790691A179A4
:10D9400004E01BF808006778A678E178894610E0C3
:10D95000E378A27861781BF8080002F08DF808904F
:10D9600094F804A06079A779E679217A0991617A1F
:10D9700006910C990A2930D2DFE801F0050A1C3221
:10D980003F4C5B6776A10FB0BDE8F04F03F028BFB6
:10D99000012801D103F024FF6449089AC6F18000F0
:10D9A000114483B28DE82202C7F1B40082B231463D
:10D9B000384610E0012801D103F012FF5B49089AB4
:10D9C000C6F18000114483B28DE82202C7F1B40091
:10D9D00082B2F100F80008F0CEFB0FB0BDE8F08F86
:10D9E000012801D103F0FCFE4346CDF800903146FA
:10D9F0003846029A03F0BCFCEFE7012801D103F09E
:10DA0000EFFE0FB04B46424631463846BDE8F04F78
:10DA100003F04CBC012801D103F0E2FE0698CDF8DA
:10DA200000903318099831463A18384603F0EEFC56
:10DA3000D3E7012801D103F0D3FE0FB04A463146A7
:10DA40003846BDE8F04F03F019BC012801D103F0BE
:10DA5000C7FE36480899069B084400903146384670
:10DA6000099A03F0C1FBB8E7BAF1010F05D0BAF18A
:10DA7000040FB2D1012813D014E0012801D103F022
:10DA8000AFFEE378A27861781BF8080001F0F4FF9C
:10DA900001F0D6FF024653463146384600952BE04A
:10DAA00003F09EFEE378A27861781BF8080001F08D
:10DAB000E3FF01F0CBFF2A46314638462FE0BAF1AA
:10DAC000010F05D0BAF1040F87D1012817D018E053
:10DAD000012801D103F084FEE378A27861781BF875
:10DAE000080001F0C9FF01F0ABFF0246F006010E8D
:10DAF000F806000E5346009503F0C8FD6DE703F0ED
:10DB00006FFEE378A27861781BF8080001F0B4FF9B
:10DB100001F09CFFF006010EF806000E2A460FB039
:10DB2000BDE8F04F03F024BD9197012091930120AF
:10DB30007047000010B540B101280ED0022824D152
:10DB4000BDE81040032007F03FBC022007F024FC92
:10DB5000BDE81040032007F01FBC1148425C084498
:10DB60001049407852EA000309D052B1012A0DD081
:10DB7000022A0AD188B1012807D1062004E0012039
:10DB800002E0012801D10220087010BD18B101285F
:10DB9000FBD10420F8E70320F6E70520F4E70000B6
:10DBA00091970120280700207047000070B50D46AE
:10DBB00000286ED13748415D481E032869D801EB23
:10DBC000810000EBC1023448141814F80C0C012831
:10DBD0000ED002280CD003280AD008280ED007281F
:10DBE00014D00A2823D006282BD009283BD046E0A1
:10DBF000A4F10D00002100F07DF83DE0A4F10D003E
:10DC0000002100F077F8F2EE040A33E0012902D097
:10DC10006FF002000FE0022007F052FA41F2883163
:10DC20004843000B00EE100AB8EE400A24E0012938
:10DC300005D06FF0030000EB410080B2ECE701205B
:10DC4000EAE7A4F10D00002100F054F8F3EE000A19
:10DC50004FF6FF7120EE200ABCEEC00A10EE100A4B
:10DC600001EA0010DEE7A4F10D00002100F042F807
:10DC7000DFED0A0A20EE200A681C08F07FF9A4F103
:10DC80000D00002100F036F8681CBDE8704008F077
:10DC900075B970BD91970120DA8D012000007A449A
:10DCA00070470000030010480AD0012B07D1511E15
:10DCB000072904D800EB4200002120F8021C70471D
:10DCC0000A4A525C531E072BF9D800EB42004FF46E
:10DCD0007A7230F8020CB0FBF2F000EE100A481C29
:10DCE000B8EE400A08F04AB9149D0120919701202E
:10DCF0007047FEE718B56B4600228C180444E478A0
:10DD00009C54521CD2B2042AF7D39DED000A18BDD0
:10DD1000401EC2B2C2EB021000EB4003114810B526
:10DD200000EB8300037F8B421BD001770123C37478
:10DD30000D488069104400F5204090F8701621F0DD
:10DD4000080180F8701602EB820101EBC201074A5C
:10DD50000020044611440C54401CC0B20D28FAD3D4
:10DD60008B7010BDB0C6002054030020DA8D012056
:10DD700001291BD0022919D0032917D0082915D051
:10DD8000062918D0092916D000EB800303EBC00048
:10DD9000521C0C4BD2B218440A2905D0072903D0D3
:10DDA000042901D0052900D182707047401CC0B2FF
:10DDB0001146FFF7ADBF044900EB400001EB4010F6
:10DDC000C2727047DA8D0120A0D0002070B50546E0
:10DDD0000024A01D07F05EF940F6C4114843000B73
:10DDE000A0F22D11632903D3A0F68D21C72909D2F2
:10DDF00004EB8401601D01EBC4014E1906F8340FD9
:10DE0000072010E0A0F291118B2903D3A0F2097032
:10DE1000C7280CD204EB840101EBC4014E19601D2C
:10DE200006F8340F082003F07CFD707010E004EB5E
:10DE30008401002001EBC401024629440B18401C58
:10DE4000C0B283F834200D28F8D3012081F83600C1
:10DE500004EB840000EBC400421992F83500D8B1FD
:10DE600092F83600012804D0022807D003280AD0EF
:10DE700012E0601DC0B204F059F808E0601DC0B2A5
:10DE800004F0D2FA03E0601DC0B204F045F802F1DC
:10DE90003400002101F040FD641CE4B2042C98D34E
:10DEA00070BD00002DE9F04FF94D00268BB0E869F8
:10DEB000002802DD401EE86100E0AE7128780028ED
:10DEC0007DD1296900297AD0EE71F24C8A1E04E0D6
:10DED000235CEF79401C3B44EB719042F8D360180F
:10DEE000EA7910F8020C904201D0022023E0E94FB9
:10DEF000A378DFF8A493F8783A79DFF8A0A3DFF8E5
:10DF0000A0B37F794FF001080C2B72D2DFE803F049
:10DF1000710616212AFDFCFBFA71F9F8002869D177
:10DF2000002AFCD10729FAD185F806809620E861FD
:10DF300007F026FE92E107F0B1FD8FE10028EED157
:10DF4000002AECD10729EAD10121D64807F02AFF9F
:10DF500084E10028E3D1002AE1D10729DFD107F0CD
:10DF600071FF7BE1032007F017FA022007F020FA87
:10DF700089F800606079012802D0022876D06DE12E
:10DF80000AA9C9A017F0A4F8E279A179C2EB02228C
:10DF90001144814268D8227A0021C448521D01E010
:10DFA0004654491C8A42FBDC4FF0310A80F800A03D
:10DFB0004FF03A0980F80190002780460AE04EE1D0
:10DFC000E019B91C427A08EB07008270B8A010F083
:10DFD00041FA7F1C207A401EB842F1DCB34901A807
:10DFE00014F07DFF38B1B14814F06BFB0746B5A0C3
:10DFF00006E0F9E1DBE001A814F0FAFA0746B9A05F
:10E0000010F028FA0FB1022125E020790021C0EBA1
:10E010000020E278401C0244404601E04654491C7E
:10E020008A42FBDC80F800A080F80190002709E01C
:10E03000E019B91C427A08EB070082709CA010F02E
:10E0400009FA7F1C2079E178C0EB0020001F08440A
:10E05000B842EDDC0121012007F0F8FD022007F0B5
:10E060009BF9FBE002E0FFE70321F4E7A44B8C4AB5
:10E070008848296906F068FE8AF800000028F0D078
:10E080000A228A499F4814F089FE9F4C207048B1AB
:10E090009EA010F0DFF9A4A1AAA010F0DBF90024E3
:10E0A000974F21E0A8A010F0D5F9B14B4FF4806252
:10E0B0007B49944815F045F9207038B10146ADA070
:10E0C00010F0C8F98F4814F085FAE4E7A848016811
:10E0D000AEA010F0BFF97249B5A0F1E71BF804102B
:10E0E000BBA010F0B7F9641C38688442F6D394A042
:10E0F00010F0B0F9022007F04FF90121022005E0ED
:10E1000099E055E03AE02BE011E002E007F09EFDD7
:10E11000A4E05F4A5F48183206F046FE002805D0AA
:10E12000012007F0FFFCA86915F0D2FE96E009284F
:10E130003DD1E2BB10293AD1A748002180F80080E8
:10E14000621843185279491C5A700929F8DB417A40
:10E150000091037AC2798179524807F0AFFE7DE0E1
:10E1600005286CD11ABB0C2969D1607A0090237AFA
:10E17000E279A179384601F087FC6FE005285ED18D
:10E18000AAB90C295BD194490A31002081F800809A
:10E1900022180B185279401C5A700628F8DB4A796D
:10E1A0008878642103F06EFB07F026FD56E046E018
:10E1B000012F05D0022F24D0032F28D0002023E0E8
:10E1C00034490022394F0979C1EB01210B1D034469
:10E1D00001E0BE54521C9342FBDC31223A703A22D9
:10E1E0007A700022491E084404E0A118BB188979FE
:10E1F0009970521C9042F8DC2C4801F0A3F90120E0
:10E2000002E001F039F9022007F09EFD26E089F8CE
:10E2100000600021052003F093FE0021062003F09A
:10E220008FFE0021072003F08BFE0021082003F061
:10E2300087FE0320E8E710B90AB9072901D00520B5
:10E2400079E69AF80000012803D199F80000012826
:10E250001CD000221146104607F02AFD2E61687876
:10E2600018B1032007F01AFC6E70E87820B1022183
:10E27000084607F0EBFCEE706879002803D0022016
:10E2800007F050FC6E710BB0BDE8F08FA6E0000007
:10E29000E80400207A8F0120140500201C050020CE
:10E2A00091930120DA8D0120313A00000CAB01205E
:10E2B0006D7966696C656E616D655B25785DA3BA85
:10E2C00025780A00A1B7B4F2BFAAC4BFC2BCCAA7CE
:10E2D000B0DCA3ACBECDB4B4BDA8C4BFC2BCA3BAAD
:10E2E0000A000000A1B7C4BFC2BCD2D1B4E6D4DAE0
:10E2F000A3ACB9D8B1D5C4BFC2BCA3BA0A00000050
:10E300001805002080A801203C070020A3A1A3A19C
:10E31000B4F2BFAA2FB4B4BDA8CEC4BCFECAA7B085
:10E32000DCA1A30D0A000000666C61736820646FB5
:10E33000776E6C6F616420636F6D706C657465647B
:10E340000A0D000025730000A1B7B4F2BFAA2FB4D4
:10E35000B4BDA8CEC4BCFEB3C9B9A6A3ACCFF2CE9F
:10E36000C4BCFED0B4C8EBCAFDBEDDA1A30D0A003B
:10E3700040070020A3A1A3A1CEC4BCFED0B4C8EB2B
:10E38000CAA7B0DCA3BA282564290A00A1B7CEC465
:10E39000BCFED0B4C8EBB3C9B9A6A3ACD0B4C8EB2B
:10E3A000D7D6BDDACAFDBEDDA3BA25640A000000D7
:10E3B000A1B7CFF2CEC4BCFED0B4C8EBB5C4CAFD81
:10E3C000BEDDCEAAA3BA0D0A25730D0A0000000017
:10E3D00025327820000000007A93012003490120B3
:10E3E00009681BF8012037E70420A4E52005002078
:10E3F00070B51546421E032A49D800EB8002244B13
:10E4000002EBC002D418012910D000EB800202EB0D
:10E41000C002D4180D3C02292BD003292BD004298B
:10E4200035D1BDE870401121FFF772BC0221FFF722
:10E430006FFC14F80A0C08280BD2DFE800F00A047D
:10E44000061012141618022100E00421284607F0D5
:10E450008FFD0021681CBDE8704007F089BD0821D0
:10E46000F4E71021F2E72021F0E74021EEE78021D8
:10E47000ECE7002100E00121FFF74AFC20460021E3
:10E48000FFF738FC2846BDE8704007F077BD70BD47
:10E49000DA8D01201CB51649164B002009686A4622
:10E4A0000C181C44A4781454401CC0B20828F7D39C
:10E4B0009DF807309DF806209DF805109DF8040092
:10E4C00001F0DAFA01F0C2FADFED0B0A20EE200AC1
:10E4D00010F02CFA9DF803309DF802209DF80110F1
:10E4E0009DF8000001F0C8FA07F048FD1CBD0000CF
:10E4F000200500209193012035FA8E3C10B50A4684
:10E500000C0601F07F0303EB830100EBC10102D590
:10E5100001F58E7101E001F55D71D2090B704A7051
:10E520000CF0F8FE002010BD0A4610B5090602F0F6
:10E530007F0306D503EB830100EBC10101F58E716A
:10E5400005E002EB820100EBC10101F55D710024E1
:10E550008C700B70D2094A700CF0C3FE002010BD05
:10E5600010B50A0604D501F07F010DF001F801E0B5
:10E570000CF0E2FF002010BD70B50C460E0601F055
:10E580007F0505EB850100EBC10102D501F58E7118
:10E5900001E001F55D71E4090D704C708A60CB708B
:10E5A00000D0CD80022B01D100220A710CF070FE48
:10E5B000002070BD10B501F07F0404EB840100EB76
:10E5C000C101C1F88833C1F880230023C1F88C331E
:10E5D00081F8753381F87443C37801F55D71012BBF
:10E5E00000D10A6114F0FF0F03D00CF0C5FE00202B
:10E5F00010BD0CF0DFFDFAE70069002261F30A129A
:10E6000001681143016070470A4610B5090602F01F
:10E610007F0306D503EB830100EBC10101F58E7189
:10E6200005E002EB820100EBC10101F55D710124FF
:10E630008C700B70D2094A700CF086FE002010BD61
:10E6400070B511F07F0404EB840100EBC1014FF0C1
:10E65000010581F81D5181F81C41C1F82821C1F83C
:10E660002C2101F58E714FF00002C1E9053203D073
:10E670000CF082FE002070BD0CF09CFDFAE700005B
:10E680002DE9F041064600250DF0F6F8074655E065
:10E69000F80751D03069EAB20369416BD14006EB0B
:10E6A000820201F00101926943EAC11194680C40B1
:10E6B000E1071AD00124426B04FA05F18A43426350
:10E6C00006EB8500806984601F48E9B200684268F3
:10E6D00030469047F078012807D135B996F81101F6
:10E6E000042802D130460CF0C1FD200704D506EB0A
:10E6F0008500082480698460E00604D506EB850067
:10E70000102480698460600604D506EB85004024EF
:10E7100080698460A00704D506EB85000224806927
:10E720008460200608D52946304600F06BF906EBD8
:10E7300085018020896988607F086D1C002FA7D122
:10E740000120BDE8F0810000400100202DE9F041EA
:10E75000064600240DF096F80746DFF8988043E05F
:10E76000F8073FD0E1B230460DF092F80546C007F9
:10E7700025D006EB84000125416D8D60F1780129DB
:10E780000CD1406D016904EB840006EBC000C1F3BD
:10E790001201D0F87C23511AC0F88C13D8F800006D
:10E7A000E1B2026830469047F078012807D134B9C9
:10E7B00096F81101052802D130460CF057FDA80744
:10E7C00004D506EB84000225406D8560280709D535
:10E7D000D8F8000081683046884706EB840108209D
:10E7E000496D88607F08641C002FB9D10120BDE805
:10E7F000F08100004001002070B50646C0688169C4
:10E8000021F010018161F068056A05F00F0000EB4E
:10E81000800006EBC004C5F3434004F55D7407288F
:10E8200021D2DFE800F0202004202020150047F648
:10E83000F070054217D0C5F30A152A463046E16844
:10E840000DF037F8E0682844E060A069284409E04A
:10E85000082206F2CC5130460DF02BF8A069C5F322
:10E860000A110844A061F068816941F010018161DA
:10E87000012070BD38B5044600208DF8000094F8E2
:10E8800012018DF80000154800684169204688474C
:10E8900020698068E2684FF400615161A17AD1B1CA
:10E8A000C00718D094F81501012814D19DF8000074
:10E8B000032810D1D4F80C01016841F00101016076
:10E8C000D4F80C01016841F00301016004480168BB
:10E8D00041F006010160012038BD00004001002028
:10E8E00010ED00E070B5044600690025012641687E
:10E8F00021F001014160294620460CF039FE00203C
:10E90000FF2106E004EB800293699960526D9160EB
:10E91000401C62788242F5D821694FF0FF3088614F
:10E920002846216966F30F0066F31F40C86121691C
:10E9300045F00B004861216945F00B000861206932
:10E94000016821F4FE61016020460CF08FFCE16853
:10E950004FF48050486103480068016920468847A9
:10E96000012070BD4001002070B504460CF0C6FFC8
:10E970000120002384F8120184F81431194640253F
:10E9800011E000BF01EB810204EBC20282F81D011D
:10E9900082F81C11A2F8221182F81F31C2E94953F2
:10E9A000491CC2F8303162788A42EBD80021144AFF
:10E9B000082610E001EB810004EBC00080F87533FD
:10E9C00080F87413A0F87A1380F87733C0F888635E
:10E9D000C0E9DF52491C60788842EBD820460CF031
:10E9E000A7FB20460CF0F2F9002120460CF0E6FFD0
:10E9F00020460CF02DFA2046BDE870400CF077BDA3
:10EA0000120A00202DE9F0470D46064601EB85006D
:10EA100006EBC004D4E94C01421AD4F8240104F5F1
:10EA20008E74904200D20246D21C970806EB8509EC
:10EA300018E000BFA0EB0108A068404500D2804666
:10EA400008F1030087081FFA88F3EAB23046E1684C
:10EA50000DF0C1FEE16801EB0800E060A16901EB87
:10EA60000800A061D9F81800806980B2B84205D9C1
:10EA7000D4E90501814201D20028DBD10120BDE8A3
:10EA8000F0870000074A904201D2074801E005489C
:10EA90001038064A8B0001EA020101D5C1607047B7
:10EAA0008160704710640240006002407D0F7D0F5E
:10EAB0000029016802D041F0010101E021F00101CB
:10EAC000016070472DE9F043016821F00101016008
:10EAD0000021016041608160C160016121214161CB
:10EAE0003C493C4A3D251039904202D18D60BDE839
:10EAF000F083384A4FF474661832904201D18E6028
:10EB0000F5E7344A4FF474173032904201D18F60E8
:10EB1000EDE7304A4FF0746C4832904202D1C1F8B0
:10EB200008C0E4E72B4B2C4A6033984201D1CA60FD
:10EB3000DDE7284C294B7834A04201D1CB60D6E7E1
:10EB4000DFF89080264C08F19008404501D1CC6058
:10EB5000CDE7DFF880804FF03D5908F1A808404527
:10EB600002D1C1F80C90C2E71E49DFF8788008395D
:10EB7000404501D10D60BAE71A4D1835A84201D1C0
:10EB80000E60B4E7174D3035A84201D10F60AEE7F3
:10EB9000144D4835A84202D1C1F800C0A7E7114D75
:10EBA00010496035091FA84201D10A609FE70D4A4C
:10EBB0007832904201D10B6099E70A4A9032904234
:10EBC00001D10C6093E7074AA83290428FD1C1F877
:10EBD00000908CE7106002403D000020400F0020B4
:10EBE00000003D20106402400246094B00209A427A
:10EBF00001D2084A01E0064A103A8B0001D552685A
:10EC000000E01268044B1A400A4200D0012070470D
:10EC100010640240006002407D0F7D0F30B5036834
:10EC2000124ACC6813400A682243D1E905452C43B7
:10EC30002243CC6922430C6A22434C6A22438C6AE9
:10EC400022434C6B22438C6B22431A43026042697D
:10EC500022F00703D1E90B2422431A4342610A69D7
:10EC600042604A6882608968C16030BD3F801CF0A4
:10EC7000704700224FF4FA63002101E0491C89B279
:10EC80008142FBD3521C92B29A42F5D370470000E6
:10EC90002DE9F04FE74F4FF001092DED028B81B0C8
:10ECA0007878E0B100254FF0020B012821D04FF019
:10ECB000030A022821D000269FEDDF8ADFF87C833B
:10ECC00008EBC604207910287ED2DFE800F01F434D
:10ECD0004D7D7D89A142C2FCFAF9F8F742F63878F9
:10ECE000002801D187F8019001B0BDEC028BBDE88E
:10ECF000F08F7D8087F801B0F6E77888401C80B2FD
:10ED000078801428F0D387F801A0EDE778687E2199
:10ED1000304400F5805006EB860280F8041380F83A
:10ED20000813C748C84902EBC6028555C5481144B7
:10ED3000855500200D54401CC0B20D28FAD381F82F
:10ED400002903146C1A00FF085FBE571A57184F8F2
:10ED5000049068E1E079401CC0B2E0710228F8D369
:10ED6000E57184F804B05EE1002000900221304695
:10ED700005F04AFF08B9022000900121304605F055
:10ED80000DFFB0F5487F03D2009840F0400000909E
:10ED90000521304605F038FF18B9009840F004000E
:10EDA00000900621304605F0F9FEB0F5487F03D902
:10EDB000009840F008000090A1790098814201D0AD
:10EDC000A071E571A07900E02CE10028C1D0E079C4
:10EDD000401CC0B2E0712328BBD30520207122E182
:10EDE000A079810701D5062006E0410601D509205A
:10EDF00002E0000702D50C20207100E02571786840
:10EE000000EB460000F597500580058105820AE178
:10EE100084F80290E57108202071786877213044E9
:10EE200000F58050884C80F804A380F8081306EBA6
:10EE3000860101EBC601701C00916054032002F0B2
:10EE400070FD009921444870314688A00FF002FB04
:10EE5000E9E00121304605F0A1FE01460E20B1FB9C
:10EE6000F0F0C0F1640000EE100A06EB860000EB43
:10EE7000C6017548B8EEC00A08440021009000F0B1
:10EE80004BFD0221304605F0BFFE002865D0E07939
:10EE9000401CC0B2E0713228A1D30021B0EE480A74
:10EEA000009800F039FD65487F21243881831421C2
:10EEB000C1837649098D0184B3E0A5E09CE085E03B
:10EEC0004CE07BE0FFE70121304605F067FE40F2B1
:10EED000DC5188420BD978687F21304400F580509E
:10EEE00080F8041380F80813314669A031E001214D
:10EEF000304605F053FE642878684FF07D013044B9
:10EF000000F5805080F804130AD27A2180F80813A3
:10EF10000A2020714A48314600F8069063A018E0A4
:10EF2000792180F8081306EB8601474A01EBC601F8
:10EF3000701C00915054102002F0F3FC024642482D
:10EF4000009908443146427080F802900B202071ED
:10EF50005EA00FF07FFA84F802905AE00621304656
:10EF600005F01CFEB0F5FA6F08D306EB860101EB45
:10EF7000C6023549114481F8039006E006EB86008D
:10EF800000EBC60130480844C5700121304605F049
:10EF900005FEB0F5487F3CD9E079401CC0B2E07175
:10EFA0000A2840D306EB860000EBC6012648B0EEE7
:10EFB000480A0844002100F0AFFC32E0012130464D
:10EFC00005F0ECFDB0F5487F25D822E078687B217C
:10EFD000304400F5805080F80413782180F808133D
:10EFE000184942A001F8069031460FF033FA84F830
:10EFF0000290E5710D20F1E60621304605F0CEFDC8
:10F00000B0F5487F07D304E00521304605F0FCFD4C
:10F0100008B1E57107E0E079401CC0B2E0710A2850
:10F0200001D3A5702571761CF6B2042EFFF448AE0C
:10F030005AE60000E004002000000000A47A01204D
:10F0400074030020DC040020DA8D01205448495369
:10F0500020495320504F52542025643A205459508F
:10F06000455F4E4F4E4521210A0D0000544849533B
:10F0700020495320504F52542025643A204E585472
:10F080005F534F554E4421210A0D00008C5D02084C
:10F090005448495320495320504F52542025643A34
:10F0A000204552524F5221210A0D00005448495325
:10F0B00020495320504F52542025643A20494E5045
:10F0C00055545F5541525421210A0D00544849536B
:10F0D00020495320504F52542025643A20494E5025
:10F0E00055545F44554D4221210A0D00544849535F
:10F0F00020495320504F52542025643A204E5854F2
:10F100005F49494321210A0D000000002DE9FF411C
:10F110001D4E1E4C0546002347F68F686F46581D4E
:10F12000C0B200F035F847F8230056F8231039B183
:10F1300044F82300002045F8230046F823001CE093
:10F1400054F8231044F62062411A45F823109142E6
:10F1500006DD54F82320A8EB00011144494208E0E1
:10F1600044F62062D14206DA54F82320A8EB0201CB
:10F17000014445F8231044F823005B1CDBB2042B48
:10F18000CDD3BDE8FF810000C8020020F81D00209B
:10F19000024600200849052A07D0062A07D0072A78
:10F1A00007D0082A00D1C8687047086870474868C7
:10F1B0007047886870470000981D002000F0CEB8A6
:10F1C0002DE9F0478DB0DFF89480254D0E460746B7
:10F1D000002347F68F6A0DF11C096C46581DC0B21A
:10F1E000FFF7D6FF49F8230058F823203AB145F835
:10F1F0002300002044F8230048F8230025E055F8B8
:10F2000023C044F62062A0EB0C0144F82310914285
:10F2100004DDAAEB00016144494206E044F62062A5
:10F22000D14204DAAAEB0C01014444F8231045F85A
:10F23000230057F8231054F82300014447F8231003
:10F2400056F82310084446F823005B1CDBB2042B5D
:10F25000C4D300F0F3FC0DB0BDE8F087B802002085
:10F26000E81D002070B54FF40054204600F0BCF8B3
:10F27000002816D00B4E6100304600F0D5FB054645
:10F280002146304600F0D0FB074A8542506801D144
:10F29000401C00E0401E50602046BDE8704000F079
:10F2A0009DB870BD00100240981D00202DE9F0416E
:10F2B000202000F099F8264C98B1264E4021304687
:10F2C00000F0B2FB05462021304600F0ADFB854240
:10F2D000206801D1401C00E0401E2060202000F08A
:10F2E0007DF8802000F080F81B4E90B14021304620
:10F2F00000F09AFB05468021304600F095FB8542E0
:10F30000A06801D1401C00E0401EA060802000F0F9
:10F3100065F84FF40075284600F066F8002814D010
:10F320006910304600F080FB07462946304600F061
:10F330007BFB8742E06801D1401C00E0401EE0609A
:10F340002846BDE8F04100F049B8BDE8F081000072
:10F35000981D002000100240000802403EB507F052
:10F36000BDFC0121880305F0B3FD0521042006F052
:10F370008DF80D21042006F089F80721022006F0FF
:10F3800085F80921022006F081F842F2A02000252C
:10F3900001908DF8085010208DF8090001248DF897
:10F3A0000A4001A800F030F817208DF800008DF811
:10F3B000015002258DF802508DF80340684603F095
:10F3C00093FA28208DF800008DF801408DF8025046
:10F3D0008DF80340684603F087FA3EBD0149086096
:10F3E00070470000143C0140064A014600201268A4
:10F3F000044B0A4014331B680B4202D0002A00D091
:10F4000001207047003C014030B51A4983790268F9
:10F4100053B30B6893430B600A1D13680468A3433E
:10F42000136002790A441368046823431360114A85
:10F43000083213680468A3431360131D1C68056831
:10F44000AC431C604479102C05D021440A68006844
:10F4500002430A6030BD11680468214311601968D5
:10F4600000680143196030BD007908440168914388
:10F47000016030BD003C014070B5284800240126E1
:10F4800004702748214604602648047086700520D1
:10F4900002F056FD0021062002F052FD0021072057
:10F4A00002F04EFD0021082002F04AFD1E4D1F49CA
:10F4B0002C72287A0C54401CC0B228720428F8D34D
:10F4C0001B492C72287A41F82040401CC0B2287297
:10F4D0000428F7D34FF480611648FCF796FE1649CE
:10F4E0002C72287A00EB400301EB8302401C14715C
:10F4F00041F82340C0B2946028722028F1D30F480D
:10F500000E710F4904602C72287A21F81040401CBB
:10F51000C0B228720828F7D370BD0000140500207F
:10F520002005002067070020E8040020D802002002
:10F53000C81D002091970120949B0120A007002066
:10F54000149D01202DE9F041014601222F4813F0BE
:10F5500025FC2F4C0100207004D0BDE8F0412DA007
:10F560000EF078BF31A00EF075FF4FF48067344B7A
:10F570003A463449254813F0E6FC207001003CD09F
:10F5800031A000BF0EF066FF204813F023F8344886
:10F590000126032106703348334D00240170867024
:10F5A00032492C72287A41F82040401CC0B228729F
:10F5B0000428F7D339462E48FCF727FE2D492C7234
:10F5C000287A00EB400301EB8302401C147141F8E0
:10F5D0002340C0B2946028722028F1D326480E71CF
:10F5E000264904602C72287A21F81040401CC0B2D1
:10F5F00028720828F7D3BDE8F0811148016820A0DF
:10F600000EF028FF0F4927A0BCE7000080A80120CA
:10F610003C070020A3A1A3A1B4F2BFAACEC4BCFEA4
:10F62000CAA7B0DC3A2578A1A30D0A00A1B7B4F2AD
:10F63000BFAACEC4BCFEB3C9B9A6A1A30D0A0000DF
:10F640004007002091930120A3A1A3A1CEC4BCFE3A
:10F65000B6C1C8A1CAA7B0DCA3BA282564290A008C
:10F660001405002067070020E8040020C81D0020C2
:10F6700091970120949B0120A0070020149D012058
:10F68000A1B7CEC4BCFEB6C1C8A1B3C9B9A62CB639
:10F69000C1B5BDD7D6BDDACAFDBEDDA3BA25640D9E
:10F6A0000A000000A1B7B6C1C8A1B5C3B5C4CEC495
:10F6B000BCFECAFDBEDDCEAAA3BA0D0A2573200D7D
:10F6C0000A0000001EB51F491F4B002009686A464A
:10F6D0000C181C44A4781454401CC0B20C28F7D356
:10F6E0009DF807309DF806209DF805109DF8040050
:10F6F00000F0C2F900F0AAF9F0EE400A9DF80B30D4
:10F700009DF80A209DF809109DF8080000F0B4F952
:10F7100000F09CF9F4EE400A0C4CF1EE10FA9DF862
:10F7200003309DF802209DF801109DF8000003D1E0
:10F7300000F0A2F9012102E000F09EF9002121541D
:10F740001EBD00002005002091930120919701200B
:10F750001CB51449144B002009686A460C181C4457
:10F76000A4781454401CC0B20828F7D39DF8073081
:10F770009DF806209DF805109DF8040000F07CF926
:10F7800000F064F90FF07AF99DF803309DF802203B
:10F790009DF801109DF8000000F06EF906F0EEFBF8
:10F7A0001CBD0000200500209193012070B5064685
:10F7B000002529B1012927D0022928D04FF440750E
:10F7C00000F07CF808281ED1124C206820F440700C
:10F7D0002060206828432060206820F0F800206026
:10F7E000206846F0020108432060206840F4803021
:10F7F000206000F063F8216821F002012160216897
:10F8000021F0F801216070BD4FF48075D8E74FF406
:10F810000075D5E7103C02400B4908200A68D20366
:10F8200001D5012070470A68D20601D5052070472E
:10F830000A6812F0EF0F01D00620704709688907A7
:10F84000FBD50720704700000C3C024002480168CD
:10F8500041F0004101607047103C024070B50D4618
:10F86000064600F02BF8082813D10A4C206820F433
:10F8700040702060206840F480702060206840F074
:10F8800001002060358000F019F8216821F00101A5
:10F89000216070BD103C024005480068002805DA70
:10F8A000034804490C3801600349016070470000B7
:10F8B000103C024023016745AB89EFCD08B5082015
:10F8C0008DF80000FFF7A8FF8DF800009DF80000FC
:10F8D0000128F7D09DF8000008BD00000D48002366
:10F8E0000122418921B1491E0904090C418103D13A
:10F8F000817809B18370C270818921B1491E0904E0
:10F90000090C818104D10179002901D00371427170
:10F9100070470000E804002033B500222DED020BF3
:10F920006B468D189C5C0544521CD2B2EC70042AC4
:10F93000F7D33FBD0748416911B1491E416107D165
:10F940000178002904D0002101700161012141707A
:10F9500070470000E804002000B5FFF7EBFF5DF8FA
:10F9600004EBFFF7BBBFF0B50023012403270D68AC
:10F9700004FA03F21540954242D1D0F800C05E006F
:10F9800007FA06F52CEA050CC0F800C091F804C08F
:10F99000D0F800E00CFA06FC4CEA0E0CC0F800C0EF
:10F9A00091F804C0BCF1010F02D0BCF1020F1FD1CD
:10F9B000D0F808C02CEA050CC0F808C091F805C0C2
:10F9C000D0F808E00CFA06FC4CEA0E0CC0F808C0AF
:10F9D000D0F804C02CEA020CC0F804C0426891F8C8
:10F9E00006C00CFA03FC1FFA8CFC42EA0C024260CF
:10F9F000C268AA43C260CA79C568B2402A43C260DD
:10FA00005B1C102BB3D3F0BD4B07DB0E9A40C9082B
:10FA100010B500EB8100016A0F249C40A1430162F4
:10FA2000016A1143016210BD0246002012690A42B8
:10FA300000D0012070474183704701837047000068
:10FA40000149085C704700009197012018B5064BEA
:10FA50006A46002144181C5D5454491CC9B204294B
:10FA6000F8D39DED000A18BD919701200148406927
:10FA7000704700008C070020000600EB014000EBFF
:10FA800002201844704700002DE9FF4FD1B0924684
:10FA90008B4699464FF4A072284968465E9DFCF754
:10FAA0009BFB68228DF8002021228DF8012007227F
:10FAB000681D8DF802208DF80300000A8DF80400FF
:10FAC00051988DF80500002769468DF806B08DF82D
:10FAD00008900A248DF807A08DF809500026884662
:10FAE0000EE04B46524659465198FFF7C5FF304449
:10FAF00080B2FFF7A5FF761C08F80400B6B2641CBC
:10FB0000AE42EED30021404604E0425C491C3A4438
:10FB1000D7B289B2A142F8DB0755641C1621015502
:10FB2000E01704EB906020F03F00403081B268465F
:10FB300000F0BAF955B0BDE8F08F0000A0600208EF
:10FB40000021072812D00A2812D0062810D0042835
:10FB50000ED005280CD002280AD001280AD003288C
:10FB600008D0082806D0092806D006E0012104E0C4
:10FB7000022102E0032100E008210846704700004E
:10FB800038B503460C46500700D0012000EBD200E8
:10FB900010FB02F0C1B218785B78812809D3402BA2
:10FBA00007D3FF2B05D0FF2803D07F2B16D2403B75
:10FBB00015E00020024603E0401C04F8012BC0B20F
:10FBC0008842F9D3012000900C2316A23C210A2080
:10FBD00001F097FDBDE8384001F002BE413B81389D
:10FBE000C0B2C0EB4015DBB205EB801003EB400068
:10FBF0004843114B0C2A0DD0102A0ED0182A0FD1D1
:10FC0000D3F8192010440A4601462046BDE8384082
:10FC10000EF012BBD3F80920F4E7D3F81120F1E776
:10FC200038BD0000466F6E74206E6F20666F756E73
:10FC3000642E2E2E0000000076B8012006480168D0
:10FC4000491C01604168491C41608168491C816010
:10FC5000C168491CC1607047D81D002000210A22DC
:10FC600003E090FBF2F0491CC9B20028F9DC084619
:10FC70007047000600EB014000EB0220184470477B
:10FC80001EB52049204B002009686A460C181C4408
:10FC9000A4781454401CC0B20C28F7D39DF8073048
:10FCA0009DF806209DF805109DF80400FFF7E4FE7E
:10FCB000FFF7CCFEB0EE401A9DF80B309DF80A20FD
:10FCC0009DF809109DF80800FFF7D6FEFFF7BEFE6D
:10FCD000F0EE400A0D4CB4EEE01A9DF80330F1EE60
:10FCE00010FA9DF802209DF801109DF8000003DD38
:10FCF000FFF7C2FE012102E0FFF7BEFE0021215402
:10FD00001EBD000020050020919301209197012045
:10FD10001EB51F491F4B002009686A460C181C4479
:10FD2000A4781454401CC0B20C28F7D39DF80730B7
:10FD30009DF806209DF805109DF80400FFF79CFE35
:10FD4000FFF784FEF0EE400A9DF80B309DF80A2084
:10FD50009DF809109DF80800FFF78EFEFFF776FE6C
:10FD6000F4EEC00A0C4CF1EE10FA9DF803309DF849
:10FD700002209DF801109DF8000003DBFFF77CFED8
:10FD8000012102E0FFF778FE002121541EBD000092
:10FD900020050020919301209197012070B5154610
:10FDA000421E032A31D8194A00EB800303EBC0033B
:10FDB0009C180D3C01290AD002290AD0032911D030
:10FDC000042922D1BDE870401121FDF7A1BF002117
:10FDD00000E00121FDF79CFF20460021FDF78AFF8E
:10FDE00028460EE00321FDF793FF20460021FDF792
:10FDF00081FF284606F0C2F820460421FDF77AFF6D
:10FE0000281DBDE8704006F0B9B870BDDA8D01203C
:10FE10004069806880B27047D0F8CC000068C0F3B9
:10FE200041407047084490F87F08704710B5044679
:10FE300000221046C4F8F42704EB8203C3F8F80745
:10FE4000C3F83408A31883F87008521CD2B20F2AE2
:10FE5000F2D30820A4F8960820460BF04FFD204668
:10FE60000BF066F920460AF0B1FF012120460BF0A5
:10FE7000A5FD20460BF0C4F820460BF038FB00200F
:10FE800010BDD0F8F407704710B50BF022FD00202C
:10FE900010BD0022431883F87F2800EB4113C3F8FC
:10FEA000A4280BF041BC00000A460146014808F0B6
:10FEB000E3BF0000ACC3012030B50B4A91B012780B
:10FEC000002A0FD08DF8001000236A4603E0C45CBE
:10FED000D5185B1C6C708B42F9DB4A1C69460348E1
:10FEE00008F0CAFF11B030BD29070020ACC30120C3
:10FEF000FEE700002DE9F0414C4A044603781079F2
:10FF00004B4D062B09D2DFE803F008030A326A845E
:10FF100001287DD1A0789070D070BDE8F0810128D3
:10FF200079D1A078E37800EB0012424803EB031389
:10FF300000EBC2021A44217982F88A10A278E37891
:10FF400002EB021200EBC20203EB03131A446179C5
:10FF500082F88B10A278012102EB021200EBC200A2
:10FF6000E27802EB0212104480F88910D5E70128EC
:10FF700051D1A17830A00EF06DFA0020002100EBE5
:10FF8000800200BF01EB42032344DE78A37800EB3C
:10FF9000C30303EB830707EBC3032B440B44491C48
:10FFA000DE700A29EEDB401C0428E7DB002100207C
:10FFB00000EB8102224492F82B30A27801EBC202BE
:10FFC00002EB820606EBC2022A440244401C82F87D
:10FFD00037300428ECDB491C0429E8DB9DE70128C5
:10FFE00019D10020002100EB4002A678531800EB45
:10FFF000C60606EB8607234407EBC6062E44DB78CD
:020000040801F1
:100000007354491C0329F0DB401C0828EADB84E711
:1000100001E0012805D02046BDE8F041C9B2FFF754
:100020004BBFBDE8F041002000F05CB8290700207C
:10003000DA8D0120A79D01200909CAD5B5BD4C65FF
:1000400076656C3A25642020C9CFB4ABB5C4CAFD2F
:10005000BEDDA3BA0A0000002DE9F04387B00E46CA
:10006000DDE90E9407461D46904618216846FCF7C8
:10007000CCF802208DF8000010208DF801008DF8DA
:1000800004808DF802708DF8055007216A468DF8BE
:1000900003608DF80640002005E000BF19F800302D
:1000A0005354401C491CA042F8DB10460AF050FB98
:1000B00007B0BDE8F0831CB500240194009403242C
:1000C0008DF8004010248DF801408DF802008DF865
:1000D00003108DF804208DF80530062168460AF0DB
:1000E00037FB1CBD08B50021009101218DF80010DF
:1000F00010218DF801108DF80200032168460AF0E6
:1001000027FB08BD02460020938A128B43EA024374
:1001100023F07F42914300D101207047002981885C
:1001200002D041F4006101E021F400618180704758
:100130000029818802D041F4805101E021F48051EE
:10014000818070470029018802D041F4807101E06C
:1001500021F48071018070470029018802D041F4A8
:10016000007101E021F40071018070470CB5024676
:10017000002000920A0F21F07F41019202D0009AE4
:10018000143202E0009A090C1832009212680A42F6
:1001900000D001200CBD00007FB5044680880D46CC
:1001A00020F03F06684604F0ABFE27490298B0FBFA
:1001B000F1F189B20E43A680228822F0010222804A
:1001C000224B2A689A421BD85200B0FBF2F080B250
:1001D000042800D20420491C2184A083208840F0F8
:1001E0000100208021884FF6F5300140A8886A89F7
:1001F000104308432080A8892989084320817FBDB6
:10020000EB88A3F53F46FF3E0BD002EBC20303EBA6
:100210000212B0FBF2F080B240F48040020506D03A
:1002200007E002EB4202B0FBF2F080B2F6E740F0EA
:1002300001004FF4967251434FF47A72B1FBF2F120
:1002400040F40040C7E7000040420F00A0860100D4
:100250002DE9F84F8246002089460090694601202A
:1002600000F05CFA504D01212846FFF761FF0121A3
:100270002846FFF767FF4D4C4FF440564C4F266021
:1002800004E02068401E2060401C7CD0394628468F
:10029000FFF76CFF0028F4D000225146284600F0FA
:1002A0008FF8DFF81081266004E02068401E20608F
:1002B000401C77D041462846FFF724FF0028F4D0A1
:1002C0004946284600F084F8DFF8E480DFF8E09043
:1002D00008F17F0809F10309266004E02068401E48
:1002E0002060401C5ED041462846FFF73FFF28B9FA
:1002F00049462846FFF73AFF0028EFD0012128465B
:10030000FFF720FF266004E02068401E2060401CAC
:1003100048D039462846FFF729FF0028F4D00122AB
:100320005146284600F04CF82660234E04E0206831
:10033000401E2060401C35D031462846FFF7E2FEC3
:100340000028F4D001212846FFF7E8FE1B4E0121CA
:100350003046FEF7ADFB164F4FF4C0401F3720600C
:1003600004E02068401E2060401C1BD03946304607
:10037000FEF73AFC0028F4D001212846FFF7ECFEF6
:100380000021304600E00DE0FEF792FB00212846F8
:10039000FFF7C4FE39463046FEF774FB9DF80000B7
:1003A000BDE8F88F0220FBE7005400403C0000202D
:1003B00001000010820007000200030010600240EC
:1003C00012B141F0010101E001F0FE01018270472C
:1003D000018270472DE9F84F8A46814600278DF843
:1003E00000206946384600F099F9414D0121284620
:1003F000FFF7A8FE3F4C4FF44056DFF8FC80266024
:1004000004E02068401E2060401C6FD04146284612
:10041000FFF7ACFE0028F4D0002249462846FFF73B
:10042000CFFFDFF8D880266004E02068401E2060FF
:10043000401C5BD041462846FFF764FE0028F4D0FC
:1004400051462846FFF7C4FFDFF8AC80DFF8A890DC
:1004500008F17F0809F10309266004E02068401EC6
:100460002060401C42D041462846FFF77FFE28B955
:1004700049462846FFF77AFE0028EFD0012128469A
:10048000FFF74CFEDFF8788001214046FEF710FBB5
:1004900026604646DFF86C8004E02068401E20603D
:1004A000401C23D041463046FEF79EFB0028F4D086
:1004B0004FF4C04020604C4621462846FFF756FEC8
:1004C0000028F9D001212846FFF746FE00213046DA
:1004D000FEF7EEFA00212846FFF720FE414630469F
:1004E000FEF7D0FA3846BDE8F88FFFE70220FAE7BA
:1004F000005400403C000020010000108200070072
:10050000A0600240000020202DE9FC47012170205E
:1005100004F0AEFC01248DF8044000254FF4006087
:100520008DF806500326354F00908DF805608DF844
:10053000074069463846FFF716FA8DF804404FF435
:1005400008508DF80650DFF8B88000908DF80560EF
:100550008DF8074069464046FFF705FA8DF80440DC
:1005600002208DF80650DFF89C9000908DF8056011
:100570008DF8074069464846FFF7F5F98DF80440C5
:1005800020038DF8065000908DF805608DF8074027
:1005900069463846FFF7E7F98DF804404FF40860E4
:1005A0008DF8065000908DF805608DF8074069467B
:1005B0004046FFF7D8F98DF804408DF806508DF8C5
:1005C000056000948DF8074069464846FFF7CBF96F
:1005D0000D48C0F8A442C0F89C42C0F8B442C0F82C
:1005E000AC420A48C0F88442C0F880420848C0F8CB
:1005F000AC42C0F8B042BDE8FC87000000100240E9
:1006000000140240001802400080424200004342B1
:10061000000042421FB500F0CBF80020ADF8040006
:10062000ADF808004FF48060ADF80A000001ADF8A5
:100630000C004BF6FF713748ADF806100090694684
:100640003548FFF7A9FD822000F048F910B10420D9
:1006500004B010BD882000F041F908B10520F7E78B
:10066000822000F05CF9882000F059F9012207216E
:10067000822000F08BF801221146822000F01BF945
:1006800001221146822000F0DFF80021012000F055
:10069000D7F900220C21882000F00DF901220C214D
:1006A000882000F0D1F803220C21882000F0DEF829
:1006B00000F046F901220D21882000F067F80122A0
:1006C0000421882000F0F7F800220121882000F0A2
:1006D000F2F801220521882000F0B6F8002104205C
:1006E00000F0AEF90021012000F0AAF90022F82163
:1006F000882000F0E0F80122F821882000F0A4F81A
:100700000322F821882000F0B1F800F077F90020EA
:100710009EE70000A08601000054004030B50D4661
:10072000044601218FB0480504F0A2FB4FF0007091
:1007300000901448CDE9010500210015CDE9051010
:100740000420CDE90A100791089109910C910D91AF
:100750000E91012C0FD0002C0BD1402003900120D2
:10076000094C04902046FEF7ADF969462046FEF795
:1007700055FA0FB030BD0220034CCDE90310903C78
:10078000F0E7000010540040A060024070B50C4635
:10079000164605460421FFF75BFD0EB1A04300E0BD
:1007A0002043024604212846FFF714FE002070BDB6
:1007B0007CB501214C05204604F072FB01214FF469
:1007C000817004F055FB0121880304F081FB0121B5
:1007D000204604F071FB0021204604F06DFB184D0B
:1007E000042206212846FFF70FF904220921284692
:1007F000FFF70AF9022140208DF8041000908DF8CF
:10080000051001208DF8060000248DF80740694688
:100810002846FFF7A8F86815009069462846FFF7B4
:10082000A2F8042000908DF804408DF80740694636
:100830000448FFF798F80221082004F027FE7CBD49
:10084000000402400020024070B50C4616460546E2
:100850001721FFF7FDFC0EB1204300E0A043024644
:1008600017212846FFF7B6FD002070BD2DE9F041A5
:100870000D46164607461621FFF7EAFC04461521E9
:100880003846FFF7E5FC20EA050124EA05020C469C
:10089000F00700D02A43B00701D541EA050416212C
:1008A0003846FFF797FD224615213846FFF792FD9F
:1008B0000020BDE8F08170B50C46164605461321B0
:1008C000FFF7C6FC0EB1204300E0A043024613210F
:1008D0002846FFF77FFD002070BD000010B500F036
:1008E0000FF8A0F50061113906D00448006808B17E
:1008F000012010BD022010BD002010BD3C000020D2
:1009000070B505460021FFF7A3FC4FF6FF7101EA21
:10091000002401212846FFF79BFC204370BD10B541
:10092000044602220321FFF755FD022011F0D2FAFE
:10093000002203212046FFF74DFD002010BD0000DE
:1009400010B504218220FFF783FC20F0030204216C
:100950008220FFF73FFD0A218220FFF779FC40F05B
:1009600007020A218220FFF735FD4922202182203B
:10097000FFF730FD022011F0ADFA01222121822083
:10098000FFF728FD17218220FFF762FC20F01E02EE
:1009900017218220FFF71EFD9A2241218220FFF7B6
:1009A00019FD01224A218220FFF714FD01224B216B
:1009B0008220FFF70FFD00224B218220FFF70AFD66
:1009C000012256218220FFF705FD012258218220B5
:1009D000FFF700FD012240218220FFF7FBFCFF22F0
:1009E0000B218220FFF7F6FC03480021C1808180A3
:1009F00041800180084610BD4C00002008B5002051
:100A00008DF8000004218820FFF722FC8DF80000FB
:100A10009DF8000020F009008DF800009DF80020EE
:100A200004218820FFF7D6FC012260218820FFF7EF
:100A3000D1FC032260218820FFF7CCFC002008BDF8
:100A400010B5C20701D0822303E010F0050F08D0D3
:100A50008823024639B110211846FFF7BBFC00205D
:100A600010BD032010BD1121F6E7000070B50E4641
:100A7000054605EB450101EBC5021049012001EBDC
:100A8000820494F82710002917D120213046FBF763
:100A9000BCFB0B4A05EB4501002002EB411104E0D1
:100AA000221852783254401C40B2CA7E8242F7DC8F
:100AB00094F82900002800D0022070BDD0D2002078
:100AC000A0D00020F0B5174900EB400201EB421422
:100AD00000EB4002144B02EBC00594F83F1003F802
:100AE000251000260121627F08E0671803EB850CC2
:100AF00097F83F700CF80170491C49B28A42F4DC47
:100B000003EB8501521E81F82220E27E01F8212F9D
:100B1000002248720A7201228A708A7103490A54BB
:100B20003046F0BDA0D00020D0D20020D804002054
:100B300002000C494FF000000AD0012A0BD0022A13
:100B40000CD0032A03D10848D0F83002C0B2704755
:100B5000D1F81C02FAE7D1F82C02F7E70348D0F8E5
:100B60000002F3E70080424200004242000043429C
:100B70000A4A48B101280AD002280BD0032802D122
:100B80000748C0F8AC127047C2F8A4127047C2F808
:100B9000B41270470348C0F8841270470080424284
:100BA00000004242000043420A4A48B101280AD0EC
:100BB00002280BD0032802D10748C0F8B0127047B2
:100BC000C2F89C127047C2F8AC1270470348C0F8D4
:100BD00080127047008042420000424200004342BF
:100BE0000F4968B101280FD0022814D0032806D17C
:100BF0000C48016821F04071016001680160704794
:100C0000086820F4404002E0086820F440000860D2
:100C10000868086070470448016821F00301EBE7A9
:100C2000001402400010024000180240154978B13B
:100C3000012815D002281CD0032808D112480168C9
:100C400021F040710160016841F0807101607047DE
:100C5000086820F440400860086840F4804006E0DE
:100C6000086820F440000860086840F480000860CC
:100C700070470648016821F003010160016841F0F6
:100C80000101E3E700140240001002400018024096
:100C90002DE9F0410646401E1446032874D806EBA1
:100CA0008600434A00EBC60000EB0208A8F10D05E0
:100CB00001291FD0C6EB06103E4A00EB400002EBB4
:100CC0008007022920D003296FD12046FEF7B8FE05
:100CD00007F8040C02213046FDF71AF818F8090C41
:100CE0000C2862D2DFE800F06132343A3C3E4042E8
:100CF000444A515700213046FDF70AF828460021A2
:100D0000FCF7F8FF20461DE02046FEF799FE07F8A5
:100D1000040C01213046FCF7FBFF28460121FCF7BB
:100D2000E9FF10EE100A2449884203DDDFED230AB3
:100D300030EE600A601C05F021F928460521FCF719
:100D4000D9FF601DBDE8F04105F018B9022100E0AF
:100D50000421601C05F00CF9002121E00821F8E7CE
:100D60001021F6E72021F4E74021F2E78021F0E7A7
:100D70000021601C05F0FCF8012111E00021601C3D
:100D800005F0F6F802210BE00FE00021601C05F0F1
:100D9000EFF8042104E00021601C05F0E9F80821C7
:100DA000A01CBDE8F04105F0E3B8BDE8F08100000B
:100DB000DA8D0120B0C600200000344300007F43DC
:100DC0001CB51449144B002009686A460C181C44D1
:100DD000A4781454401CC0B20828F7D39DF80730FB
:100DE0009DF806209DF805109DF80400FEF744FECE
:100DF000FEF72CFE0DF064FD9DF803309DF80220F7
:100E00009DF801109DF80000FEF736FE05F0B6F8DB
:100E10001CBD000020050020919301202DE9FC4716
:100E20000121702004F024F801258DF804500024DD
:100E30008DF806400327DFF87C904FF400468DF8CC
:100E4000057000968DF8075069464846FEF78BFD01
:100E50008DF804508DF806408DF805708DF8075018
:100E6000154D49F24008CDF8008069462846FEF746
:100E70007AFD31464846FEF7DEFD41462846FEF73C
:100E8000DAFD4FF4906000908DF804408DF8074033
:100E900069464846FEF767FD4FF4824000908DF8A2
:100EA00004408DF8074069462846FEF75CFDBDE822
:100EB000FC87000000100240001402401FB53249B8
:100EC000324B002009686A460C181C44A47814545C
:100ED000401CC0B21028F7D39DF80B309DF80A20B3
:100EE0009DF809109DF80800FEF7C6FDFEF7AEFD5F
:100EF000F0EE400A9DF807309DF806209DF8051099
:100F00009DF80400FEF7B8FDFEF7A0FDF4EEC00A60
:100F10001F4CF1EE10FA2AD89DF807309DF80620F4
:100F20009DF805109DF80400FEF7A6FDFEF78EFD66
:100F3000F0EE400A9DF80F309DF80E209DF80D1040
:100F40009DF80C00FEF798FDFEF780FDF4EEC00A58
:100F5000F1EE10FA0BD89DF803309DF802209DF8B1
:100F600001109DF80000FEF787FD01210AE09DF8C1
:100F700003309DF802209DF801109DF80000FEF757
:100F80007BFD002121541FBD2005002091930120ED
:100F9000919701202DE9F047374C00221346A270AB
:100FA000E27022716270017802290CD020290AD0E7
:100FB000227000250221465C012E07D0022E05D0AA
:100FC000032E03D003E001212170F2E70125491C23
:100FD000C9B20829EFD3012D3DD0DFF89C90A27053
:100FE00009F10B09A9F10606E270022106F10C05D0
:100FF00010F801C0BCF1000F1CD0A77806F807C09C
:101000007F1CA770002707E010F801C015F80780C3
:10101000C44503D07F1CFFB29F42F5D39F4209D144
:1010200094F8038010F801C009F808C008F101081D
:1010300084F80380491CC9B20829D9D3E078012873
:101040000BD06270A07820710020315C2954401CC4
:10105000C0B20628F9D3BDE8F08799F80000074927
:1010600060702278085C012A04D0E831085C0BF03B
:10107000DDFBE7E70249F9E7EC000020405B0208EE
:10108000AA5C02080BF0BCBB7CB50121342003F044
:10109000EFFE00254FF440408DF8045003240090EB
:1010A0008DF8054001268DF8076069460D48FEF76A
:1010B0005AFC18208DF8045000908DF805408DF8EA
:1010C000076069460848FEF74EFC8DF804508DF81D
:1010D000054000948DF8076069460448FEF743FC1C
:1010E0007CBD0000000802400010024000140240D5
:1010F00070B52C4D00244FF400412846FEF794FCB7
:10110000E0B14FF480412846FEF78EFCC0B1264D79
:1011100008212846FEF788FCA0B1244E0121304664
:10112000FEF782FC80B110212846FEF77DFC68B1F5
:1011300002213046FEF778FC50B10AE0022408E0B4
:10114000012406E0082404E0042402E0202400E056
:1011500010241749002003220B78062B1FD2DFE84A
:1011600003F0030608121518BCB101220FE0022299
:101170000DE034B10A7048702046BDE8704000F0C0
:1011800019B8087009E044B9042200E005220A7089
:1011900002E024B10A7000E04870002070BD0870C1
:1011A000FAE700000008024000100240001402406C
:1011B0009C02002001280BD020280BD004280BD043
:1011C00008280BD002280BD010280BD00020704725
:1011D00006207047052070470120704702207047A5
:1011E00003207047042070472DE9FF4F87B01D464C
:1011F000DDF850A0CDE9051000208146680700D039
:10120000012000EBD501494535D90020DDF818B0A3
:1012100025E0059E1AF8017B05F0070000240190E7
:10122000F80701D0012200E000223146584600F0C4
:1012300025F8761C7F08F6B2680705D0B9EBD50F04
:1012400002D10198A04203D0641CE4B2082CE7D379
:101250000BF1010000F0FF0B08F10100C0B2099989
:1012600080468842D5D305980830C0B2059009F170
:101270000100C0B2C1E70BB0BDE8F08F10B5B428D3
:1012800011D880290FD8CB0801F0070101248C4028
:10129000E1B2054C002A04EB0010C25C01D00A4305
:1012A00000E08A43C25410BD18AD01202DE9FF4F64
:1012B000804600251446032082B00F46A0EB44066A
:1012C00051E0381BC1B208EB050A01900AF0FF009B
:1012D000059AFFF7D3FF781B0090C1B208EB040911
:1012E00009F0FF00059AFFF7C9FF07EB050B0BF0AC
:1012F000FF0109F0FF00059AFFF7C0FF07EB0409A3
:1013000009F0FF010AF0FF00059AFFF7B7FFA8EB0D
:10131000050A09F0FF010AF0FF00059AFFF7AEFF8A
:10132000A8EB04090BF0FF0109F0FF00059AFFF795
:10133000A5FF0198059AC1B20AF0FF00FFF79EFFD2
:101340000098059AC1B209F0FF00FFF797FF6D1CE6
:10135000002E03DA06EB8506B61D04E0281B06EB1B
:101360008006641E0A36A542ABDD06B0BDE8F08FEC
:101370002DE9FE4F161ACDE900104FF000085D1A56
:1013800047464FF0FF30002E02DD4FF0010102E032
:1013900003D14FF000018B4602E08346C6F1000600
:1013A000002D02DD4FF0010002E003D14FF00000FC
:1013B000824602E08246C5F10005AE4201DD3446B8
:1013C00000E02C46601C4FF00009029019E00098E4
:1013D0000C9AC1B20198C0B2FFF750FFB0442F443D
:1013E000A04504DD0198A8EB040858440190A742E9
:1013F00003DD00983F1B5044009009F101001FFAE3
:1014000080F902998945E2DDBDE8FE8F2DE9F841BA
:101410001D46079C1646884607460B460094FFF774
:10142000A7FF3A462B46414610460094FFF7A0FF1F
:101430002B463246194638460094FFF799FF32464C
:101440002B46414610460094FFF792FFBDE8F88115
:10145000CA0801F0070101238B40D9B2034B03EB0B
:101460000010805C084000D00120704718AD0120BA
:101470002DE9F041CE188846044687181AE0454603
:1014800014E029462046FFF7E3FF012805D029464E
:101490002046FFF7DDFF10B106E0002200E0012248
:1014A00029462046FFF7EAFE6D1CEDB2AE42E8D8B1
:1014B000641CE4B2A742E2D8BDE8F0812DE9FF4FF9
:1014C0001D460C468946580700D0012000EBD50088
:1014D000690810FB01F0203A00F0FF0A02F0FF0B50
:1014E00000263BE00C2D22D0102D26D0182D37D110
:1014F0001C490BEBCB0001EB80004FF00008875D2F
:10150000380620D50D98E0B1002221460098FFF75B
:10151000B5FE7806641C070EE4B2A4EB0900A842ED
:1015200013D100984C46401CC0B2009014E00E4805
:101530000BEB4B0100EB8100DFE70C4901EB0B10DB
:10154000DBE70122E1E70D9ADFE708F1010000F097
:10155000FF08B8F1080FD3D3761CF6B25645C1D3B5
:10156000BDE8FF8F461A0508E20F05085614050866
:101570002DE9F043B5EEC00A0023F1EE10FA2DED8F
:10158000048B81B0144689460646984665D0B5EE70
:10159000C00AF1EE10FA0AD2134645462D22CDF8C4
:1015A0000080FFF78BFFB1EE400A05EB5403FDEE20
:1015B000C00A10EE907A3846FEF750FB05461E44EE
:1015C000F0B22B463A464946009400F05FF8CDF859
:1015D00000804FEA540818FB0560C0B223462E2253
:1015E0004946FFF76BFF00EE907A3846F8EEE00AC6
:1015F00030EE608AFEF732FBFBF7F3F841EC110B9B
:101600009FED200B0DF064FEB0EE409AF0EE609A74
:1016100018EE100AFBF711F953EC192BFBF76FF8D2
:10162000FBF7ECF8070010D0FEF718FB03466D1C23
:1016300018FB0560C0B23A460094494600F026F80F
:1016400001B0BDEC048BBDE8F0836D1C18FB056098
:1016500000940123C0B20022EFE70123002200948E
:1016600000F014F806EB5400C0B223462E2249467F
:10167000CDF80080FFF722FF24F0010030440094F1
:10168000E7E7000000000000000024402DE9FF4FC4
:1016900081B00026DDF838A01D46934681463446C9
:1016A000B0464FEA5A0727E0281B401EC1B20A2065
:1016B00013F03AFDBBFBF0F00A21B0FBF1F201FBA5
:1016C000120026B9691E8C4201DA48B10126303079
:1016D000C2B207FB0490C0B25346CDF8008006E0CA
:1016E00007FB0490C0B253462022CDF80080029937
:1016F000FFF7E4FE641CE4B2AC42D5D305B0BDE80C
:10170000F08F2DE9F8411F4615460E460446DDF8D8
:101710001C8020E0B420A0EB5700A04202D200249D
:10172000F019C6B2C7F18000B04203DA00242646A1
:1017300000F056F8B8F1000F01D0012000E00020C1
:1017400000902A783B4631462046FFF7B7FE04EB6F
:101750005700C4B26D1C287820385E28DAD9BDE85D
:10176000F88100002DE9FC4101210A2003F080FBF3
:1017700001244FF400708DF804400025124F0090B2
:101780008DF8065002268DF8056069463846FEF74A
:10179000EAF820028DF8044000908DF806508DF88C
:1017A000056069463846FEF7DEF860038DF80440B0
:1017B00000908DF806508DF8056069460348FEF7E5
:1017C000D2F8BDE8FC810000000C02400004024099
:1017D00010B5FFF7C7FFBDE8104013F0EFB90000E8
:1017E00010B50021074B0A465FF0000003EB001420
:1017F000401CC0B26254B428F8D3491CC9B21029A5
:10180000F2D310BD18AD01202DE9F041DFF858806A
:1018100000250024EF0004F12000F9B2C0B213F05B
:1018200085FD0026002013F007F9012013F0D0F801
:1018300013F098F9012013F0FFF806EBC50108EB4F
:101840000110005D13F0C4F813F08CF9761CF6B2A9
:10185000082EE7D3641CE4B2102CDCD36D1CEDB26F
:10186000172DD6D3BDE8F08118AD012010B50029A1
:101870004FF0000102D000F063FB01E000F08EFDAC
:10188000012010BD10B50446012A00D14942481E6E
:10189000042801D2052103E0081D01D36FF00401E3
:1018A0000B4800EB840010ED050A0A20F8EEC00A90
:1018B00000EE101A2146B8EEC00A02F0A7FFBDEEF6
:1018C000C00A204610EE101A00F068FD012010BD7D
:1018D000A81D002008B5009313460A4601460A20B9
:1018E00000F0A0FB08BD000000EE102A38B5B8EEED
:1018F000C00ADFED060A0A46049C014620EE200AD3
:101900000A20009400F08EFB38BD00000000B443B4
:1019100008B5009313460A4601460A2000F0CAFCA7
:1019200008BD014600201D2919D00EDC07291CD056
:1019300005DC03291FD0062900D10620704708299D
:1019400015D01029FAD1072070471E2911D020295F
:1019500007D0212907D06329F6D10920704701203B
:10196000704702207047032070470420704705200D
:101970007047082070470A207047024600201D2A41
:1019800028D010DC072A4BD007DC032A01D0062A16
:1019900002D121B3012924D07047082A40D0102A4F
:1019A000FAD1E1B170471E2A26D0202A1DD0212A63
:1019B00036D0632AF6D191B1012912D0022926D05E
:1019C000032926D0042926D005290CD00629E9D1DF
:1019D0000620704729B1012905D00229F9D101203B
:1019E000704702207047032070470029F7D0012973
:1019F000F7D00329F7D070470029F4D0012906D089
:101A0000022906D00329EAD00429EAD0704704202D
:101A1000704705207047072070470229E3D07047C0
:101A20000029DCD00129F8D1DBE70000234810B5FC
:101A3000007828B101283FD1214C207810B104E072
:101A4000032035E0032003F0BFFC2078012805D1F6
:101A5000032003F0ADFC022003F09EFC2078022856
:101A600005D1032003F0B0FC022003F095FC2078A0
:101A7000032804D103F09CFC022003F099FC207899
:101A8000042805D1032003F09FFC022003F09CFCF6
:101A90002078052805D1032003F07EFC022003F006
:101AA00087FC2078062807D1032003F075FC02206C
:101AB000BDE8104003F088BC10BD000014050020F4
:101AC000280700201CB51A491A4B002009686A46ED
