:020000040800F2
:10000000983F0020C10100081B09000851060008A4
:1000100019090008090200081D100008000000006E
:10002000000000000000000000000000350C000887
:10003000AD0400080000000081090008390E000826
:10004000DB010008DB010008DB010008DB01000820
:10005000DB010008DB010008DB010008DB01000810
:10006000DB010008DB010008DB010008DB01000800
:10007000DB010008DB010008DB010008DB010008F0
:10008000DB010008DB010008DB010008DB010008E0
:10009000DB010008DB010008DB010008DB010008D0
:1000A000DB010008DB010008DB010008DB010008C0
:1000B000DB010008DB010008DB010008DB010008B0
:1000C000DB010008DB010008DB010008DB010008A0
:1000D000DB010008DB010008DB010008DB01000890
:1000E000DB010008DB010008DB010008DB01000880
:1000F000DB010008DB010008DB010008DB01000870
:10010000DB010008DB010008DB010008DB0100085F
:10011000DB010008DB010008DB010008DB0100084F
:10012000DB0100080D020008DB010008DB0100080C
:10013000DB010008DB010008DB010008DB0100082F
:10014000DB010008DB010008DB010008DB0100081F
:10015000DB010008DB010008DB010008AD0E000830
:10016000DB010008DB010008DB010008DB010008FF
:10017000DB010008DB010008DB010008DB010008EF
:10018000DB010008DB010008DB010008DB010008DF
:10019000DB010008DB010008DB010008DB010008CF
:1001A000DB010008DB010008DB010008DFF80CD0F0
:1001B00000F018F800480047C1170008983F0020D9
:1001C0000648804706480047FEE7FEE7FEE7FEE7F1
:1001D000FEE7FEE7FEE7FEE7FEE7FEE73D0E00086E
:1001E000AD010008064C074D06E0E06840F0010351
:1001F00094E8070098471034AC42F6D3FFF7DAFFD3
:100200000C6403082C640308FEE7000070B50B4D76
:100210000B4C2946204600F0EFF801280BD1294667
:10022000204600F011F8204600F0DFF805490128CB
:1002300002D00120087070BD0020FBE7000800100C
:100240002864024028000020074A904201D2074853
:1002500001E005481038064A8B0001EA020101D589
:10026000C1607047816070471064024000600240C6
:100270007D0F7D0F0029016802D041F0010101E0EE
:1002800021F00101016070472DE9F043016821F080
:10029000010101600021016041608160C160016174
:1002A000212141613C493C4A3D251039904202D10F
:1002B0008D60BDE8F083384A4FF47466183290427E
:1002C00001D18E60F5E7344A4FF474173032904212
:1002D00001D18F60EDE7304A4FF0746C48329042A4
:1002E00002D1C1F808C0E4E72B4B2C4A6033984296
:1002F00001D1CA60DDE7284C294B7834A04201D1F6
:10030000CB60D6E7DFF89080264C08F19008404596
:1003100001D1CC60CDE7DFF880804FF03D5908F186
:10032000A808404502D1C1F80C90C2E71E49DFF889
:1003300078800839404501D10D60BAE71A4D18356B
:10034000A84201D10E60B4E7174D3035A84201D163
:100350000F60AEE7144D4835A84202D1C1F800C085
:10036000A7E7114D10496035091FA84201D10A6065
:100370009FE70D4A7832904201D10B6099E70A4A13
:100380009032904201D10C6093E7074AA832904224
:100390008FD1C1F800908CE7106002403D00002032
:1003A000400F002000003D20106402400029016839
:1003B00002D041F4802101E021F4802101607047E6
:1003C000002A026802D042F4002201E022F4002256
:1003D000026001617047014600200968C90700D02A
:1003E00001207047406880B27047014600200968CC
:1003F000090300D5012070470246094B00209A42AC
:1004000001D2084A01E0064A103A8B0001D5526831
:1004100000E01268044B1A400A4200D001207047E5
:1004200010640240006002407D0F7D0F0B0607D56F
:10043000436912B143F0800301E023F0800343617C
:10044000802908D0002A026801F01E0101D00A4369
:1004500000E08A430260704730B50368124ACC68F6
:1004600013400A682243D1E905452C432243CC6955
:1004700022430C6A22434C6A22438C6A22434C6B0F
:1004800022438C6B22431A430260426922F0070325
:10049000D1E90B2422431A4342610A6942604A6847
:1004A00082608968C16030BD3F801CF070470022C7
:1004B0004FF4FA63002101E0491C89B28142FBD369
:1004C000521C92B29A42F5D37047F0B50023012432
:1004D00003270D6804FA03F21540954242D1D0F883
:1004E00000C05E0007FA06F52CEA050CC0F800C053
:1004F00091F804C0D0F800E00CFA06FC4CEA0E0CAF
:10050000C0F800C091F804C0BCF1010F02D0BCF1EA
:10051000020F1FD1D0F808C02CEA050CC0F808C0A3
:1005200091F805C0D0F808E00CFA06FC4CEA0E0C75
:10053000C0F808C0D0F804C02CEA020CC0F804C00F
:10054000426891F806C00CFA03FC1FFA8CFC42EAE0
:100550000C024260C268AA43C260CA79C568B24050
:100560002A43C2605B1C102BB3D3F0BD4B07DB0EDC
:100570009A40C90810B500EB8100016A0F249C4025
:10058000A1430162016A1143016210BD41837047BA
:100590000183704738B503460C46500700D0012050
:1005A00000EBD20010FB02F0C1B218785B78812812
:1005B00009D3402B07D3FF2B05D0FF2803D07F2B77
:1005C00016D2403B15E00020024603E0401C04F830
:1005D000012BC0B28842F9D3012000900C2316A24F
:1005E0003C210A2000F0E4F8BDE8384000F04EB9A4
:1005F000413B8138C0B2C0EB4015DBB205EB801047
:1006000003EB40004843114B0C2A0DD0102A0ED0AA
:10061000182A0FD1D3F8192010440A460146204663
:10062000BDE8384000F052BDD3F80920F4E7D3F814
:100630001120F1E738BD0000466F6E74206E6F2008
:10064000666F756E642E2E2E00000000762B002043
:10065000FEE7000010B5B42811D880290FD8CB08C8
:1006600001F0070101248C40E1B2054C002A04EBA3
:100670000010C25C01D00A4300E08A43C25410BD9E
:10068000362000202DE9FF4F1D460C4689465807AD
:1006900000D0012000EBD500690810FB01F0203AE2
:1006A00000F0FF0A02F0FF0B00263BE00C2D0FD0FC
:1006B000102D13D0182D37D11C490BEBCB0001EBBB
:1006C00080004FF00008875D38060BD50D9A0CE0CE
:1006D00017480BEB4B0100EB8100F2E7154901EBEA
:1006E0000B10EEE70D9890B1002221460098FFF71D
:1006F000B1FF7806641C070EE4B2A4EB0900A8421F
:1007000007D100984C46401CC0B2009008E001227E
:10071000EBE708F1010000F0FF08B8F1080FD3D3B0
:10072000761CF6B25645C1D3BDE8FF8FE02D000818
:100730007C230008F02700082DE9FF4F81B0002638
:10074000DDF838A01D469346814634464FF0010837
:100750004FEA5A0727E0281B401EC1B20A2001F0C9
:1007600041FBBBFBF0F00A21B0FBF1F201FB1200F0
:1007700026B9691E8C4201DA48B101263030C2B276
:1007800007FB0490C0B25346CDF8008006E007FB9B
:100790000490C0B253462022CDF800800299FFF7A2
:1007A00071FF641CE4B2AC42D5D305B0BDE8F08F54
:1007B0002DE9F8411F4615460E460446DDF81C801B
:1007C00020E0F020A0EB5700A04202D20024F01954
:1007D000C6B2C7F1A000B04203DA0024264600F0FA
:1007E00055F8B8F1000F01D0012000E00020009082
:1007F0002A783B4631462046FFF744FF04EB57007A
:10080000C4B26D1C287820385E28DAD9BDE8F8819A
:100810002DE9FC4101210A2000F0B4F801244FF435
:1008200000708DF804400025124F00908DF806509E
:1008300002268DF8056069463846FFF746FE20021D
:100840008DF8044000908DF806508DF805606946DB
:100850003846FFF73AFE60038DF8044000908DF8AB
:1008600006508DF8056069460348FFF72EFEBDE887
:10087000FC810000000C02400004024010B5FFF7AC
:10088000C7FFBDE8104000F0C3BE000010B5002156
:10089000074B0A465FF0000003EB0014401CC0B297
:1008A0006254B428F8D3491CC9B21029F2D310BD40
:1008B000362000202DE9F041DFF858800025002483
:1008C000EF0004F12000F9B2C0B201F093FA002663
:1008D000002000F0DBFD012000F0A4FD00F06CFE24
:1008E000012000F0D3FD06EBC50108EB0110005D0F
:1008F00000F098FD00F060FE761CF6B2082EE7D3FB
:10090000641CE4B2102CDCD36D1CEDB2172DD6D3D1
:10091000BDE8F08136200020FEE7704730B50F2299
:10092000C47801780123FCB1144C246801F1E02162
:1009300004F4E064C4F5E064C4F30724C4F10405DE
:10094000E2404478AC408578154025432A0181F87F
:100950000024007800F01F018B404009800000F166
:10096000E020C0F8003130BD01F01F00834048098D
:10097000800000F1E020C0F8803130BD0CED00E0D7
:1009800070470000044A0029116801D0014300E0CB
:10099000814311607047000030380240044A00294A
:1009A000116801D0014300E08143116070470000ED
:1009B00044380240044A0029116801D0014300E094
:1009C00081431160704700002438024070B5204A0E
:1009D0001168204C11F00C0104D06610042903D0DA
:1009E000082903D004601BE0066019E01849091FBC
:1009F0000B68C3F380550B6803F03F0315B1B6FBDA
:100A0000F3F301E0B4FBF3F30C680968C4F3881452
:100A10006343C1F30141491C4900B3FBF1F101609B
:100A200011680F2303EA11110B4B5C5C0168E14074
:100A300041601468072505EA94241C5D21FA04F43A
:100A40008460126805EA52329A5CD140C16070BD80
:100A5000083802400024F400100000202DE9F04383
:100A600087B001210220FFF78DFF4FF4805901214B
:100A70004846FFF793FF02268DF8186000248DF892
:100A80001A4003208DF81900DFF88C8038250127E3
:100A900005958DF81B7005A94046FFF716FD052248
:100AA00003214046FFF762FD052204214046FFF77F
:100AB0005DFD052211464046FFF758FD01214846DD
:100AC000FFF778FF00214846FFF774FFADF80040BC
:100AD0004FF48270ADF80200ADF808703002ADF846
:100AE0000C50ADF80440ADF80A00ADF80E400720F8
:100AF0000A4CADF81000ADF806606946204600F0DB
:100B00003EF80121204600F025F8FF2000F008F80B
:100B100007B0BDE8F083000000040240003001404F
:100B200070B50B4C05460221204600F01DF8002848
:100B3000F9D02946204600F020F80121204600F097
:100B400013F80028F9D0204600F015F8C0B270BDA7
:100B5000003001400029018802D041F0400101E04D
:100B600021F04001018070470246002012890A42AC
:100B700000D001207047808970478181704730B56F
:100B800002884C8802F441530A88CD8822438C881D
:100B90002C4322430C8922434C8922438C892243D3
:100BA000CC8922431A430280828B22F40062828322
:100BB000098A018230BD00001CB504460E4801219F
:100BC00050F82400FFF7DEFE0B480021083830F80B
:100BD0001400009001208DF804008DF806108DF8A7
:100BE000070002208DF805000448694650F82400EB
:100BF000FFF76BFC1CBD00007423000808000020F8
:100C00000349044A31F8101052F82000018370475C
:100C10006C23000808000020044951F820104A699C
:100C2000034B33F8100042404A617047080000202F
:100C30006C230008704700000CB500202E4901907D
:100C400000900A6842F480320A604FF4A0430A68B8
:100C500002F400320092019A521C0192009A12B9D9
:100C6000019A9A42F3D10A68920306D50120224ADA
:100C70000090121D2148106000E000901E48403096
:100C8000026842F0805202601D48026842F440420D
:100C90000260194A083213681360136843F4004372
:100CA0001360136843F4A05313600B6843F0807320
:100CB0000B600B689B01FCD5016841F48031016039
:100CC0004168C903FCD5016841F400310160416805
:100CD0008903FCD50B4940F205700860106820F0CC
:100CE00003001060106840F0020010601068C0F34C
:100CF00081000228FAD10CBD00380240085A400792
:100D000000700040003C02402DE9F04F1D46824635
:100D100093B013460C468946680700D0012000EBCB
:100D2000D50010FB05F000F0FF0B0C2D03D0102DAB
:100D300001D0182D34D12A4669461846FFF72AFCFF
:100D4000002629E01DF806704FF00008380604D58B
:100D5000E1B20AF0FF00012205E01C9828B9E1B2D7
:100D60000AF0FF000022FFF775FC7806641C070EEE
:100D7000A4B2A4EB0900A84205D10AF101004C4637
:100D80001FFA80FA06E008F1010000F0FF08B8F150
:100D9000080FDBD3761CF6B25E45D3D3FFF78AFD8E
:100DA00013B0BDE8F08F2DE9F84F0D460AA90446AF
:100DB00091E8C0088046307800281ED0E81808EB7B
:100DC000020AA0EB07093278802A18D9AAEB07009B
:100DD000A04202DAE81985B24446A9450DDB3B463C
:100DE000324629462046CDF800B0FFF78DFFE019C6
:100DF00084B216F8020F0028E5D1BDE8F88FAAEBFF
:100E00005700A04202DAE81985B24446A945F4DB4E
:100E10000D2A0CD0E9B2E0B23B46CDF800B0FFF7A6
:100E200031FC04EB570084B216F8010FE3E7E81930
:100E300085B24446761CF4E700F02EB8124810B58F
:100E4000016841F4700101601048016841F001013E
:100E500001600E4A00210832116002680C4B1A40F2
:100E60000260031D0B4A1A60026822F480220260AD
:100E700006480C300160FFF7DFFE03494FF00060C9
:100E80008039086010BD000088ED00E000380240A5
:100E9000FFFFF6FE1030002403480168002902D04D
:100EA0000168491E016070472000002010B5074C02
:100EB00040F22551204600F020F8002804D02046BA
:100EC000BDE8104000F0A6B810BD000000140140BD
:100ED000C943018070470029818902D041F4005143
:100EE00001E021F4005181817047002A828A01D0FB
:100EF0000A4300E08A438282704730B501F01F0246
:100F000001240025C1F3421304FA02F2012B0FD091
:100F1000022B0FD0838A4FEA11210088134204FA72
:100F200001F400EA040001D000B10125284630BDDB
:100F30008389F0E7038AEEE710B5C1F3421301F0AD
:100F40001F040121A140012B07D0022B07D0143030
:100F5000002A026805D00A4304E00C30F8E710309C
:100F6000F6E78A43026010BD7FB50446008A0D464D
:100F700020F44051E88808432082A08941F20C61A6
:100F80008843A9882A8911436A8902431143A181B0
:100F9000A08A20F44071A8890843A0826846FFF720
:100FA00015FD1A48844202D01948844201D10398A1
:100FB00000E00298A189090400EBC00101EB0010D8
:100FC000296801D5490000E08900B0FBF1F26420F6
:100FD000B2FBF0F109010B096FF018056B4302EB4E
:100FE0008302A3891D044FF0320306D503EBC2022E
:100FF000B2FBF0F000F0070005E003EB0212B2FBD9
:10100000F0F000F00F00084320817FBD0010014088
:10101000001401408088C0F308007047FEE700001C
:1010200070B5040300F004F900F0ACF80C4D00209A
:10103000C5F8BC02202005F52F75FFF771FDC4F33C
:101040000740FFF76DFDC4F30720FFF769FDE0B22D
:10105000FFF766FD01202860BDE8704000F092B8FF
:10106000000040427CB501210846FFF78BFC4FF49D
:101070000040012400908DF8044000208DF8060007
:1010800003208DF805008DF8074069460B48FFF7EF
:101090001CFA80200A4D009069462846FFF715FA91
:1010A00080212846FFF774FA0648C0F8BC42FFF7D3
:1010B000D5FC00F033F8044908807CBD00000240F4
:1010C0000018024000004042300000202DE9F041AD
:1010D000114E0746002015460C46C6F8BC020320F8
:1010E000FFF71EFDC4F30740FFF71AFDC4F3072006
:1010F000FFF716FDE0B2FFF713FD002405E0FF2027
:10110000FFF70EFD3855641CA4B2AC42F7D30120A2
:10111000C6F8BC02BDE8F0810000404270B50F4C3B
:101120000025C4F8BC52902004F52F74FFF7F8FC9A
:101130000020FFF7F5FC0020FFF7F2FC0020FFF78E
:10114000EFFCFF20FFF7ECFC45EA0025FF20FFF74E
:10115000E7FC28430121216070BD000000004042EF
:1011600010B5074C0020C4F8BC02052004F52F740C
:10117000FFF7D6FCFF20FFF7D3FC0121216010BD53
:10118000000040422DE91040FFF7EAFFC007FBD105
:1011900010BD00002DE9F05FC1F30B06DFF88C8075
:1011A0000F0BC6F58054894682461546A24200D8E8
:1011B000144639038B464FF480524046FFF786FFB2
:1011C000002006E0321818F80210FF2903D1401C55
:1011D00080B2A042F6D3A04222D23846FFF720FFC9
:1011E000002006E01AF800208319401C08F80320AC
:1011F00080B2A042F6D359464FF480524FEA08001D
:1012000000F026F8A5420FD0281BA244A1440026D6
:1012100085B24FF480547F1CA542CAD82C46C8E73B
:10122000224649465046EBE7BDE8F09F972B002049
:1012300010B5064C0020C4F8BC02062004F52F743B
:10124000FFF76EFC0120206010BD0000000040424E
:101250002DE9F0410746C8B2C0F580740E46154628
:10126000A24200D814464FF48078224631463846D0
:1012700000F00EF8A54208D0281B2744264485B26A
:101280004446A542F1D82C46EFE7BDE8F0810000C6
:101290002DE9F04115460C460746FFF7C9FF114EF0
:1012A0000020C6F8BC020220FFF73AFCC4F3074056
:1012B000FFF736FCC4F30720FFF732FCE0B2FFF77C
:1012C0002FFC002404E0385DFFF72AFC641CA4B264
:1012D000AC42F8D30120C6F8BC02BDE8F041FFF7EC
:1012E00051BF000000004042014A024900F013B81B
:1012F000851300082C00002002E008C8121F08C156
:10130000002AFAD170477047002001E001C1121F86
:10131000002AFBD170472DE9F04116460F460446DE
:10132000002503E03946B047641C6D1C2078002876
:10133000F8D12846BDE8F08103E00921491E89B2B1
:10134000FCD2401E80B2F8D27047000070B5002475
:10135000FFF788FE0A4D4FF0E076641CE4B22122CC
:1013600031460748FFF7B2FE2878AA2806D00A2C93
:10137000F3D3C0B2AA2801D0012070BD002070BDF7
:10138000762B002004490A885206FCD5024AC1B2D5
:10139000121D1180704700000014014070B5144602
:1013A0002DED028B82B00D469DED080A0646F8EE43
:1013B000400A00EE103AB8EE401A80EE810ADFEDE6
:1013C000160A20EE208A9FED150AB4EE480AF1EEC7
:1013D00010FA1BD00120009004EB440006EB5000F3
:1013E0001346E9B2C0B20EA2FFF7E2F9BCEEC80A9A
:1013F00010EE100AC2B2642A00D96422E9B2F0B237
:1014000003230094FFF798F9FFF754FA02B0002085
:10141000BDEC028B70BD00000000C84200007F439D
:10142000250000002DE9F047DFF85890164E0546DC
:1014300000244FF400784FF40057280641464846F0
:1014400002D5FFF7A5F801E0FFF7A0F839463046CE
:10145000FFF79EF839463046FFF798F86806641C97
:10146000050EE4B2082CE8D339463046FFF790F871
:1014700000BF00BF39463046FFF788F800BF00BF05
:10148000BDE8F087000C0240000402402DE9F04165
:10149000474F80464FF4007631463846FFF778F8DC
:1014A000444D340121462846FFF772F8314638464C
:1014B000FFF76CF800BF21462846FFF767F800BF2A
:1014C00000BF00BF00BF31463846FFF75FF8214636
:1014D0002846FFF75DF821462846FFF757F83146C2
:1014E0003846FFF755F821462846FFF751F82146C0
:1014F0002846FFF74BF831463846FFF749F82146B2
:101500002846FFF745F821462846FFF73FF83146C1
:101510003846FFF73DF821462846FFF739F82146BF
:101520002846FFF733F831463846FFF731F82146B1
:101530002846FFF72DF821462846FFF727F83146C1
:101540003846FFF723F821462846FFF721F82146C1
:101550002846FFF71BF8B8F1000F3146384623D074
:10156000FFF716F821462846FFF712F821462846CD
:10157000FFF70CF831463846FFF708F821462846B1
:10158000FFF706F821462846FFF700F821462846CF
:10159000FEF7FEFF00BF00BF21462846FEF7F6FF1C
:1015A00000BF00BFBDE8F081FEF7F0FFDAE7000002
:1015B000000C0240000402402DE9F041124D4FF4AE
:1015C000007421462846FEF7E1FF00BF00BF0F4F21
:1015D0004FF4005631463846FEF7D8FF00BF00BF33
:1015E00031463846FEF7D4FF00BF00BF00BF00BF42
:1015F00000BF21462846FEF7CBFF00BF00BF00BF5B
:1016000000BFBDE8F0810000000C02400004024071
:1016100070B54FF47A70FEF74AFF684D4FF480744E
:1016200021462846FEF7B4FF4FF4C870FEF73FFF8F
:1016300021462846FEF7AAFF4FF44860FEF737FF21
:1016400021462846FEF7A4FF4FF4FA50FEF72FFF7D
:101650000020FFF71BFFE120FFF7E4FEFFF7ACFFE0
:101660000120FFF713FFE220FFF7DCFEFFF7A4FFE6
:10167000C820FEF71CFF0020FFF708FF0420FFF73B
:10168000D1FEFFF799FF0120FFF700FF0020FFF7D1
:10169000C9FEFFF791FF0020FFF7F8FE2D20FFF7AE
:1016A000C1FE2420FFF7BEFEEB20FFF7BBFEFFF7D5
:1016B00083FF0020FFF7EAFE8120FFF7B3FEFFF76C
:1016C0007BFF0120FFF7E2FE5520FFF7ABFEFFF79F
:1016D00073FF0020FFF7DAFE4020FFF7A3FE502043
:1016E000FFF7A0FE8620FFF79DFE8920FFF79AFEF8
:1016F000C420FFF797FEA320FFF794FE9520FFF785
:1017000091FEFFF759FF0020FFF7C0FEC820FFF74A
:1017100089FEFFF751FF0120FFF7B8FE3920FFF7E0
:1017200081FEFFF749FF0020FFF7B0FEF120FFF731
:1017300079FEFFF741FF0120FFF7A8FE7F20FFF7AA
:1017400071FEFFF739FF0020FFF7A0FEF220FFF740
:1017500069FEFFF731FF0120FFF798FE0020FFF739
:1017600061FEFFF729FF0020FFF790FEF320FFF74F
:1017700059FEFFF721FF0120FFF788FE7F20FFF7CA
:1017800051FEFFF719FF0020FFF780FE8520FFF7CD
:1017900049FEFFF711FF0020FFF778FEC920FFF791
:1017A00041FEFFF709FF0120FFF770FEAD20FFF7B4
:1017B00039FEBDE87040FFF7FFBE0000000C02409C
:1017C0000EB500252E46FFF739FBFFF757F84FF40B
:1017D000E13000F007FD0020FFF7EEF90120FFF7F0
:1017E000EBF9FFF73FFC0020FFF70AFAFEA0FFF736
:1017F0007BFD04E00C221E210A2000F013FCFFF701
:10180000A5FD0028F6D1FD4CC5EBC500810234F8DA
:10181000260001F1FA7182B2F948FFF7BBFC761C91
:101820006D1C34F8260082B2C5EBC50000F5FA4005
:101830008102F448FFF7AEFC761C6D1C34F82600DC
:1018400082B2C5EBC50000F5FA408102EE48FFF711
:10185000A1FC761C6D1C34F8260082B2C5EBC500D5
:1018600000F5FA408102E948FFF794FC761C6D1CF4
:1018700034F8260082B2C5EBC50000F5FA408102BB
:10188000E348FFF787FC761C6D1C34F8260082B213
:10189000C5EBC50000F5FA408102DE48FFF77AFC8F
:1018A000761C6D1C34F8260082B2C5EBC50000F52D
:1018B000FA408102D848FFF76DFC761C6D1C34F8A5
:1018C000260082B2C5EBC50000F5FA408102D3487C
:1018D000FFF760FC761CF6B26D1C34F82600EDB202
:1018E00082B2C5EBC50000F5FA408102CC48FFF793
:1018F00051FC761CF6B26D1C34F82600EFB282B2B1
:10190000C7EBC70000F5FA408102C648FFF742FC6A
:10191000761CF5B27F1C34F82500FEB282B2C6EB0D
:10192000C60000F5FA408102BF48FFF733FC6D1C8A
:10193000EDB2761C34F82500F6B282B2C6EBC600D2
:1019400000F5FA408102B948FFF724FC6D1CEDB2A6
:10195000761C34F82500F6B282B2C6EBC60000F55C
:10196000FA408102B248FFF715FC6D1CEDB2761CFF
:1019700034F82500F6B282B2C6EBC60000F5FA4094
:101980008102AC48FFF706FC6D1CEDB2761C34F802
:101990002500F6B282B2C6EBC60000F5FA4081021D
:1019A000A548FFF7F7FB6D1CEDB2761C34F8250057
:1019B000F6B282B2C6EBC60000F5FA4081029F483B
:1019C000FFF7E8FB6D1CEDB2761C34F82500F6B28B
:1019D00082B2C6EBC60000F5FA4081029848FFF7D4
:1019E000D9FB6D1CEDB2761C34F82500F6B282B23C
:1019F000C6EBC60000F5FA4081029248FFF7CAFB29
:101A00006D1CEDB2761C34F82500F6B282B2C6EB3E
:101A1000C60000F5FA4081028B48FFF7BBFB6D1C46
:101A2000EDB2761C34F82500F7B282B2C7EBC700DE
:101A300000F5FA4081028548FFF7ACFB6D1CEEB261
:101A40007F1C34F82600FDB282B2C5EBC50000F55C
:101A5000FA4081027E48FFF79DFB761CF6B26D1CB2
:101A600034F82600EDB282B2C5EBC50000F5FA40AD
:101A700081027848FFF78EFB761CF6B26D1C34F8B5
:101A80002600EDB282B2C5EBC50000F5FA40810236
:101A90007148FFF77FFB761CF6B26D1C34F8260008
:101AA000EFB282B2C7EBC70000F5FA4081026B4883
:101AB000FFF770FB761CF5B27F1C34F82500FEB2F0
:101AC00082B2C6EBC60000F5FA4081026448FFF717
:101AD00061FB6D1CEDB2761C34F82500F6B282B2C3
:101AE000C6EBC60000F5FA4081025E48FFF752FBE4
:101AF0006D1CEDB2761C34F82500F6B282B2C6EB4E
:101B0000C60000F5FA4081025748FFF743FB6D1C01
:101B1000EDB2761C34F82500F6B282B2C6EBC600F0
:101B200000F5FA4081025148FFF734FB6D1CEDB21D
:101B3000761C34F82500F6B282B2C6EBC60000F57A
:101B4000FA4081024A48FFF725FB6D1CEDB2761C76
:101B500034F82500F6B282B2C6EBC60000F5FA40B2
:101B600081024448FFF716FB6D1CEDB2761C34F879
:101B70002500F6B282B2C6EBC60000F5FA4081023B
:101B80003D48FFF707FB6D1CEDB2761C34F82500CD
:101B9000F6B282B2C6EBC60000F5FA4081023748C1
:101BA000FFF7F8FA6D1CEDB2761C34F82500F6B29A
:101BB00082B2C6EBC60000F5FA4081023048FFF75A
:101BC000E9FA6D1CEDB2761C34F82500F7B282B24A
:101BD000C7EBC70000F5FA4081022A48FFF7DAFA9E
:101BE0006D1CEEB250E0000053797374656D206295
:101BF000656761696E210D0A000000003C3B00082A
:101C0000D03B0008AE540008C56E00087E8A00086C
:101C100095A4000873BD0008B9D60008FFEF0008BE
:101C20000C08010852210108C73901087653010840
:101C3000836B010890830108CC9A010870B20108F7
:101C400043C90108B8E1010867FB0108DC13020879
:101C50002D2F0208AD490208CA5A0208B86C0208C2
:101C6000B08002081195020838A8020884B802085A
:101C7000C5C60208D2DE0208B0F70208E70303086F
:101C80004D0F03085F1E030834F826007F1C82B244
:101C9000FDB2C5EBC50000F5FA4081023448FFF7FC
:101CA00079FA761CF6B26D1C34F82600EDB282B2D9
:101CB000C5EBC50000F5FA4081022E48FFF76AFA2D
:101CC000761CF0B26D1C34F8200082B2E8B2C0EB92
:101CD000C00000F5FA4081022748FFF75BFA0C20AC
:101CE00026A1CDE9001001240346B4220294142158
:101CF0000020FFF758F8102528A0CDE900052B4655
:101D0000B422242102940020FFF74DF829A0CDE948
:101D100000051023B422382102940020FFF743F875
:101D2000182527A0CDE900052B46B4224C210294AA
:101D30000020FFF738F826A0CDE900051823B422CB
:101D4000642102940020FFF72EF8FEF7B3FD41F264
:101D5000883465000120FEF75FFF2046FEF7A7FBF1
:101D60000020FEF759FF2846FEF7A1FBF2E700002E
:101D7000712D030873430308A4580308C9C7CDB7DE
:101D8000B4F3D1A7C8CBB9A4D6C7C4DCD3EBBBFA94
:101D9000C6F7C8CBCAB5D1E9CAD20000C9C7CDB70A
:101DA000B4F3D1A7C8CBB9A4D6C7C4DCD3EBBBFA74
:101DB000C6F70000C8CBCAB5D1E9CAD200000000FE
:101DC000C9C7CDB7B4F3D1A7C8CBB9A4D6C7000053
:101DD000C4DCD3EBBBFAC6F7C8CBCAB5D1E9CAD2CB
:101DE000000000000246012000E05043491EC9B235
:101DF000FBD2704770B504460D460020FFF746FB46
:101E00000420FFF70FFBFFF7D7FB0120FFF73EFB96
:101E10002846FFF707FBFFF7CFFB0020FFF736FB55
:101E200044F06000FFF7FEFA7020FFF7FBFAFFF7BF
:101E3000C3FB0020FFF72AFBF920FFF7F3FABDE808
:101E40007040FFF7B9BB00002DE9FF4F07460024A3
:101E5000484881B093462546264633B1012B0CD025
:101E6000022B31D0032B12D137E0434C40F8014F05
:101E70004FF42B36466041A007E050F8011F464E54
:101E800042688C188460C66044A0FFF72DFA07EB07
:101E9000CB081FFA88F033465A4600950299FFF79F
:101EA0007DFADFF81091444F48F6D24A386808B1FD
:101EB000401C386099F8000002282FD001223A60B7
:101EC000A0B1012817D01CE050F8091F3B4E426812
:101ED0008C188460C6603AA0D7E750F8111F3E4EB8
:101EE00042688C188460C6603CA0CEE729194FF484
:101EF0008052404803E029194FF480523E48FFF7D2
:101F000049F9022189F8001005F580551FFA88F07B
:101F100033465A4600950299FFF740FA6420FFF7CE
:101F20000BFA39685145C1D9344E3046FEF75DFA97
:101F30000128304615D0FEF755FAC0F5805082B220
:101F400029192C48FFF726F92DA0FFF7CDF94FF4FA
:101F5000E13000F047F90020386005B05846BDE890
:101F6000F08FFEF73FFAC0F5805082B2291922485F
:101F7000E8E70000762B00202100C001506C65616D
:101F800073652073656E6420554E4947424B2E623F
:101F9000696E0D0A0000000000C80800506C656101
:101FA00073652073656E642047424B31322E464F75
:101FB0004E0D0A00280000202400002000B40B0071
:101FC000506C656173652073656E642047424B31C8
:101FD000362E464F4E0D0A0000501A00506C6561B7
:101FE00073652073656E642047424B32342E464F32
:101FF0004E0D0A00340000203510002028640240F5
:102000005468697320466F6E7420757064617465DE
:1020100064207375636365737366756C6C210D0A58
:10202000000000002DE9F74F82B00C4606464FF045
:10203000010AC9B2C0B2CDF800A041A2049BFEF7CC
:10204000B7FBFEF737FC0498DFF808B1002506EB74
:10205000C0074FF4805940F21738B8B24346009594
:102060002146049AFFF79AF929034A46394801F1B3
:10207000E071FFF72BF8002059464A460B5CFF2B16
:1020800003D1401C80B29042F8D3484503D005F5F7
:10209000E050FEF7C5FF6D1CADB24545DDD355469A
:1020A000E1B2F0B2CDF800A02BA2049BFEF780FBBA
:1020B000FEF700FC04F10F07B9B200233046049A82
:1020C000FFF7C2FEE1B2F0B2009529A2049BFEF731
:1020D0006FFBFEF7EFFBB9B201233046049AFFF71E
:1020E000B3FEE1B2F0B2009527A2049BFEF760FBBD
:1020F000FEF7E0FBB9B202233046049AFFF7A4FED4
:10210000E1B2F0B2009526A2049BFEF751FBFEF768
:10211000D1FBB9B203233046049AFFF795FE264956
:10212000AA20212208704FF0E0712348FFF732F80F
:1021300022A0FFF7D9F805B00020BDE8F08F00001D
:1021400045726173696E6720736563746F72732E75
:102150002E2E2000351000205570646174696E6762
:1021600020554E4947424B2E42494E202000000048
:102170005570646174696E672047424B31322E4658
:102180004F4E2020000000005570646174696E6736
:102190002047424B31362E464F4E20200000000093
:1021A0005570646174696E672047424B32342E4625
:1021B0004F4E202000000000762B0020416C6C2048
:1021C000466F6E742066696C652075706461746515
:1021D00064207375636365737366756C6C2121216C
:1021E0000D0A00002DE9F041804696B00121402003
:1021F000FEF7C8FB01212020FEF7D0FB544F082238
:1022000009213846FEF7B2F908220E213846FEF7BA
:10221000ADF902258DF8405078158DF84150002415
:102220000F908DF8424001268DF843600FA9384683
:10223000FEF74BF98DF8405068038DF841500F9030
:102240008DF842408DF843600FA93846FEF73DF9FE
:10225000ADF850400C203F4FADF84C40ADF8520067
:10226000CDF84880ADF84E40ADF8544012A938463C
:10227000FEF77AFE01213846FEF72DFE4021384652
:10228000FEF726FE012240F225513846FEF754FEA5
:10229000012240213846FEF728FE47208DF84400F1
:1022A00003278DF845708DF846708DF8476011A8AA
:1022B000FEF734FB01218805FEF764FBDFF8988008
:1022C0004046FDF7E1FF4046FEF785F80028FAD1C9
:1022D0004FF0206000901F480AA9001D01901F4880
:1022E000CDE902044FF48050CDE904048010CDE91B
:1022F00006048010CDE90840000281E891000D94A9
:102300000E940022164944464046FEF759F8012132
:102310002046FEF74BF869462046FEF79DF801215E
:102320002046FDF7A7FF012210212046FEF77EF888
:1023300039208DF844008DF845508DF846508DF8C1
:10234000476011A8FEF7EAFA16B0BDE8F081000078
:1023500000180240001401402864024034000020AC
:1023600035100020000006000100010004000020DC
:102370000100000020000000040000000000000038
:102380000000000000000000000000003F400000CE
:10239000000000000000300040003000400000005D
:1023A00009000BC03D000BC03D00090018C02440CF
:1023B0007FE0224031800000180024C01B000D8007
:1023C0003240018003801C4027401C8007400040B1
:1023D000100060000000000000000000000000008D
:1023E00000001F80204040200000402020401F802F
:1023F00000000000090006001F8006000900000020
:10240000040004003F80040004000000001000608D
:1024100000000000000000000400040004000400AC
:102420000400000000000040000000000000000068
:10243000002001C006003800400000001F8020403E
:10244000204020401F800000000010403FC000409E
:102450000000000018C02140224024401840000025
:1024600010802040244024401B80000002000D000A
:1024700011003FC0014000003C8024402440244023
:10248000238000001F80244024403440038000004B
:102490003000200027C03800200000001B802440AE
:1024A000244024401B8000001C0022C02240224007
:1024B0001F80000000000000084000000000000035
:1024C00000000000046000000000000000000400A4
:1024D0000A0011002080404009000900090009009D
:1024E0000900000000004040208011000A000400A4
:1024F0001800200023402400180000001F80204006
:10250000274029401F400000004007C039000F004D
:1025100001C0004020403FC0244024401B800000F8
:102520001F802040204020403080000020403FC0DD
:10253000204020401F80000020403FC024402E400B
:1025400030C0000020403FC024402E00300000007A
:102550000F001080204022403380020020403FC006
:10256000040004003FC02040204020403FC02040E5
:10257000204000000060202020203FC020002000DC
:1025800020403FC024400B0030C0204020403FC0CE
:1025900020400040004000C03FC03C0003C03C0061
:1025A0003FC0000020403FC00C4023003FC020003F
:1025B0001F802040204020401F80000020403FC05E
:1025C00024402400180000001F802140214020E00A
:1025D0001FA0000020403FC02440260019C000403A
:1025E00018C02440244022403180000030002040A8
:1025F0003FC020403000000020003F8000400040ED
:102600003F80200020003E0001C00700380020006D
:10261000380007C03C0007C038000000204039C027
:10262000060039C0204000002000384007C0384074
:1026300020000000304021C02640384020C000006B
:10264000000000007FE040204020000000007000FB
:102650000C000380004000000000402040207FE08C
:1026600000000000000020004000200000000000EA
:1026700000100010001000100010001000000000FA
:1026800040000000000000000000028005400540FE
:1026900003C0004020003FC004400440038000000D
:1026A0000000038004400440064000000000038056
:1026B000044024403FC00040000003800540054026
:1026C00003400000000004401FC0244024402000BC
:1026D000000002E0055005500650042020403FC095
:1026E0000440040003C000400000044027C0004034
:1026F0000000000000100010041027E0000000009F
:1027000020403FC00140070004C00440204020405A
:102710003FC000400040000007C0040007C00400A4
:1027200003C00000044007C00440040003C0004090
:10273000000003800440044003800000041007F000
:102740000450044003800000000003800440045053
:1027500007F00010044007C002400400040000001D
:10276000000006400540054004C0000000000400D1
:102770001F80044000400000040007800040044027
:1027800007C000400400070004C0018006000400E8
:10279000060001C0070001C006000000044006C09A
:1027A000010006C0044000000410071004E001808E
:1027B000060004000000044005C00640044000007C
:1027C0000000000004007BE040200000000000004A
:1027D0000000FFF000000000000040207BE004004B
:1027E0000000000040008000400020002000400069
:1027F00000000000000000000000000000000000D9
:102800000000000000001FCC000C000000000000D1
:102810000000080030006000080030006000000088
:10282000022003FC1E20022003FC1E2002200000C8
:1028300000000E1811043FFF10840C780000000007
:102840000F0010840F3800C007781884007800004B
:1028500000780F8410C411240E9800E4008400084E
:102860000800680070000000000000000000000088
:1028700000000000000007E01818200440020000DB
:10288000000040022004181807E0000000000000CB
:102890000240024001800FF001800240024000002F
:1028A0000080008000800FF8008000800080000021
:1028B0000001000D000E00000000000000000000FC
:1028C0000000008000800080008000800080008088
:1028D0000000000C000C00000000000000000000E0
:1028E00000000006001800600180060018002000AB
:1028F000000007F0080810041004080807F00000A2
:102900000000080408041FFC00040004000000008C
:1029100000000E0C10141024104411840E0C000042
:1029200000000C1810041104110412880C7000002F
:10293000000000E00320042408241FFC0024000001
:1029400000001F98108411041104108810700000FA
:10295000000007F0088811041104188800700000B6
:1029600000001C00100010FC13001C0010000000F0
:1029700000000E3811441084108411440E380000F9
:1029800000000700088C10441044088807F000007D
:10299000000000000000030C030C00000000000019
:1029A000000000000001010600000000000000001F
:1029B00000000080014002200410080810040000FC
:1029C0000220022002200220022002200220000019
:1029D00000001004080804100220014000800000DC
:1029E00000000E001200100C106C10800F00000090
:1029F00003E00C1813E4142417C4082807D00000BF
:102A00000004003C03C41C40074000E4001C000418
:102A100010041FFC1104110411040E880070000042
:102A200003E00C1810041004100410081C1000001F
:102A300010041FFC100410041004080807F0000024
:102A400010041FFC1104110417C41004081800001E
:102A500010041FFC1104110017C010000800000032
:102A600003E00C181004100410441C78004000000F
:102A700010041FFC10840080008010841FFC1004D0
:102A80000000100410041FFC1004100400000000DB
:102A900000030001100110011FFE100010000000D3
:102AA00010041FFC110403801464181C100400009F
:102AB00010041FFC1004000400040004000C0000BB
:102AC00010041FFC1F0000FC1F001FFC100400006E
:102AD00010041FFC0C04030000E010181FFC100081
:102AE00007F00808100410041004080807F000009C
:102AF00010041FFC10841080108010800F00000054
:102B000007F0081810241024101C080A07F200000F
:102B100010041FFC1104110011C011300E0C000430
:102B200000000E1C11041084108410441C38000096
:102B30001800100010041FFC100410001800000002
:102B400010001FF810040004000410041FF8100007
:102B500010001E0011E0001C007013801C0010000B
:102B60001FC0103C00E01F0000E0103C1FC0000030
:102B70001004180C163401C001C01634180C1004CF
:102B800010001C00130400FC13041C0010000000C3
:102B90000804101C1064108413041C041018000096
:102BA0000000000000007FFE4002400240020000E2
:102BB000000030000C0003800060001C00030000D7
:102BC00000004002400240027FFE000000000000C2
:102BD00000000000200040004000400020000000F5
:102BE00000010001000100010001000100010001DD
:102BF0000000400040002000000000000000000035
:102C000000000098012401440144014400FC000438
:102C100010001FFC008801040104008800700000FF
:102C20000000007000880104010401040088000015
:102C30000000007000880104010411081FFC00045A
:102C4000000000F8014401440144014400C80000B0
:102C50000000010401040FFC11041104110018000C
:102C6000000000D601290129012901C9010600003F
:102C700010041FFC008401000100010400FC00049A
:102C800000000104190419FC000400040000000005
:102C90000000000300010101190119FE00000000FD
:102CA00010041FFC0024004001B4010C01040000CA
:102CB0000000100410041FFC0004000400000000C9
:102CC000010401FC0104010001FC0104010000FCFD
:102CD000010401FC008401000100010400FC000467
:102CE000000000F8010401040104010400F80000E0
:102CF000010101FF0085010401040088007000004B
:102D000000000070008801040104010501FF0001BA
:102D10000104010401FC00840104010001800000A1
:102D2000000000CC012401240124012401980000AA
:102D300000000100010007F8010401040000000088
:102D4000010001F8000400040004010801FC000473
:102D5000010001800170000C001001600180010081
:102D600001F0010C003001C00030010C01F0010045
:102D700000000104018C00740170018C010400004A
:102D8000010101810171000E001801600180010044
:102D900000000184010C013401440184010C000095
:102DA000000000000000000001003EFC4002400264
:102DB0000000000000000000FFFF00000000000015
:102DC0000000400240023EFC010000000000000044
:102DD00000006000800080004000400020002000D3
:102DE00000000000000000000000000000000000E3
:102DF00000000000000000000000000000000000D3
:102E000000000000000000000000000000000000C2
:102E10000000000F80380FFE380F803800000000DF
:102E200000000000000000000000000000000100A1
:102E3000000600000C000038000031000006000011
:102E40000C0000380000300000000000000000000E
:102E500061800067F807F98000618000618000618F
:102E6000800061800067F807F98000618000000041
:102E700000000000000001C0E003E0F0063008049C
:102E800018081FFFFE040E080787F00381E000000A
:102E90000000000001F000060C00040408060C709D
:102EA00001F9C0000E00003BE000EC180708080420
:102EB0000C180003E00000000001E00007F003F838
:102EC00018041C0804170807E1D003C0E00023B071
:102ED000003C080020080000100000000000000175
:102EE00000003100003200001C0000000000000063
:102EF00000000000000000000000000000000000D2
:102F000000000000000000000000000000000000C1
:102F10007F0001FFC00780F00C00181000042000A3
:102F2000020000000000002000021000040C001845
:102F30000780F001FFC0007F0000000000000000DB
:102F400000000000000000000000000042000066D9
:102F500000006600003C0000180003FFC0001800DD
:102F6000003C000066000066000042000000000017
:102F7000080000080000080000080000080001FF29
:102F8000C000080000080000080000080000080059
:102F900000000000000100003100003200001C00B1
:102FA0000000000000000000000000000000000021
:102FB00000000000000000000800000800000800F9
:102FC00000080000080000080000080000080000D9
:102FD00008000008000000000000000000000000E1
:102FE0003800003800003800000000000000000039
:102FF00000000000000000000000000000000000D1
:10300000000600001C000070000180000E00003867
:103010000000C0000700001C00003000000000009D
:10302000000000007F8001FFE003807006001804AC
:10303000000804000806001803807001FFE0007F0C
:1030400080000000000000000000010008010008EE
:1030500001000803FFF807FFF8000008000008005F
:10306000000800000000000000000001C03802C09D
:1030700058040098040118040218040418061C18C7
:1030800003F81801E0F80000000000000000000153
:10309000C0E003C0F004000804080804080806188B
:1030A0000803F41801E7F00001E000000000000050
:1030B000000000000300000D00001100006100008E
:1030C000810803010807FFF80FFFF800010800015D
:1030D000080000000000000000E007FCD00608081F
:1030E000061008061008061008061838060FF00625
:1030F00007C0000000000000000000003F8001FF4A
:10310000E0038430020818041008041008041008B2
:10311000071810030FF00007C000000000000000B7
:10312000000003C0000700000600000600F80607C4
:10313000F806180006E00007000006000000000086
:1031400000000001E1E003F7F00634100418080461
:103150001808040C08040C0806161803F3F001C143
:10316000E000000000000000F80003FC3003063817
:103170000402080402080402080404100308F00111
:10318000FFC0007F00000000000000000000000001
:103190000000000000000000703800703800703837
:1031A000000000000000000000000000000000001F
:1031B000000000000000000000000000301A003095
:1031C0001C000000000000000000000000000000E3
:1031D00000000000000000080000140000220000B1
:1031E000410000808001004002002004001008001F
:1031F0000800000000000000210000210000210064
:103200000021000021000021000021000021000019
:103210002100002100000000000000000000080064
:1032200008040010020020010040008080004100DE
:10323000002200001400000800000000000000034D
:10324000C00004C000040000080038080F38080857
:10325000380810000C300007E00003C00000000038
:10326000000000003F8000FFE0038070020F1006A6
:10327000708804C088048308047F8802C09003011A
:103280002000FE400000080000180001F8003E0881
:1032900001C20007020007E20000FE00001FC80094
:1032A00001F800003800000804000807FFF807FFD5
:1032B000F8040808040808040808040808061808A0
:1032C00003F41801E7F00001E00000000000000036
:1032D0003F8001FFE0038070020018040008040032
:1032E000080400080400100600200780C000000049
:1032F00004000807FFF807FFF804000804000804AA
:10330000000804001802001003807001FFE0007F35
:103310008000000004000807FFF807FFF804080811
:10332000040808040808040808043E080400080605
:10333000001801006000000004000807FFF807FF04
:10334000F8040808040800040800040800043E000B
:1033500006000006000001800000000000000000E0
:103360003F8001FFE003807006001804000804029B
:10337000080402080203F00783F0000200000200C4
:1033800004000807FFF807FFF80408080008000019
:10339000080000080000080004080807FFF807FFFD
:1033A000F804000800000000000004000804000801
:1033B00004000807FFF807FFF804000804000804E9
:1033C00000080000000000000000000000060000EF
:1033D0000700000104000104000104000307FFFED0
:1033E00007FFFC04000004000004000004000807BC
:1033F000FFF807FFF8040C08001800003E0004C79F
:10340000800503C80600F80400380400180000080E
:1034100004000807FFF807FFF80400080000080090
:103420000008000008000008000008000018000064
:103430006000000004000807FFF807800807FC0090
:10344000007FC00003F80007C0007800078008076D
:10345000FFF807FFF804000804000807FFF807005A
:103460000803C00000E000003800001E0000070054
:103470000001C00400F007FFF80400000000000095
:103480007F8001FFE003807006001804000804003C
:103490000806001803003001FFE0007F80000000F4
:1034A00004000807FFF807FFF804040804040004F8
:1034B0000400040400040400060C0003F80001F0FA
:1034C00000000000000000007F8001FFE00380702A
:1034D0000600880400880400C806003C03003E0182
:1034E000FFE6007F8400000004000807FFF807FFE4
:1034F000F8040808040800040C00040F00040BC0C2
:103500000610F003F03801E0080000080000000198
:10351000E0F803F030063010041808041808040C12
:1035200008040C080206180207F00781E0000000FA
:1035300001800006000004000004000004000807E9
:10354000FFF807FFF804000804000004000006006C
:103550000001800004000007FFE007FFF0040018EE
:10356000000008000008000008000008000008042F
:10357000001007FFE004000004000006000007E060
:103580000007FE00041FE00001F80000380001E021
:10359000043E0007C000060000040000040000070D
:1035A000E00007FFC0041FF80007C007F80007FF8E
:1035B00080043FF80007C004F80007000004000082
:1035C00000000004000806001807C07805F1C800D4
:1035D0003E00001F800463E80780F806001804001E
:1035E0000800000004000006000007800007E00853
:1035F000047C08001FF80007F800180804E008071A
:1036000000000600000400000000000100080600A1
:10361000380400F80403E8040F08047C0805F008E7
:1036200007C0080700180400600000000000000048
:1036300000000000000000000000003FFFFE20002E
:1036400002200002200002200002200002000000F0
:1036500000000000000008000007000000C000009B
:1036600038000006000001C000003000000E00001D
:103670000100000000000000000020000220000205
:103680002000022000022000023FFFFE0000000098
:10369000000000000000000000000000000000002A
:1036A0000008000010000030000020000030000082
:1036B00010000008000000000000000000000100F1
:1036C00000010000010000010000010000010000F5
:1036D00001000001000001000001000001000001E4
:1036E000000000000000000000200000200000108A
:1036F00000001000000000000000000000000000BA
:10370000000000000000000000F00019F8001B1885
:10371000002208002608002408002410003FF800BA
:103720001FF800000800001800000004000007FF58
:10373000F80FFFF0001818001008002008002008FB
:10374000003018001FF0000FC00000000000000053
:1037500007C0001FF00018300020080020080020DB
:1037600008003C08001C1000006000000000000081
:103770000000000007C0001FF000381800200800FB
:10378000200800200804101007FFF80FFFF00000C9
:10379000100000000000000000000007C0001FF043
:1037A000001230002218002208002208003208000F
:1037B0001E10000E2000000000000000200000206D
:1037C0000800200801FFF803FFF80620080420087D
:1037D0000420080720000300000000000000000093
:1037E000000E000E6E001FF30031B10020B100206A
:1037F000B1003191001F13002E1E00200E0030007A
:1038000000000004000807FFF80FFFF80010080090
:103810002000002000002008003FF8001FF80000F2
:103820000800000000000000000000200800200840
:10383000002008063FF8063FF800000800000800D6
:103840000008000000000000000000000000000070
:1038500003000003002001002001002003063FFEBA
:10386000063FFC0000000000000000000000000413
:10387000000807FFF80FFFF8000188000300002F81
:10388000C00038F8002038002008000008000000C0
:1038900000000000000004000804000804000807FD
:1038A000FFF80FFFF8000008000008000008000003
:1038B00000000000002008003FF8003FF80010085A
:1038C000002000003FF8003FF80010080020000032
:1038D0003FF8003FF8000008000000002008003F0B
:1038E000F8003FF800100800100000200000200839
:1038F000003FF8001FF80000080000000000000072
:1039000007C0000FF0001830003008002008002029
:1039100008003008001830000FF00007C000000059
:10392000000000002001003FFF003FFF00101100D9
:103930002009002008002008003038001FF0000F88
:10394000C00000000000000007C0001FF000381891
:10395000002008002008002009001011001FFF00AF
:103960003FFF0000010000000020080020080020A8
:1039700008003FF8003FF800080800100800200881
:1039800000200000300000300000000000000000B7
:103990000000000C78001E180033080023080021E6
:1039A000080021880021980030F0003860000000F5
:1039B00000000000200000200000200000FFF003B5
:1039C000FFF8002008002008002008000030000058
:1039D00000000000000000002000003FF0007FF821
:1039E000000018000008000008002010003FF80048
:1039F0007FF00000100000000000000020000030F8
:103A000000003C00003F800023F0000078000070C0
:103A1000002380003C000030000020000020000057
:103A20003C00003FE00023F80000E0002700003EDB
:103A300000003FE00021F80001E0003E000020000F
:103A4000000000002008002008003838003E680010
:103A500027800003C8002CF8003838002018002008
:103A600008000000000000002000003003003C01BE
:103A7000003F830023EC000070002380003C000026
:103A800020000020000000000000000000000038BE
:103A9000080020380020F80023E8002F88003E08A6
:103AA000003808002018000070000000000000002E
:103AB00000000000000000000000000008000014EA
:103AC000001FF7FC3000062000020000000000008C
:103AD00000000000000000000000000000000000E6
:103AE0000000FFFFFF0000000000000000000000D9
:103AF000000000000000000000002000023000066E
:103B00001FF7FC0014000008000000000000000087
:103B1000000000000000000000000018000060002D
:103B200000400000400000200000100000080000DD
:103B30000400000400000C0000100000DE1800006B
:103B4000171A0000B91B0000171A0000DE18000049
:103B500046190000461900000D1800004619000023
:103B600075180000AF1900000D1800000D180000B6
:103B70003C170000A4170000D316000075180000C1
:103B8000AF19000075180000511B0000801A0000DA
:103B90001D110000EE110000F81300006114000078
:103BA000271300004C100000410E00000D1800000B
:103BB000DE180000370C0000660B0000120F00003A
:103BC000120F00000216000031150000660B000005
:103BD00049443303000000000023545353450000C0
:103BE000000F0000004C61766635352E31392E31DC
:103BF00030300000000000000000000000FFF36013
:103C0000C0000000000000000000496E666F000068
:103C100000070000003B000018B1000A0E0E12124F
:103C2000171B1B1F1F2328282C2C30343439393DF7
:103C30003D4145454A4A4E525256565A5F5F63636C
:103C4000676B6B70707474787C7C81818589898DD9
:103C50008D9196969A9A9E9EA2A7A7ABABAFB3B34F
:103C6000B8B8BCC0C0C4C4C9CDCDD1D1D5D5D9DEBA
:103C7000DEE2E2E6EAEAEFEFF3F7F7FBFBFF4C6187
:103C8000766635352E31392E313030000000000097
:103C9000000000240000000000FFF340C40000000A
:103CA0000348014000000000070280000000001CE3
:103CB00079B1EF370A7D9C3985FEF806077FCA6027
:103CC00027FB59FFF2440440FFFF81C9531077FFDF
:103CD0006FC5C828BB3A7FFFFFE28E742508CA7102
:103CE0007FFFF48601F1000CD9C77FFFFE270FAAE2
:103CF000E3C1473EC6CC30DA6501B6CB223A420C6E
:103D000022FFF342C45B124A562A598D2800412FE4
:103D100002C24411AD9388664FA019D87388187CED
:103D2000A21E4CB28D0829604271982F8C99711493
:103D3000DC7205847A23900C84685E6D34C72CC0D5
:103D400089AC63011913C5A489337413ADD0103045
:103D5000E59002F1112263F0A312219958973A9944
:103D6000CD37BA6360CCA2A341A6FFF340C46D2552
:103D700072E2AC01999000B218A1D8A48F0D418ACB
:103D80007C8F347BFFE5F3EA76A6D7E59494B65BA7
:103D9000D47EAFFFFD1D9FEDA5995BEFFFD7FFA67A
:103DA0009037A9174E41B96C06C3669A5888AA2362
:103DB000ABF23A682889E902FCCEC35F712DA61BDD
:103DC00068D766D59410B75CE9887243A1CB31906F
:103DD0008301FFF342C43220D322C597D868028AF8
:103DE0004145A882540A10F2363649474A5EB3016B
:103DF0003149FA438C95455A65F28B79C28A3D392F
:103E00009AFA51A8B84B3B0E54D125479229B6C116
:103E1000C0832BADBF3AAFCE1BFEA3CDF7257FAB42
:103E2000E7EE6EBD2EA53A9FF4BBBB204E47A74AD6
:103E3000EA91B39FB758DDBBF1E45CFFF340C40ADD
:103E400015FA72FE5E7C4ABA653AA612415BAC6610
:103E5000D92EB7524F262F6524945F161109BB4CFB
:103E6000030495149D112201AE95144BC2108238A3
:103E70005A7E88B023D9310321F243F1BFA37E4F8C
:103E8000D07712C2BF45FFFD7F8C1FFA37F16FF26A
:103E9000AFFEDEA25FD58C2357B6C6D2BAF196A686
:103EA000A7186DFFF342C40D178366EE5E7C84BED7
:103EB0008545BDF59903F1C90985AC6A4B4B3C6654
:103EC00032C1D29557AC7280B9BACD9D019F0264C0
:103ED0005741399860C0BEA83DE581D2AF3A294527
:103EE000B7912FBA27FE73FAFE8375CFFDFFFF5FF0
:103EF000E087FD0FFC4FF56FE4FF7FFFFAFFB7F19E
:103F00002648110D9654D26C3F922D98FFF340C471
:103F10000B16EB66DA567C84BE0488D4DDE06F05B0
:103F200033418EE17C67E7D558FE2733FAD41E5023
:103F3000870B27478352F07F40610D6A48BA1C50B7
:103F400073DFE369FCE0D7FC8AFE587F9C7FD3FBDC
:103F500074C6FD49FFFFF821FF8FFFFD7F9C0FF91D
:103F600007D7D3FC332FF2FDE3AA6C01458D4C92A9
:103F7000DA32BD1BFFF342C40A16DA52CE56C44EE3
:103F8000BA87271DD61E963DDDCD508A1E9D723FF5
:103F9000F28C7459040CC5C82F8DD9E993005C9A32
:103FA000209D32807BA83EA19F0C146FB225113A50
:103FB0007D632DF979FD0462DF28FFAFF2DF9DFDFF
:103FC000BFBFE9FD097E5434FDDC9EF2DD4FFEA645
:103FD00074F2958C13CA1553FBBBF1891EFFF34095
:103FE000C40A1662D2E6767C8ABABD84B9236E3FD3
:103FF000DBE0331C84049757167D22FB0E60B788E4
:10400000B37619E01932DACFA488FA0E9D2D148503
:10401000A43E8DBCE0B85BD1170BFCC7EA16DF47A6
:10402000FFFDBA623FDFFBFE9FD7F8D27EA3FFA35E
:10403000FBD08DF8CF6F51EE9EB50001066C97F85E
:10404000FAF85FA480FFF342C40B163AB2AE46CB37
:104050004AB8C11D8B3F2CA913BB18364645869F15
:10406000149F5A80361D96D1AC0F3EB3821C025865
:10407000CD32C650FE08D1BF589A01E28748C81F0A
:10408000CFFA85F43E65F88BFD07FEFFC775C67F46
:1040900037FFE9FD7FAB7F27F4FEA02F53BFABD0E6
:1040A00068010C895569E0394B5F0C5FA5D0FFF3BF
:1040B00040C40E16F2D2C256C34EBA502BDAA1FA41
:1040C0001188D7611375B04EEFB896001B0C4C2ABF
:1040D0004CF004534556A1A414847A21D8015CD92C
:1040E000AC6A2C43B2FD41384FE5DFA050BFD0BFD2
:1040F000EDFC638E623B7D459FFFA7F5FF6FE7FFF9
:10410000FD2680E31BE3C77FAA6C115691A71CBB59
:10411000E1E4D46827B0FFF342C40D15E31ED65E78
:104120007B4ABE7C2ABFAE6C3E1C870AABE0B63A27
:1041300029267039E13DF5886011694FA4B1F01569
:1041400028750C70B27F4044B7C16FFCDBEC318D39
:104150003EA1FFBFEA3B9F67FA17F47FC637E16FC6
:10416000FA0EFD467FB7CA802AFFFFFF8C6A18B798
:10417000A7DB5B37FF81CB08A1B03514341D00FFEE
:10418000F340C41113CA2AFA5E6BD49A26440698E7
:1041900091FF32FEF3F2CA3AB7FFA2EC0968F99A2E
:1041A000993B82576FF308648FCAFFBDAE8CBDFE8A
:1041B000543046F37F5FE3BED2DFA8D390653F8ED5
:1041C000FE8FFA37E2F7EAF3BFCB556C010C6D9224
:1041D0009C9200E68EC561C22CB0CA3CE28E84A9D6
:1041E0008960A6618B63DDFFF342C41C147232C682
:1041F0005E8C549A6A21C1E06EA21A0A82D2996A30
:104200001D60591BA1A639028ADE74773F940415FC
:10421000F9DF90BFD453F93FEA35E478FFF2A53FC8
:1042200047FEDF952FD4FEFEDE5548014D91C57641
:10423000DA2AA2707F0871DBA5483E02484083D984
:104240005316F7AD110700699B33CE868018A8314D
:10425000FFF340C426141A4ECA56834EBA6A6A1631
:1042600020A423A961884CD2D989A17C6F91FFFE3B
:1042700038FF52FFB7EADDB2DFDBF28FFDBF343F1C
:10428000F97E2DD7E7BFFD0AB0259F9636D4DF8192
:10429000886F5FC037CC173F4BE6000DC8C1735421
:1042A0003FC60D49A8CC404178DE5F0558DD364158
:1042B0006500F750EC5F1327FFF342C430141A6E09
:1042C000DE5E7C8ABADDCE105F9D1403B7997E66F0
:1042D000FABFFFEDF897F7FC63FEADF9037F537F5C
:1042E0000576B7F3BD35B0319B51BB01FAA5A4BD2E
:1042F000031710A2A9CB925F8347697F625770C2F0
:10430000FDD68099813143A86902F119E658D41B82
:10431000E9750AA3111EE640FEFE4C0A8A6FE63FCD
:1043200087FFF340C43B13DA6EA9AECB44B86FAB42
:10433000FEDFAB7E17FBFE09FF5FE83FF6FE2FA90D
:10434000FDFD2A80319362BB01F955EE3050A788FC
:104350001D57E97197009450A816FF2B0B8EB40CD3
:10436000C78813CFD631001F4D103EE80EF025C68A
:10437000EADC9508C7B662B1DCBF70278D3E65F8F0
:1043800057FAFF3FEA37E0BFB7FFF342C446146273
:1043900092A5AECB44B8E9FEFF821FF4FF27F05E82
:1043A0008EAA2801042D204A003F75E9256BC00B19
:1043B0000849046E9E217E00316A95E0E3270BF5E3
:1043C0000824A5AAA1F83606F1D408DCB6B49D43AA
:1043D000E43A447AC440392AD68A20553DD4560955
:1043E00003B798FE60FF3BFDBF59EFCBFD7D9FD922
:1043F000D3D7FFF340C4501439AE9E56D49A94D507
:104400002C011DE65DC807F3E53033254C3288DF0B
:10441000CE82E4C8AC61D62519CAB0B4FC49C2D674
:10442000FD41A402C8CD32C3C98F80A943A23881FF
:104430009CFEEE4E1DEAEB1A004A9B9FF24BF0CD1C
:10444000F56FDFF56FC43FE3FE9FEFFA37EA3FF009
:10445000DE4BA98C159E7236EFD4FFF342C45A147A
:10446000B272AE36C344BA018CFBC876883AA7FB59
:104470006A703C16A1A00DB273109AB740BE180026
:1044800050CBF3C0F4F21C7D083D2EA12F17127EF5
:1044900098933FB82690F98FE66DF5967B494FD6F5
:1044A00036754E093217E7472357CE37EA7FE59D29
:1044B000BCAF5A10139E5634E69401FF7EA413F14C
:1044C0002147D2FFF340C46314AA2ECA5E7C1A9A15
:1044D00097CC001E99042CE457FC975D46C5D48206
:1044E000D65C7FFF8CA00DE17729E8DE2D57FFD841
:1044F000C104C1ED987D18447CE8C8FD2FCC5FEB6A
:104500003DF9BFEB28F46B25DBE80F17643B392E30
:104510004B9660330A4B33900FD728E89A71780A8C
:104520005539723BF3215AB6AD7A97FFF342C46B0B
:104530001481CEC65E7BDA96B50BE764CC08F0C872
:10454000A0B47FCA605A375B3287C89C11EB142035
:104550007BADBCC046ADE6032B7F2EFE020B7C6B11
:104560007E4FE3BF015FF7FD1BF47FC68EFC819F8A
:10457000C775FFA600012731A60F803F5F72EBD4FD
:10458000294848555ECA793E0A42966DE4FD2207E5
:104590004307A2ECFFF340C47515326EA1B6C40AFE
:1045A000BAB381060240D7C5A406E1AA8D5932806C
:1045B0007BA869221FE0F7D2DD22385C697A864B3E
:1045C000F2F7D0226F956FD7F96FCA7FFF6FD3F9DB
:1045D00056FCA11FE4FC9D0C01FFBBA749BC01FFD9
:1045E000F853BA021C2405BCEA768065D4833E4C9D
:1045F00019A6805AE1FE8072601326CCFFF342C4F4
:104600007B156A729656D44EB8F4C6A0376971030A
:10461000EEB143060B4979807B62367F331A4FE552
:1046200043BF117F1596F956FD3FB7E57FFF46FD65
:104630003F956E47960C0126494613003FF2A28B28
:104640002B932C92796475DF0953EA66C6932D3A51
:1046500077B86DECC9A040C2C3001616AD8BC19BE4
:104660003EBE6624CFFFF340C48114422EA65EC432
:104670008E98AD212D0DB0D76351D21D223EB26D63
:10468000BE477B4213FE55BF37F96FC69FFFA37E1F
:104690009FC4EDFA0CFF2DD408031C2E2C2E003FD6
:1046A000F54B1E5151DB53E75CB5844CD05526D4F5
:1046B00083F71841C170FA28198EC04D002A9EF068
:1046C000FA0A03AE799407D026062A5B1BFFF34251
:1046D000C48B157A6E8E56CC8EB882D00BA7B79845
:1046E000094B7A8707E4DFC41FEBFCDFDBF17FEFC8
:1046F000FA37E9FC2FFA8B72FD55103B26617001E9
:10470000FFACE30C0CC045125F0E5244E65F02465C
:10471000CFB3759253B9E0C147B513617E41C67FEF
:10472000CB808D4A883AEC2DBEB1580D9D25DCD842
:104730005A80939B36B2FFF340C491151A4E9E5691
:10474000CB4ABAC0BF4DFC6A7E2337D5BF23FDBF1D
:10475000127FFF46FD1BF10FF1D21FA8ABC82A083C
:10476000014C170103DA01FF8D696B8C641C4EF458
:1047700082A3D35E5A69968B2A7326B78B25F6706F
:10478000E201B1C35F0FC801CC8B4B692C4B832373
:10479000992D491A89D83C47F69D1C5EA298FFF3D3
:1047A00042C49715CA728D96D48EBA8D90F94DBBBE
:1047B000C2EDF56FCBFF2DCEC467FDBF96FD1BF19B
:1047C0003BFF2DFC8FFA6A0C011C55B556B681D4FF
:1047D0005912E0820712E8D30D94AE3304F971A2A6
:1047E0000336E8080E1F9A5E2460062206996904C3
:1047F00013185EA1762CE4FA25111A37A208C3FC1F
:10480000C1FB392A7FEB6FFFF340C49B1692728A7B
:104810005ECC8EB8D0FEC965DB1E28ABD229FF6FF7
:10482000D4DF9D7EA777F6F2B500331E80FE57A930
:104830001356C31B90054435F86D7866B04620F8D2
:104840005EA6532AC7F6953FCCEA44D2B0D2AB7AE3
:10485000FFD444791635CC74A26D1AAEB78DA55528
:1048600007C2D3DD21F02756EB14E022CC4ACDFF5E
:10487000F342C49B151A2AAE5E94DA9AC81B7CB127
:10488000FCF7E5FFE7BF29BFF474727D3D0A1021F4
:10489000042186C196FB6679AE993423E16174EDFB
:1048A0009255092B5256286F950DD6A0F6A9A8CC83
:1048B000860824037A79F588901414145B3E918855
:1048C000983758BC13AB77321477E80EB00FC5C6D3
:1048D000F347F9B9EFDBF30FFFF340C4A215D9AEEC
:1048E0007584DE2294E7BF263FDDDDA9FDFFFD15BF
:1048F000000108B04AC0D67ABB40C64564C142B385
:104900005622D28616614CA95EC321B94619A6EF7C
:10491000FFEABB19135CF63FFF7C89D6F3E6B6F4D9
:1049200030DD6F5AC56506D66DB3164817B97415D4
:10493000615D1F3EDEB255FF6FCEFF6FC71B994F03
:10494000FFF342C4A51519B27DB4D4A2944725C87B
:10495000F26A4401843D93C29781FFCCF07DC096FA
:104960008D472CB12BA5808C4915F07AA4591C5D7C
:104970007B87B00DC06BE18340E90AB244D5921544
:1049800037EA19F1627F446F3758FC167D1366E8E9
:10499000BFA87610ADE71BF4BFB7E557FFFDBF5BBF
:1049A0007E71F92FFFF4D52030FFF340C4AC151908
:1049B000AE7A34DE2694C4897C800FFC6D4B59D1CD
:1049C00094F0FCD20B8F0CAE1C39502241A1C529AA
:1049D000F0EBF4CC03238206A5F1D002B4B881F445
:1049E000D42EC5A96AA26418E87B86BBB96095F489
:1049F00007583668D1BD5F8289F42DF83DFCE16F20
:104A0000E00CD4F2DFA37E55BF133FF2DD2A000194
:104A100004FFF342C4B2150A2E8A5ECCA09811811D
:104A2000C9F03FF7950B4620F05BE9BBF199A6165C
:104A300014D6C3C52040CB8CE18B1D93302061BEC2
:104A4000003B1BF8E5017F375A59742E2374C6309A
:104A500046ADEE3B9FB9A82F25747DCD7B9544983C
:104A6000458FB72C7F36FD4DF933FD3FD4DFADBF09
:104A70002C3F21D12001451B6651FFF340C4B916DC
:104A80005A4E7DB6CC4EB8F03FF3C29DF4317A1643
:104A9000F21FAF0071DA37321E1948C0D7BF6AAFB4
:104AA000FF8578823D11668BBFFEA262A4CEDC86B4
:104AB000C574EC400DCDEB2992522BBB5FF8F2850B
:104AC000F8E7EB2200DF53F9ABFC47A3FFF6FEDF6C
:104AD0009C7FCFFEA6FCEFF2AEA7FFFF520400A121
:104AE00010C6FFF342C4BA163A2E7A5CD4A49830AA
:104AF0001FCCB1B4D64CDC51742F9CDB1A972EC35B
:104B00009B5059C0A5C9C2FA6A01004BAC50E07D68
:104B1000291245DA680A24D107B0AF02D32B23B09B
:104B2000CB82C23FF22BE80C700B23CDE3D8F740C9
:104B3000CC2F222DBD7FCDBF51EEDB1A2BCE929F05
:104B4000A9BF3BFC89EFFFFEAA0030FFF340C4BDC4
:104B500016EA2A7E56CE1A9883B424B80FDEB734EC
:104B6000A7655872F0D0549F8E27690CAA8E8A715F
:104B70001E60CB06EBF6330BA002D862AE33C173D6
:104B80006931B3A87F0C6CBD67024E16484454B41B
:104B90002530E39DB9881229FC70BF5A8421B7D60D
:104BA000DF9EFD469DF2FFEA35FD4DFAFF95793A0D
:104BB000002084FFF342C4BC17A22A6D1ED4DA98E9
:104BC000690C200FEE16E91AD992AE1DDDD4963885
:104BD0006FEAE639D4059D07BA491E541B81D6A455
:104BE000C980D56071E61E3AC0398DD33CCE5C0BCE
:104BF000AC7BB9010CA1EF61D8DE500248FD0289FF
:104C0000BB417869F56FDFFB76C71FE84FFA37EADB
:104C1000FF8BBC9530330490B4E2007FFFF340C4B7
:104C2000B916622E71BCDC9A98FCAA5ABB8BE88B31
:104C30005CD55CE5063634026EA87FF92FD63301C9
:104C40004E1CA3AB7FFEA50444D8CEB2460F7C7F9A
:104C5000E52001CB3FF1ECBA1BF6FD0593FE2FF7E3
:104C6000609E35FAB7EDFFDF114DF526FD1BF5FE11
:104C700053D00021389207EBEA4CA8E10CA209A519
:104C80007470EC04FFF342C4BA15AA2E6DB6D49426
:104C9000985403305C94128CF12A60CE04801FD6A5
:104CA0006025C031307949B2C0A4DD9DD6470706E2
:104CB000FD119E0E336F2787A7F33012669F1347AF
:104CC000EC98C537FCF7EFFDBF1F7F59A721FD9D6D
:104CD000150282087F3B491B650642CC1140CBE29E
:104CE0006A3938914714C824F42A897345FFF34080
:104CF000C4BF143A2E91BEC3D49A2208AE6AFB07F1
:104D00004607DB93C8AB33129568647871DEA1D691
:104D1000265D9123439447C8D00B1D17D62936EE44
:104D2000C3183D379C2D7E69FDBBE3E36EA35E8F08
:104D3000ECE910222EB0EFE56654CA4C2D0459B6AA
:104D4000455DB14BD1B0D3E4030D03558E022E9ACD
:104D500000E0BB3A05FFF342C4C91459CE698CDDAB
:104D60001A94F0C0010C0BBE6022D56A1BA4F37527
:104D70000968F435D371A012143AC6804F537F18D6
:104D800047F50D487CE1EFDFFB7E49B7D45BD1FFEF
:104D9000D210233D664AD1FFF7661B1922F806E6BA
:104DA000B3A067A05B2C444089A6185FAE8198EC45
:104DB00001EC0175BC7E01D6831F78B16476FFF3E8
:104DC00040C4D31501CE6052DCE094725444377273
:104DD0007039DFCCC04721F1EEDEB372CF9C6FD0CB
:104DE000FEDF9A3EB3DDDFFAFFFD5FFEDEAA17E7C6
:104DF000629DF448B3232740D2B4B865880B48902D
:104E00001048E58A8088F0D056CF14A9366887CB41
:104E1000F0DD489A9A9F31CA7367BCD377081D3F6B
:104E2000BBDCEC9641FFFFF342C4DA1479CE698A09
:104E3000DCDA94FFB51C0D53B9509D0F280688CDC0
:104E40004BA423102FC372AA4BC468FF15935F961F
:104E50001BF2FFF6ED97BF58F0EC87476F25103037
:104E6000C4814991FC7FEFB65F600160D1D516A285
:104E70003134F433D820C200E5C6608BA6805C32A2
:104E80000EA59808900DA0AAFC86828446CD3AFF14
:104E9000F340C4E413E1B27D96D35A965956E88C98
:104EA000F071BEBB0150F758D01B37F1BBE98E1231
:104EB0009FCA9BF30FE69DEC8B55ACA876FFF6F4EA
:104EC0007FFB7A3FCAAA10223E7F4ED1FFBD577AA0
:104ED00007544019F6CCD309307954D42EC4D39753
:104EE00008ABF604FC00E66DE2680E1427DD0166EF
:104EF00019DF5A00A3025CFFF342C4EF18B9CE4C8D
:104F000020E6A694F9F2903D012B325F321825BFBE
:104F10009AFAD426852F9537E67FACF7E457FB8BBA
:104F2000EFFDDAFDDFFD0AD0E4D4CFCBD11089DE6E
:104F300067625ECB0C85084AA1AFC16B69EC0E02BB
:104F40003DE6416C64B17BE72A7805AE7F709597AA
:104F50000087894E5CEF2FABEEEF9FA67A8F98E526
:104F6000FFF340C4E81689CE6DBEDCDA94BDD64DA1
:104F7000D02C03552D04081823B12EDA85F85DE5F1
:104F8000C6EA26BEA1F47BE71BF57EBFE433F59CA1
:104F9000FE85CB1CA961A4F530EA6C1CB981A4A9DB
:104FA000DCB9C002036AE98CB8122F9B5C7FE9EC84
:104FB0008318F7F55E184D7398FDD4DFFFD5579B26
:104FC000FE73B10261B7BFFFFFF342C4E81679D2A6
:104FD0007996D35A9635F004C2544D45522217E4BF
:104FE0000D842752DC8A81E84491752D69B7CDCBB9
:104FF0005F2C1EFD7FADBB632EDF908EFC97F4AA65
:105000005901DDEAEC718D811225A780248F1B3EAA
:105010001106CC9F7B30E03581446E72B10A0D7E63
:1050200075226B0A75C03E77BF9F30D8F0FEE5B69B
:105030008CFFF340C4EA15E1CE5448DE6694B0F923
:105040006FF5553B82D9A4B51B9F15C0152951EAB0
:105050003A228041A532B3745FE4AB7CB0DFABF59C
:10506000FF241EBEA33FF77EBA901338050B968F20
:10507000FE7796D52A31DEE57B30F1DC41324364A0
:10508000B68296227A965806980B8357E4D86163C5
:105090006A1626C334FD021E36FFF340C4ED18091C
:1050A000CE4C00E6A6949FB94858DFCA61C721F5E7
:1050B0007E62FF386BD4A99FE750FCBDFCFFF25F16
:1050C000C97FFEFF5C77E4B172A818300FFDE5558B
:1050D000BB1800B8244AA5F8CB2310030D3F343188
:1050E000E02177BF91BA7A8168AA7FF702F39C37F3
:1050F000BF58E5CEDD4CCC79CC74C6507297BBDD81
:10510000C4FFF342C4E716E1D25424E6A694FD0C92
:10511000508A96686A24601418DD0B38B340D800B2
:105120001DE4EA5C7CFDCC0FFCB0FFA1FADBBE43C2
:105130007F59A7F5FFBBFFFFFD1557FEF09B700CD5
:1051400006544AC91CF455910882A621A398B00EB2
:10515000C3A53AE742AED9D67844D0D0C7AA5FAD4E
:10516000FEE38D870FBFF9C40685FFF340C4E71542
:1051700001CE799ECC6096BDFFF9CE02289E752C9B
:10518000D457416E15525A8E877004DD32B23A8779
:10519000C7E52FCE1FFD3FD7FCA5FCABFD6A100471
:1051A0001B83BFDFB73A50144C792F9974A109249F
:1051B00075888513EAD30B96619801ABFCD6730C06
:1051C00018F26611DE7F334CEBFDE6AEB46473B5C6
:1051D000CFFDFFF342C4EE1899D25426E66894B589
:1051E000410BA4B51F36178174505A933018F03D07
:1051F000C08821E40DBE91EF9C3FFA1FAFDF336FF3
:105200009C2BFFFBB53FFFBFFFFF5DEEF5CB8F098A
:10521000294C384B72ABD4C8C181435DD08C4C0C47
:105220005377F2374F386352C9BBFAAE8EA0744D34
:10523000F59EF328EAD4C7F9F83EE1FFF340C4E74E
:105240001599D25420E66694C9A7F9FFCA3050F1E7
:105250005D9681B0C702898B6CECE2CD018F238C07
:105260009D4B8CA7D65347E70B7F9DFD6DFA7FCDF5
:10527000BFF92E95C0113E06E3FF07F4C0A011DE72
:10528000828E9483F1013B42C747B23B8170FE2678
:10529000800A86BE7039ACCEB506102806AFA85578
:1052A00009818AFFF342C4EB17E9D25036DE6694D7
:1052B000A78D45507022AD654091A9FCDDBE62FF0F
:1052C00051FFD2FD7FCF3FD669FFDB43FFD3D2F73B
:1052D000EFE6BA3F5A0652A8029E9E9EDD7C9C04D1
:1052E000CF7FDDC7F1762D03D8605865CCB9B3AB5D
:1052F00013837D514A6A887828E1BF7EFE1BE3CE86
:105300003BC78F2044149FF57BB58F1CFFF340C42F
:10531000E716E1CE4400E6A894DFEFC11D3F7EF919
:1053200053902877BDEF7AC7BD294A40B5294BFF76
:105330001EF7BDEF4AFC7D629ABFBEF37BC6EC2828
:1053400030EFFEBA9A769CA674CE95B8024051937F
:10535000191E50741831A1069E31C7501C2921987E
:1053600033FB34CF500AA6ABB588AB68101A755022
:10537000DECB2ACAFFF342C4E614E9CE619EA35AEB
:1053800094E8D882F5EB0BA2FC753E7CF58542DCF7
:1053900087333E5727995B99B7EB047C886B9AB4A7
:1053A0001505445963DF9EFCAF554C414D45332EE6
:1053B00039392E355555555555555555555555551C
:1053C000555555555555555555555555555555558D
:1053D00055555555555555555555555555FFF3404A
:1053E000C4EE1861B25854CBDE94555555555555F9
:1053F000555555555555555555555555555555555D
:10540000555555555555555555555555555555554C
:10541000555555555555555555555555555555553C
:10542000555555555555555555555555555555552C
:10543000555555555555555555555555555555551C
:105440005555555555FFF342C4E71629063400C695
:105450009E70555555555555555555555555555598
:1054600055555555555555555555555555555555EC
:1054700055555555555555555555555555555555DC
:1054800055555555555555555555555555555555CC
:1054900055555555555555555555555555555555BC
:1054A00055555555555555555555555555554944C9
:1054B0003303000000000023545353450000000F45
:1054C0000000004C61766635352E31392E31303092
:1054D0000000000000000000000000FFF360C000BA
:1054E0000000000000000000496E666F0000000729
:1054F0000000003E000019EA000A0E0E1216161AED
:105500001A1E2222262A2A2E2E3236363A3E3E42B3
:1055100042464A4A4E4E5256565A5E5E6262666A2B
:105520006A6E727276767A7E7E8387878B8B8F9394
:105530009397979B9F9FA3A7A7ABABAFB3B3B7BB03
:10554000BBBFBFC3C7C7CBCBCFD3D3D7DBDBDFDF7B
:10555000E3E7E7EBEFEFF3F3F7FBFBFF4C61766676
:1055600035352E31392E313030000000000000007A
:1055700000240000000000FFF340C400127805285A
:1055800001400001E1999FBFE08C1D9BFCFC0CFFDA
:10559000E8FC0CD7F47E6FC1DE2239F83B82333E43
:1055A0007FE08C1D1DFE7C0333FE9F81927F47E6CA
:1055B000F80EF3333FFF86667EFF8230766FF3F09E
:1055C00033FFA3F0335FD1F9BF077888E7E0F048F5
:1055D000381870DE06B0801BA21E1F18658FC0FF32
:1055E000F342C41118C3D65001946800150738F46B
:1055F000FC7B938787FA6E80C07FE9A0818129FFB9
:10560000F89417D02017DC4EFFFFF2E8C18F32610B
:1056100028360E32991BFFFFFF361C8391729A12B7
:105620009A0CE77FFFFFFFCDCB4D1348D18DEE6E77
:105630006081E2FBFFFFFFFFFFE6866E5F37CC383D
:10564000072C2479733E83E9FFF340C40A16B9BEE0
:10565000CC018F58004C119334BF9C6648D602A0F1
:10566000CE4477D958EC7E11B7BED25F31B6131550
:105670003F5B4C1EB518D3EFF31199E6E451CA51C4
:10568000A66F67EFC8B1901A864219C78F750B6C69
:105690007F7F7E9C5BA555EFAAEB699F779673BBD6
:1056A0001A9D8BFFFFD587FFC7EE76F4920C6541FC
:1056B000FFF342C40A1631EAC4CBD8680213EE13D2
:1056C00076A550B0F332DC3FF52A6BCC57F1FF588A
:1056D000F417DF4A4F1194DAAA8360BC8B56620F2D
:1056E000215636556A90CD596D610A1C0B5A2B987C
:1056F0008C819497A639DBEA2D47A4A387BE892223
:10570000424B769D6FCEA5D3FD647FAD8811948EFC
:10571000554E5C3B58D8648163FFF340C40D178A33
:105720004EDA567B54BAE440AF79A9EA0FD3253656
:105730009EA8E80AB06CA48A4B60FC02924CBA6541
:10574000D005229772E002B078261CD41F43811F37
:1057500058E57F8FA108DE81927AA14FE3BF642DC7
:10576000F9A3BD72ADF8BDBFFFAFF50F9DAFC33C50
:10577000AE886BECD3DC0BAA64015C8D4CAACC3BED
:105780007AFFF342C40916534ED6567C4EBEB3354B
:10579000C1DA0D08B8D6BF05F05D43DBCDC2E042EB
:1057A000ACA86EA9B0BE135452D44605EC357EB0F9
:1057B000FEA7EA1D21A637C8737D01B3F90F3DF797
:1057C000223FABFAEDFCBFE57FAB7FFFFEC501CF0B
:1057D000F139FFB1CFFCEFF3FFD7FEFAFC716A6439
:1057E00001848DAB2A5C3EABC16AFFF340C40B164B
:1057F000EB4ECE56C344BEE53B740E6D8C2FE7FBDB
:10580000264AE966D35A85802BC62EB6586006759F
:10581000AF8E3025692FA401B0244CCC793032B73B
:10582000AC6BFC982D7F2EFEB2DFC18AF5A8DFA3FA
:10583000F4C1FF51BFFFFFA0EFF947FEBFE17EF8C3
:10584000DFE57DFEFEDA9835400112894A86483E42
:10585000A415FFF342C40A16EAFEC256C34ABA9E12
:10586000F1516091CF7DBB5CD14895D5AC19CD008D
:10587000690321F45EA01602CB4E992801A93F309E
:1058800000921E0829D4980A8012282FA41507F523
:105890008B863F853FC821F8D7FD5BF47EBABFF108
:1058A000DFFFFFD043F8407FF27F9BEFBFF8CFF8D8
:1058B000BAA813DFD648E49BF1272BFFF340C40AB4
:1058C000147ADAEE5E6C44BA40CC4E9D6DC3205E15
:1058D0004A469AC4542D148E3A564E1DC22765541A
:1058E0004D0549E7EB1199AA95AC4508BBF78B1913
:1058F000EF8FA215FE7FE27F07F4AB7E093B6A3F84
:10590000F6FFFFFE85FE09FF9BFA97FC27873FD72E
:10591000A813EDD2B96B9780C99755489A32366C67
:1059200029C2F4FFF342C4131422DAEA5E6B54BABC
:1059300088EEB1F01920833CFC08E0CD4F93C246BD
:1059400097A605E8B7333AD8D422DFE1BA7FE7C497
:105950005BEB967F9082B7F8BFE92ADFA374EFFA7A
:1059600037FFFFFBFF4FF5FF3BDDB1FBB925A82358
:10597000DFFA396DBB81E0D73EF011BAA5B7F9481F
:10598000CB23ED42B01978A281BA9821FFF340C42D
:105990001E13AA96EE5E7C8ABA80F12D0A098B301E
:1059A0000250CEBD4224AFA4315FE21337C8F1DD0F
:1059B000F87BF2057E16DFAB7E605EBA0FFD1BFF43
:1059C000F97FA86FF5FF19EBF0DAA893EED2B724B0
:1059D000BB8162F2EB1A82E6F77C2CC731AAD9CFE1
:1059E0000768190B689F6586B843EBD4907D5BD13F
:1059F000104C6F18FFF342C42A12EADEEA5E6C4ACA
:105A0000BA197298C27F8CEFE4AABF1BFC17F1ADE4
:105A1000FAB7EADFDFF19FEDFD3F8D37F5FF3FFA83
:105A20007F883D44014D6DE572DA2AA9D021E08ED0
:105A3000374D9B0C28414C8EEB0FA1152A2B36C4F9
:105A40007091F8D6018E6DAD46601224BA69EA01F4
:105A50006C154BEB384CFCE9A7E21FA8BFFFF340E5
:105A6000C43A147A72CA56834ABAE35BF5FE16DD6D
:105A7000357FC63FF7FEEDF85827F20FEAF7F4BB83
:105A8000FFD668815C91EF52C0339ACF2B707C8037
:105A9000315FAD7E1A6C57FA426014CF27AC3C815F
:105AA000E7E82629002A2FCC8308124B47506B4683
:105AB000417E8903FCA237BF2EDF306DFAB7EAFFC3
:105AC00095FF7FD0BFFFF342C443139A72CA567C3E
:105AD0000EBAF7FE6FF3418DF947EBF772B56C1113
